{
  "contractName": "Token",
  "abi": [
    {
      "constant": true,
      "inputs": [],
      "name": "execs_signed",
      "outputs": [
        {
          "name": "",
          "type": "uint256"
        }
      ],
      "payable": false,
      "stateMutability": "view",
      "type": "function",
      "signature": "0x00c4ba04"
    },
    {
      "constant": true,
      "inputs": [],
      "name": "name",
      "outputs": [
        {
          "name": "",
          "type": "string"
        }
      ],
      "payable": false,
      "stateMutability": "view",
      "type": "function",
      "signature": "0x06fdde03"
    },
    {
      "constant": true,
      "inputs": [],
      "name": "totalSupply",
      "outputs": [
        {
          "name": "",
          "type": "uint256"
        }
      ],
      "payable": false,
      "stateMutability": "view",
      "type": "function",
      "signature": "0x18160ddd"
    },
    {
      "constant": true,
      "inputs": [],
      "name": "decimals",
      "outputs": [
        {
          "name": "",
          "type": "uint8"
        }
      ],
      "payable": false,
      "stateMutability": "view",
      "type": "function",
      "signature": "0x313ce567"
    },
    {
      "constant": true,
      "inputs": [
        {
          "name": "",
          "type": "uint256"
        }
      ],
      "name": "signaturesAuthorized",
      "outputs": [
        {
          "name": "",
          "type": "address"
        }
      ],
      "payable": false,
      "stateMutability": "view",
      "type": "function",
      "signature": "0x37c2b8da"
    },
    {
      "constant": true,
      "inputs": [
        {
          "name": "",
          "type": "uint256"
        }
      ],
      "name": "pendingTransactions",
      "outputs": [
        {
          "name": "id",
          "type": "uint256"
        },
        {
          "name": "no_signed",
          "type": "uint256"
        },
        {
          "name": "executioner",
          "type": "address"
        },
        {
          "name": "purpose",
          "type": "string"
        },
        {
          "name": "amount",
          "type": "uint256"
        },
        {
          "name": "to",
          "type": "address"
        },
        {
          "name": "txHash",
          "type": "string"
        },
        {
          "name": "index",
          "type": "uint256"
        }
      ],
      "payable": false,
      "stateMutability": "view",
      "type": "function",
      "signature": "0x63a8374d"
    },
    {
      "constant": true,
      "inputs": [
        {
          "name": "",
          "type": "uint256"
        }
      ],
      "name": "signedTransactions",
      "outputs": [
        {
          "name": "id",
          "type": "uint256"
        },
        {
          "name": "no_signed",
          "type": "uint256"
        },
        {
          "name": "executioner",
          "type": "address"
        },
        {
          "name": "purpose",
          "type": "string"
        },
        {
          "name": "amount",
          "type": "uint256"
        },
        {
          "name": "to",
          "type": "address"
        },
        {
          "name": "txHash",
          "type": "string"
        },
        {
          "name": "index",
          "type": "uint256"
        }
      ],
      "payable": false,
      "stateMutability": "view",
      "type": "function",
      "signature": "0x63d30367"
    },
    {
      "constant": true,
      "inputs": [
        {
          "name": "",
          "type": "address"
        }
      ],
      "name": "balanceOf",
      "outputs": [
        {
          "name": "",
          "type": "uint256"
        }
      ],
      "payable": false,
      "stateMutability": "view",
      "type": "function",
      "signature": "0x70a08231"
    },
    {
      "constant": true,
      "inputs": [],
      "name": "contractBalance",
      "outputs": [
        {
          "name": "",
          "type": "uint256"
        }
      ],
      "payable": false,
      "stateMutability": "view",
      "type": "function",
      "signature": "0x8b7afe2e"
    },
    {
      "constant": true,
      "inputs": [],
      "name": "owner",
      "outputs": [
        {
          "name": "",
          "type": "address"
        }
      ],
      "payable": false,
      "stateMutability": "view",
      "type": "function",
      "signature": "0x8da5cb5b"
    },
    {
      "constant": true,
      "inputs": [],
      "name": "symbol",
      "outputs": [
        {
          "name": "",
          "type": "string"
        }
      ],
      "payable": false,
      "stateMutability": "view",
      "type": "function",
      "signature": "0x95d89b41"
    },
    {
      "constant": true,
      "inputs": [],
      "name": "no_signed",
      "outputs": [
        {
          "name": "",
          "type": "uint256"
        }
      ],
      "payable": false,
      "stateMutability": "view",
      "type": "function",
      "signature": "0xcaa0e43d"
    },
    {
      "constant": true,
      "inputs": [
        {
          "name": "",
          "type": "uint256"
        }
      ],
      "name": "allTransactions",
      "outputs": [
        {
          "name": "id",
          "type": "uint256"
        },
        {
          "name": "no_signed",
          "type": "uint256"
        },
        {
          "name": "executioner",
          "type": "address"
        },
        {
          "name": "purpose",
          "type": "string"
        },
        {
          "name": "amount",
          "type": "uint256"
        },
        {
          "name": "to",
          "type": "address"
        },
        {
          "name": "txHash",
          "type": "string"
        },
        {
          "name": "index",
          "type": "uint256"
        }
      ],
      "payable": false,
      "stateMutability": "view",
      "type": "function",
      "signature": "0xd7ff0714"
    },
    {
      "constant": true,
      "inputs": [
        {
          "name": "",
          "type": "address"
        }
      ],
      "name": "sign",
      "outputs": [
        {
          "name": "signer",
          "type": "bool"
        },
        {
          "name": "index",
          "type": "uint256"
        }
      ],
      "payable": false,
      "stateMutability": "view",
      "type": "function",
      "signature": "0xf71be837"
    },
    {
      "constant": true,
      "inputs": [],
      "name": "no_signaturies",
      "outputs": [
        {
          "name": "",
          "type": "uint256"
        }
      ],
      "payable": false,
      "stateMutability": "view",
      "type": "function",
      "signature": "0xfb40086d"
    },
    {
      "inputs": [
        {
          "name": "_initialSupply",
          "type": "uint256"
        },
        {
          "name": "treasurer",
          "type": "address"
        },
        {
          "name": "financeOfficer",
          "type": "address"
        },
        {
          "name": "president",
          "type": "address"
        }
      ],
      "payable": false,
      "stateMutability": "nonpayable",
      "type": "constructor",
      "signature": "constructor"
    },
    {
      "anonymous": false,
      "inputs": [
        {
          "indexed": true,
          "name": "_from",
          "type": "address"
        },
        {
          "indexed": true,
          "name": "_to",
          "type": "address"
        },
        {
          "indexed": false,
          "name": "_value",
          "type": "uint256"
        }
      ],
      "name": "Transfer",
      "type": "event",
      "signature": "0xddf252ad1be2c89b69c2b068fc378daa952ba7f163c4a11628f55a4df523b3ef"
    },
    {
      "anonymous": false,
      "inputs": [
        {
          "indexed": true,
          "name": "_owner",
          "type": "address"
        },
        {
          "indexed": true,
          "name": "_spender",
          "type": "address"
        },
        {
          "indexed": false,
          "name": "_value",
          "type": "uint256"
        }
      ],
      "name": "Approval",
      "type": "event",
      "signature": "0x8c5be1e5ebec7d5bd14f71427d1e84f3dd0314c0f7b2291e5b200ac8c7c3b925"
    },
    {
      "anonymous": false,
      "inputs": [
        {
          "indexed": false,
          "name": "treasurer",
          "type": "address"
        },
        {
          "indexed": false,
          "name": "financeOfficer",
          "type": "address"
        },
        {
          "indexed": false,
          "name": "president",
          "type": "address"
        }
      ],
      "name": "SignaturiesCreated",
      "type": "event",
      "signature": "0x90c5757fc4fa5d1822eb62f02567da41c848dcecb5cfe2e69ece7fd12f60f890"
    },
    {
      "anonymous": false,
      "inputs": [
        {
          "indexed": false,
          "name": "signaturies",
          "type": "address[]"
        }
      ],
      "name": "AddSignaturies",
      "type": "event",
      "signature": "0x28b9850d7271e5258efeee5c16852dd3183a05db1d791f16f171dbe44eecf1bf"
    },
    {
      "anonymous": false,
      "inputs": [
        {
          "indexed": false,
          "name": "_contractAddress",
          "type": "address"
        },
        {
          "indexed": false,
          "name": "id",
          "type": "uint256"
        },
        {
          "indexed": false,
          "name": "no_signed",
          "type": "uint256"
        },
        {
          "indexed": false,
          "name": "executioner",
          "type": "address"
        },
        {
          "indexed": false,
          "name": "sig",
          "type": "address[]"
        }
      ],
      "name": "ApproveTransaction",
      "type": "event",
      "signature": "0xd2718f2508947126da255bd275338cc82e08d7ceead21b6ebaa2ccd6d8830c63"
    },
    {
      "anonymous": false,
      "inputs": [
        {
          "indexed": false,
          "name": "_to",
          "type": "address"
        },
        {
          "indexed": false,
          "name": "_value",
          "type": "uint256"
        }
      ],
      "name": "TransferFrom",
      "type": "event",
      "signature": "0x58becdf9a931dd5ffd26ec2dde1ceab1683ffc0744ebd71f33267bc4406cc847"
    },
    {
      "anonymous": false,
      "inputs": [
        {
          "indexed": false,
          "name": "a",
          "type": "bool"
        }
      ],
      "name": "Data",
      "type": "event",
      "signature": "0xd4484901664f2f8511b28f987d546116a8e952222d68e609f78edc24d992b031"
    },
    {
      "anonymous": false,
      "inputs": [
        {
          "indexed": false,
          "name": "id",
          "type": "uint256"
        },
        {
          "indexed": false,
          "name": "no_signed",
          "type": "uint256"
        },
        {
          "indexed": false,
          "name": "signed",
          "type": "address"
        },
        {
          "indexed": false,
          "name": "executioner",
          "type": "address"
        }
      ],
      "name": "TransactionDet",
      "type": "event",
      "signature": "0x9fd4c058a57966e900e70822af82d2219c92a57a2b87fe913bd286659cff32a3"
    },
    {
      "anonymous": false,
      "inputs": [
        {
          "indexed": false,
          "name": "id",
          "type": "uint256"
        },
        {
          "indexed": false,
          "name": "no_signed",
          "type": "uint256"
        },
        {
          "indexed": false,
          "name": "signed",
          "type": "address[]"
        },
        {
          "indexed": false,
          "name": "executioner",
          "type": "address"
        },
        {
          "indexed": false,
          "name": "purpose",
          "type": "string"
        },
        {
          "indexed": false,
          "name": "amount",
          "type": "uint256"
        },
        {
          "indexed": false,
          "name": "to",
          "type": "address"
        },
        {
          "indexed": false,
          "name": "txHash",
          "type": "bytes"
        }
      ],
      "name": "PendingTransaction",
      "type": "event",
      "signature": "0x37d978715a7d425ceffbfa6de923ba8f2c8191ef956e4bcde26ad892a8c9ade5"
    },
    {
      "anonymous": false,
      "inputs": [
        {
          "indexed": false,
          "name": "t",
          "type": "uint256"
        }
      ],
      "name": "Ts",
      "type": "event",
      "signature": "0x9f13dff2a19a1998adb10caae98c6c2805e6fd43318bd120872ceda7582c57e9"
    },
    {
      "anonymous": false,
      "inputs": [
        {
          "indexed": false,
          "name": "a",
          "type": "uint256"
        }
      ],
      "name": "Ac",
      "type": "event",
      "signature": "0x08344ac47d76f512919e64a1153de5e6a3eee7e95b9559d4c2f324aed36260e4"
    },
    {
      "constant": false,
      "inputs": [
        {
          "name": "_to",
          "type": "address"
        },
        {
          "name": "_value",
          "type": "uint256"
        }
      ],
      "name": "transfer",
      "outputs": [
        {
          "name": "success",
          "type": "bool"
        }
      ],
      "payable": false,
      "stateMutability": "nonpayable",
      "type": "function",
      "signature": "0xa9059cbb"
    },
    {
      "constant": false,
      "inputs": [
        {
          "name": "_to",
          "type": "address"
        },
        {
          "name": "_value",
          "type": "uint256"
        }
      ],
      "name": "transferFromContract",
      "outputs": [
        {
          "name": "success",
          "type": "bool"
        }
      ],
      "payable": false,
      "stateMutability": "nonpayable",
      "type": "function",
      "signature": "0x1a88f306"
    },
    {
      "constant": false,
      "inputs": [
        {
          "name": "purpose",
          "type": "string"
        },
        {
          "name": "amount",
          "type": "uint256"
        },
        {
          "name": "to",
          "type": "address"
        }
      ],
      "name": "createTransaction",
      "outputs": [
        {
          "name": "success",
          "type": "bool"
        }
      ],
      "payable": false,
      "stateMutability": "nonpayable",
      "type": "function",
      "signature": "0x9172dbc8"
    },
    {
      "constant": false,
      "inputs": [
        {
          "name": "executioner",
          "type": "address"
        },
        {
          "name": "id",
          "type": "uint256"
        }
      ],
      "name": "signTransaction",
      "outputs": [
        {
          "name": "success",
          "type": "bool"
        }
      ],
      "payable": false,
      "stateMutability": "nonpayable",
      "type": "function",
      "signature": "0xd7d4d2b9"
    },
    {
      "constant": false,
      "inputs": [
        {
          "name": "_contractAddress",
          "type": "address"
        },
        {
          "name": "transId",
          "type": "uint256"
        },
        {
          "name": "executioner",
          "type": "address"
        }
      ],
      "name": "approve",
      "outputs": [
        {
          "name": "success",
          "type": "bool"
        }
      ],
      "payable": false,
      "stateMutability": "nonpayable",
      "type": "function",
      "signature": "0x1271f09a"
    },
    {
      "constant": false,
      "inputs": [
        {
          "name": "treasurer",
          "type": "address"
        },
        {
          "name": "financeOfficer",
          "type": "address"
        },
        {
          "name": "president",
          "type": "address"
        }
      ],
      "name": "assignSignaturies",
      "outputs": [
        {
          "name": "success",
          "type": "bool"
        }
      ],
      "payable": false,
      "stateMutability": "nonpayable",
      "type": "function",
      "signature": "0xfa6ea69a"
    },
    {
      "constant": false,
      "inputs": [
        {
          "name": "signers",
          "type": "address[]"
        }
      ],
      "name": "addSignatory",
      "outputs": [
        {
          "name": "success",
          "type": "bool"
        }
      ],
      "payable": false,
      "stateMutability": "nonpayable",
      "type": "function",
      "signature": "0x78cdde7d"
    },
    {
      "constant": false,
      "inputs": [
        {
          "name": "receipt",
          "type": "string"
        }
      ],
      "name": "saveReceipt",
      "outputs": [
        {
          "name": "successs",
          "type": "bool"
        }
      ],
      "payable": false,
      "stateMutability": "nonpayable",
      "type": "function",
      "signature": "0x9350b0e5"
    },
    {
      "constant": false,
      "inputs": [],
      "name": "viewSignedTransactions",
      "outputs": [
        {
          "name": "success",
          "type": "bool"
        }
      ],
      "payable": false,
      "stateMutability": "nonpayable",
      "type": "function",
      "signature": "0x4ea49588"
    },
    {
      "constant": false,
      "inputs": [],
      "name": "viewPendingTransactions",
      "outputs": [
        {
          "name": "success",
          "type": "bool"
        }
      ],
      "payable": false,
      "stateMutability": "nonpayable",
      "type": "function",
      "signature": "0xafe45c32"
    },
    {
      "constant": true,
      "inputs": [],
      "name": "pendingTransactionsLength",
      "outputs": [
        {
          "name": "length",
          "type": "uint256"
        }
      ],
      "payable": false,
      "stateMutability": "view",
      "type": "function",
      "signature": "0xdcbda81a"
    },
    {
      "constant": true,
      "inputs": [],
      "name": "signedTransactionsLength",
      "outputs": [
        {
          "name": "length",
          "type": "uint256"
        }
      ],
      "payable": false,
      "stateMutability": "view",
      "type": "function",
      "signature": "0xda14a408"
    }
  ],
  "bytecode": "0x60806040526040805190810160405280600881526020017f554d6154436f696e00000000000000000000000000000000000000000000000081525060009080519060200190620000519291906200073e565b506040805190810160405280600381526020017f554d430000000000000000000000000000000000000000000000000000000000815250600190805190602001906200009f9291906200073e565b506008600260006101000a81548160ff021916908360ff160217905550600060055560006007556000600955348015620000d857600080fd5b506040516080806200413d83398101806040526080811015620000fa57600080fd5b810190808051906020019092919080519060200190929190805190602001909291908051906020019092919050505033600660006101000a81548173ffffffffffffffffffffffffffffffffffffffff021916908373ffffffffffffffffffffffffffffffffffffffff1602179055508360038190555083600881905550620001948383836200019f640100000000026401000000009004565b505050505062000958565b60006001601860008673ffffffffffffffffffffffffffffffffffffffff1673ffffffffffffffffffffffffffffffffffffffff16815260200190815260200160002060000160006101000a81548160ff0219169083151502179055506001601860003373ffffffffffffffffffffffffffffffffffffffff1673ffffffffffffffffffffffffffffffffffffffff16815260200190815260200160002060010154016040519080825280602002602001820160405280156200027757816020015b6060815260200190600190039081620002615790505b50601860008673ffffffffffffffffffffffffffffffffffffffff1673ffffffffffffffffffffffffffffffffffffffff1681526020019081526020016000206003019080519060200190620002cf929190620007c5565b506001601860008573ffffffffffffffffffffffffffffffffffffffff1673ffffffffffffffffffffffffffffffffffffffff16815260200190815260200160002060000160006101000a81548160ff0219169083151502179055506001601860003373ffffffffffffffffffffffffffffffffffffffff1673ffffffffffffffffffffffffffffffffffffffff1681526020019081526020016000206001015401604051908082528060200260200182016040528015620003a657816020015b6060815260200190600190039081620003905790505b50601860008573ffffffffffffffffffffffffffffffffffffffff1673ffffffffffffffffffffffffffffffffffffffff1681526020019081526020016000206003019080519060200190620003fe929190620007c5565b506001601860008473ffffffffffffffffffffffffffffffffffffffff1673ffffffffffffffffffffffffffffffffffffffff16815260200190815260200160002060000160006101000a81548160ff0219169083151502179055506001601860003373ffffffffffffffffffffffffffffffffffffffff1673ffffffffffffffffffffffffffffffffffffffff1681526020019081526020016000206001015401604051908082528060200260200182016040528015620004d557816020015b6060815260200190600190039081620004bf5790505b50601860008473ffffffffffffffffffffffffffffffffffffffff1673ffffffffffffffffffffffffffffffffffffffff16815260200190815260200160002060030190805190602001906200052d929190620007c5565b50600a8490806001815401808255809150509060018203906000526020600020016000909192909190916101000a81548173ffffffffffffffffffffffffffffffffffffffff021916908373ffffffffffffffffffffffffffffffffffffffff16021790555050600a8390806001815401808255809150509060018203906000526020600020016000909192909190916101000a81548173ffffffffffffffffffffffffffffffffffffffff021916908373ffffffffffffffffffffffffffffffffffffffff16021790555050600a8290806001815401808255809150509060018203906000526020600020016000909192909190916101000a81548173ffffffffffffffffffffffffffffffffffffffff021916908373ffffffffffffffffffffffffffffffffffffffff1602179055505060036004819055507f90c5757fc4fa5d1822eb62f02567da41c848dcecb5cfe2e69ece7fd12f60f890848484604051808473ffffffffffffffffffffffffffffffffffffffff1673ffffffffffffffffffffffffffffffffffffffff1681526020018373ffffffffffffffffffffffffffffffffffffffff1673ffffffffffffffffffffffffffffffffffffffff1681526020018273ffffffffffffffffffffffffffffffffffffffff1673ffffffffffffffffffffffffffffffffffffffff168152602001935050505060405180910390a1600190509392505050565b828054600181600116156101000203166002900490600052602060002090601f016020900481019282601f106200078157805160ff1916838001178555620007b2565b82800160010185558215620007b2579182015b82811115620007b157825182559160200191906001019062000794565b5b509050620007c191906200082c565b5090565b82805482825590600052602060002090810192821562000819579160200282015b82811115620008185782518290805190602001906200080792919062000854565b5091602001919060010190620007e6565b5b509050620008289190620008db565b5090565b6200085191905b808211156200084d57600081600090555060010162000833565b5090565b90565b828054600181600116156101000203166002900490600052602060002090601f016020900481019282601f106200089757805160ff1916838001178555620008c8565b82800160010185558215620008c8579182015b82811115620008c7578251825591602001919060010190620008aa565b5b509050620008d791906200082c565b5090565b6200090991905b80821115620009055760008181620008fb91906200090c565b50600101620008e2565b5090565b90565b50805460018160011615610100020316600290046000825580601f1062000934575062000955565b601f0160209004906000526020600020908101906200095491906200082c565b5b50565b6137d580620009686000396000f3fe60806040526004361061015e576000357c0100000000000000000000000000000000000000000000000000000000900463ffffffff168062c4ba041461016357806306fdde031461018e5780631271f09a1461021e57806318160ddd146102b15780631a88f306146102dc578063313ce5671461034f57806337c2b8da146103805780634ea49588146103fb57806363a8374d1461042a57806363d30367146105cc57806370a082311461076e57806378cdde7d146107d35780638b7afe2e146108b05780638da5cb5b146108db5780639172dbc8146109325780639350b0e514610a3c57806395d89b4114610b1c578063a9059cbb14610bac578063afe45c3214610c1f578063caa0e43d14610c4e578063d7d4d2b914610c79578063d7ff071414610cec578063da14a40814610e8e578063dcbda81a14610eb9578063f71be83714610ee4578063fa6ea69a14610f54578063fb40086d14610ffd575b600080fd5b34801561016f57600080fd5b50610178611028565b6040518082815260200191505060405180910390f35b34801561019a57600080fd5b506101a361102e565b6040518080602001828103825283818151815260200191508051906020019080838360005b838110156101e35780820151818401526020810190506101c8565b50505050905090810190601f1680156102105780820380516001836020036101000a031916815260200191505b509250505060405180910390f35b34801561022a57600080fd5b506102976004803603606081101561024157600080fd5b81019080803573ffffffffffffffffffffffffffffffffffffffff16906020019092919080359060200190929190803573ffffffffffffffffffffffffffffffffffffffff1690602001909291905050506110cc565b604051808215151515815260200191505060405180910390f35b3480156102bd57600080fd5b506102c661141a565b6040518082815260200191505060405180910390f35b3480156102e857600080fd5b50610335600480360360408110156102ff57600080fd5b81019080803573ffffffffffffffffffffffffffffffffffffffff16906020019092919080359060200190929190505050611420565b604051808215151515815260200191505060405180910390f35b34801561035b57600080fd5b5061036461149a565b604051808260ff1660ff16815260200191505060405180910390f35b34801561038c57600080fd5b506103b9600480360360208110156103a357600080fd5b81019080803590602001909291905050506114ad565b604051808273ffffffffffffffffffffffffffffffffffffffff1673ffffffffffffffffffffffffffffffffffffffff16815260200191505060405180910390f35b34801561040757600080fd5b506104106114eb565b604051808215151515815260200191505060405180910390f35b34801561043657600080fd5b506104636004803603602081101561044d57600080fd5b81019080803590602001909291905050506114f4565b604051808981526020018881526020018773ffffffffffffffffffffffffffffffffffffffff1673ffffffffffffffffffffffffffffffffffffffff168152602001806020018681526020018573ffffffffffffffffffffffffffffffffffffffff1673ffffffffffffffffffffffffffffffffffffffff16815260200180602001848152602001838103835288818151815260200191508051906020019080838360005b83811015610523578082015181840152602081019050610508565b50505050905090810190601f1680156105505780820380516001836020036101000a031916815260200191505b50838103825285818151815260200191508051906020019080838360005b8381101561058957808201518184015260208101905061056e565b50505050905090810190601f1680156105b65780820380516001836020036101000a031916815260200191505b509a505050505050505050505060405180910390f35b3480156105d857600080fd5b50610605600480360360208110156105ef57600080fd5b81019080803590602001909291905050506116bb565b604051808981526020018881526020018773ffffffffffffffffffffffffffffffffffffffff1673ffffffffffffffffffffffffffffffffffffffff168152602001806020018681526020018573ffffffffffffffffffffffffffffffffffffffff1673ffffffffffffffffffffffffffffffffffffffff16815260200180602001848152602001838103835288818151815260200191508051906020019080838360005b838110156106c55780820151818401526020810190506106aa565b50505050905090810190601f1680156106f25780820380516001836020036101000a031916815260200191505b50838103825285818151815260200191508051906020019080838360005b8381101561072b578082015181840152602081019050610710565b50505050905090810190601f1680156107585780820380516001836020036101000a031916815260200191505b509a505050505050505050505060405180910390f35b34801561077a57600080fd5b506107bd6004803603602081101561079157600080fd5b81019080803573ffffffffffffffffffffffffffffffffffffffff169060200190929190505050611882565b6040518082815260200191505060405180910390f35b3480156107df57600080fd5b50610896600480360360208110156107f657600080fd5b810190808035906020019064010000000081111561081357600080fd5b82018360208201111561082557600080fd5b8035906020019184602083028401116401000000008311171561084757600080fd5b919080806020026020016040519081016040528093929190818152602001838360200280828437600081840152601f19601f82011690508083019250505050505050919291929050505061189a565b604051808215151515815260200191505060405180910390f35b3480156108bc57600080fd5b506108c5611b0a565b6040518082815260200191505060405180910390f35b3480156108e757600080fd5b506108f0611b10565b604051808273ffffffffffffffffffffffffffffffffffffffff1673ffffffffffffffffffffffffffffffffffffffff16815260200191505060405180910390f35b34801561093e57600080fd5b50610a226004803603606081101561095557600080fd5b810190808035906020019064010000000081111561097257600080fd5b82018360208201111561098457600080fd5b803590602001918460018302840111640100000000831117156109a657600080fd5b91908080601f016020809104026020016040519081016040528093929190818152602001838380828437600081840152601f19601f82011690508083019250505050505050919291929080359060200190929190803573ffffffffffffffffffffffffffffffffffffffff169060200190929190505050611b36565b604051808215151515815260200191505060405180910390f35b348015610a4857600080fd5b50610b0260048036036020811015610a5f57600080fd5b8101908080359060200190640100000000811115610a7c57600080fd5b820183602082011115610a8e57600080fd5b80359060200191846001830284011164010000000083111715610ab057600080fd5b91908080601f016020809104026020016040519081016040528093929190818152602001838380828437600081840152601f19601f8201169050808301925050505050505091929192905050506120de565b604051808215151515815260200191505060405180910390f35b348015610b2857600080fd5b50610b316123cb565b6040518080602001828103825283818151815260200191508051906020019080838360005b83811015610b71578082015181840152602081019050610b56565b50505050905090810190601f168015610b9e5780820380516001836020036101000a031916815260200191505b509250505060405180910390f35b348015610bb857600080fd5b50610c0560048036036040811015610bcf57600080fd5b81019080803573ffffffffffffffffffffffffffffffffffffffff16906020019092919080359060200190929190505050612469565b604051808215151515815260200191505060405180910390f35b348015610c2b57600080fd5b50610c346125c2565b604051808215151515815260200191505060405180910390f35b348015610c5a57600080fd5b50610c636125cb565b6040518082815260200191505060405180910390f35b348015610c8557600080fd5b50610cd260048036036040811015610c9c57600080fd5b81019080803573ffffffffffffffffffffffffffffffffffffffff169060200190929190803590602001909291905050506125d1565b604051808215151515815260200191505060405180910390f35b348015610cf857600080fd5b50610d2560048036036020811015610d0f57600080fd5b8101908080359060200190929190505050612cc8565b604051808981526020018881526020018773ffffffffffffffffffffffffffffffffffffffff1673ffffffffffffffffffffffffffffffffffffffff168152602001806020018681526020018573ffffffffffffffffffffffffffffffffffffffff1673ffffffffffffffffffffffffffffffffffffffff16815260200180602001848152602001838103835288818151815260200191508051906020019080838360005b83811015610de5578082015181840152602081019050610dca565b50505050905090810190601f168015610e125780820380516001836020036101000a031916815260200191505b50838103825285818151815260200191508051906020019080838360005b83811015610e4b578082015181840152602081019050610e30565b50505050905090810190601f168015610e785780820380516001836020036101000a031916815260200191505b509a505050505050505050505060405180910390f35b348015610e9a57600080fd5b50610ea3612e8f565b6040518082815260200191505060405180910390f35b348015610ec557600080fd5b50610ece612e9c565b6040518082815260200191505060405180910390f35b348015610ef057600080fd5b50610f3360048036036020811015610f0757600080fd5b81019080803573ffffffffffffffffffffffffffffffffffffffff169060200190929190505050612ea9565b60405180831515151581526020018281526020019250505060405180910390f35b348015610f6057600080fd5b50610fe360048036036060811015610f7757600080fd5b81019080803573ffffffffffffffffffffffffffffffffffffffff169060200190929190803573ffffffffffffffffffffffffffffffffffffffff169060200190929190803573ffffffffffffffffffffffffffffffffffffffff169060200190929190505050612eda565b604051808215151515815260200191505060405180910390f35b34801561100957600080fd5b5061101261346d565b6040518082815260200191505060405180910390f35b60075481565b60008054600181600116156101000203166002900480601f0160208091040260200160405190810160405280929190818152602001828054600181600116156101000203166002900480156110c45780601f10611099576101008083540402835291602001916110c4565b820191906000526020600020905b8154815290600101906020018083116110a757829003601f168201915b505050505081565b600060011515601860003373ffffffffffffffffffffffffffffffffffffffff1673ffffffffffffffffffffffffffffffffffffffff16815260200190815260200160002060000160009054906101000a900460ff16151514151561113057600080fd5b600454601860008473ffffffffffffffffffffffffffffffffffffffff1673ffffffffffffffffffffffffffffffffffffffff1681526020019081526020016000206002018481548110151561118257fe5b9060005260206000209060090201600101541415156111a057600080fd5b61128a601860008473ffffffffffffffffffffffffffffffffffffffff1673ffffffffffffffffffffffffffffffffffffffff168152602001908152602001600020600201848154811015156111f257fe5b906000526020600020906009020160060160009054906101000a900473ffffffffffffffffffffffffffffffffffffffff16601860008573ffffffffffffffffffffffffffffffffffffffff1673ffffffffffffffffffffffffffffffffffffffff1681526020019081526020016000206002018581548110151561127357fe5b906000526020600020906009020160050154611420565b507fd2718f2508947126da255bd275338cc82e08d7ceead21b6ebaa2ccd6d8830c638484601860008673ffffffffffffffffffffffffffffffffffffffff1673ffffffffffffffffffffffffffffffffffffffff168152602001908152602001600020600201868154811015156112fd57fe5b90600052602060002090600902016001015485600a604051808673ffffffffffffffffffffffffffffffffffffffff1673ffffffffffffffffffffffffffffffffffffffff1681526020018581526020018481526020018373ffffffffffffffffffffffffffffffffffffffff1673ffffffffffffffffffffffffffffffffffffffff1681526020018060200182810382528381815481526020019150805480156113fd57602002820191906000526020600020905b8160009054906101000a900473ffffffffffffffffffffffffffffffffffffffff1673ffffffffffffffffffffffffffffffffffffffff16815260200190600101908083116113b3575b5050965050505050505060405180910390a1600090509392505050565b60035481565b6000816008541015151561143357600080fd5b8160086000828254039250508190555081601760008573ffffffffffffffffffffffffffffffffffffffff1673ffffffffffffffffffffffffffffffffffffffff168152602001908152602001600020600082825401925050819055506001905092915050565b600260009054906101000a900460ff1681565b600a818154811015156114bc57fe5b906000526020600020016000915054906101000a900473ffffffffffffffffffffffffffffffffffffffff1681565b60006001905090565b600c8181548110151561150357fe5b90600052602060002090600902016000915090508060000154908060010154908060030160009054906101000a900473ffffffffffffffffffffffffffffffffffffffff1690806004018054600181600116156101000203166002900480601f0160208091040260200160405190810160405280929190818152602001828054600181600116156101000203166002900480156115e15780601f106115b6576101008083540402835291602001916115e1565b820191906000526020600020905b8154815290600101906020018083116115c457829003601f168201915b5050505050908060050154908060060160009054906101000a900473ffffffffffffffffffffffffffffffffffffffff1690806007018054600181600116156101000203166002900480601f0160208091040260200160405190810160405280929190818152602001828054600181600116156101000203166002900480156116ab5780601f10611680576101008083540402835291602001916116ab565b820191906000526020600020905b81548152906001019060200180831161168e57829003601f168201915b5050505050908060080154905088565b600b818154811015156116ca57fe5b90600052602060002090600902016000915090508060000154908060010154908060030160009054906101000a900473ffffffffffffffffffffffffffffffffffffffff1690806004018054600181600116156101000203166002900480601f0160208091040260200160405190810160405280929190818152602001828054600181600116156101000203166002900480156117a85780601f1061177d576101008083540402835291602001916117a8565b820191906000526020600020905b81548152906001019060200180831161178b57829003601f168201915b5050505050908060050154908060060160009054906101000a900473ffffffffffffffffffffffffffffffffffffffff1690806007018054600181600116156101000203166002900480601f0160208091040260200160405190810160405280929190818152602001828054600181600116156101000203166002900480156118725780601f1061184757610100808354040283529160200191611872565b820191906000526020600020905b81548152906001019060200180831161185557829003601f168201915b5050505050908060080154905088565b60176020528060005260406000206000915090505481565b6000808251905060008090505b81811015611a77576018600085838151811015156118c157fe5b9060200190602002015173ffffffffffffffffffffffffffffffffffffffff1673ffffffffffffffffffffffffffffffffffffffff168152602001908152602001600020506001601860003373ffffffffffffffffffffffffffffffffffffffff1673ffffffffffffffffffffffffffffffffffffffff168152602001908152602001600020600101540160405190808252806020026020018201604052801561197f57816020015b606081526020019060019003908161196a5790505b5060186000868481518110151561199257fe5b9060200190602002015173ffffffffffffffffffffffffffffffffffffffff1673ffffffffffffffffffffffffffffffffffffffff16815260200190815260200160002060030190805190602001906119ec929190613473565b50600a84828151811015156119fd57fe5b9060200190602002015190806001815401808255809150509060018203906000526020600020016000909192909190916101000a81548173ffffffffffffffffffffffffffffffffffffffff021916908373ffffffffffffffffffffffffffffffffffffffff1602179055505080806001019150506118a7565b50806004600082825401925050819055507f28b9850d7271e5258efeee5c16852dd3183a05db1d791f16f171dbe44eecf1bf836040518080602001828103825283818151815260200191508051906020019060200280838360005b83811015611aed578082015181840152602081019050611ad2565b505050509050019250505060405180910390a16001915050919050565b60085481565b600660009054906101000a900473ffffffffffffffffffffffffffffffffffffffff1681565b600060011515601860003373ffffffffffffffffffffffffffffffffffffffff1673ffffffffffffffffffffffffffffffffffffffff16815260200190815260200160002060000160009054906101000a900460ff161515141515611b9a57600080fd5b6001601860003373ffffffffffffffffffffffffffffffffffffffff1673ffffffffffffffffffffffffffffffffffffffff1681526020019081526020016000206001015401600e600001819055506001600e60010181905550600e6002013390806001815401808255809150509060018203906000526020600020016000909192909190916101000a81548173ffffffffffffffffffffffffffffffffffffffff021916908373ffffffffffffffffffffffffffffffffffffffff1602179055505033600e60030160006101000a81548173ffffffffffffffffffffffffffffffffffffffff021916908373ffffffffffffffffffffffffffffffffffffffff16021790555083600e6004019080519060200190611cba9291906134d3565b5082600e6005018190555081600e60060160006101000a81548173ffffffffffffffffffffffffffffffffffffffff021916908373ffffffffffffffffffffffffffffffffffffffff160217905550600954600e60080181905550601860003373ffffffffffffffffffffffffffffffffffffffff1673ffffffffffffffffffffffffffffffffffffffff168152602001908152602001600020600201600e9080600181540180825580915050906001820390600052602060002090600902016000909192909190915060008201548160000155600182015481600101556002820181600201908054611dae929190613553565b506003820160009054906101000a900473ffffffffffffffffffffffffffffffffffffffff168160030160006101000a81548173ffffffffffffffffffffffffffffffffffffffff021916908373ffffffffffffffffffffffffffffffffffffffff16021790555060048201816004019080546001816001161561010002031660029004611e3d9291906135a5565b50600582015481600501556006820160009054906101000a900473ffffffffffffffffffffffffffffffffffffffff168160060160006101000a81548173ffffffffffffffffffffffffffffffffffffffff021916908373ffffffffffffffffffffffffffffffffffffffff16021790555060078201816007019080546001816001161561010002031660029004611ed69291906135a5565b5060088201548160080155505050601860003373ffffffffffffffffffffffffffffffffffffffff1673ffffffffffffffffffffffffffffffffffffffff168152602001908152602001600020600101600081546001019190508190555060096000815460010191905081905550600c600e9080600181540180825580915050906001820390600052602060002090600902016000909192909190915060008201548160000155600182015481600101556002820181600201908054611f9d929190613553565b506003820160009054906101000a900473ffffffffffffffffffffffffffffffffffffffff168160030160006101000a81548173ffffffffffffffffffffffffffffffffffffffff021916908373ffffffffffffffffffffffffffffffffffffffff1602179055506004820181600401908054600181600116156101000203166002900461202c9291906135a5565b50600582015481600501556006820160009054906101000a900473ffffffffffffffffffffffffffffffffffffffff168160060160006101000a81548173ffffffffffffffffffffffffffffffffffffffff021916908373ffffffffffffffffffffffffffffffffffffffff160217905550600782018160070190805460018160011615610100020316600290046120c59291906135a5565b5060088201548160080155505050600190509392505050565b6000601860003373ffffffffffffffffffffffffffffffffffffffff1673ffffffffffffffffffffffffffffffffffffffff16815260200190815260200160002060030182908060018154018082558091505090600182039060005260206000200160009091929091909150908051906020019061215d9291906134d3565b505081601860003373ffffffffffffffffffffffffffffffffffffffff1673ffffffffffffffffffffffffffffffffffffffff1681526020019081526020016000206002016001601860003373ffffffffffffffffffffffffffffffffffffffff1673ffffffffffffffffffffffffffffffffffffffff16815260200190815260200160002060010154038154811015156121f457fe5b906000526020600020906009020160070190805190602001906122189291906134d3565b5081600e60070190805190602001906122329291906134d3565b50600c600e908060018154018082558091505090600182039060005260206000209060090201600090919290919091506000820154816000015560018201548160010155600282018160020190805461228c929190613553565b506003820160009054906101000a900473ffffffffffffffffffffffffffffffffffffffff168160030160006101000a81548173ffffffffffffffffffffffffffffffffffffffff021916908373ffffffffffffffffffffffffffffffffffffffff1602179055506004820181600401908054600181600116156101000203166002900461231b9291906135a5565b50600582015481600501556006820160009054906101000a900473ffffffffffffffffffffffffffffffffffffffff168160060160006101000a81548173ffffffffffffffffffffffffffffffffffffffff021916908373ffffffffffffffffffffffffffffffffffffffff160217905550600782018160070190805460018160011615610100020316600290046123b49291906135a5565b506008820154816008015550505060019050919050565b60018054600181600116156101000203166002900480601f0160208091040260200160405190810160405280929190818152602001828054600181600116156101000203166002900480156124615780601f1061243657610100808354040283529160200191612461565b820191906000526020600020905b81548152906001019060200180831161244457829003601f168201915b505050505081565b600081601760003373ffffffffffffffffffffffffffffffffffffffff1673ffffffffffffffffffffffffffffffffffffffff16815260200190815260200160002054101515156124b957600080fd5b81601760003373ffffffffffffffffffffffffffffffffffffffff1673ffffffffffffffffffffffffffffffffffffffff1681526020019081526020016000206000828254039250508190555081601760008573ffffffffffffffffffffffffffffffffffffffff1673ffffffffffffffffffffffffffffffffffffffff168152602001908152602001600020600082825401925050819055508273ffffffffffffffffffffffffffffffffffffffff163373ffffffffffffffffffffffffffffffffffffffff167fddf252ad1be2c89b69c2b068fc378daa952ba7f163c4a11628f55a4df523b3ef846040518082815260200191505060405180910390a36001905092915050565b60006001905090565b60055481565b600060011515601860003373ffffffffffffffffffffffffffffffffffffffff1673ffffffffffffffffffffffffffffffffffffffff16815260200190815260200160002060000160009054906101000a900460ff16151514151561263557600080fd5b60008090505b601860008573ffffffffffffffffffffffffffffffffffffffff1673ffffffffffffffffffffffffffffffffffffffff1681526020019081526020016000206002018381548110151561268a57fe5b906000526020600020906009020160010154811015612782573373ffffffffffffffffffffffffffffffffffffffff16601860008673ffffffffffffffffffffffffffffffffffffffff1673ffffffffffffffffffffffffffffffffffffffff1681526020019081526020016000206002018481548110151561270957fe5b90600052602060002090600902016002018281548110151561272757fe5b9060005260206000200160009054906101000a900473ffffffffffffffffffffffffffffffffffffffff1673ffffffffffffffffffffffffffffffffffffffff161415151561277557600080fd5b808060010191505061263b565b50601860008473ffffffffffffffffffffffffffffffffffffffff1673ffffffffffffffffffffffffffffffffffffffff168152602001908152602001600020600201828154811015156127d257fe5b90600052602060002090600902016001016000815460010191905081905550601860008473ffffffffffffffffffffffffffffffffffffffff1673ffffffffffffffffffffffffffffffffffffffff1681526020019081526020016000206002018281548110151561284057fe5b90600052602060002090600902016002013390806001815401808255809150509060018203906000526020600020016000909192909190916101000a81548173ffffffffffffffffffffffffffffffffffffffff021916908373ffffffffffffffffffffffffffffffffffffffff160217905550506003601860008573ffffffffffffffffffffffffffffffffffffffff1673ffffffffffffffffffffffffffffffffffffffff1681526020019081526020016000206002018381548110151561290657fe5b9060005260206000209060090201600101541415612cbe577f9f13dff2a19a1998adb10caae98c6c2805e6fd43318bd120872ceda7582c57e9601860008573ffffffffffffffffffffffffffffffffffffffff1673ffffffffffffffffffffffffffffffffffffffff1681526020019081526020016000206002018381548110151561298e57fe5b9060005260206000209060090201600101546040518082815260200191505060405180910390a1600b601860008573ffffffffffffffffffffffffffffffffffffffff1673ffffffffffffffffffffffffffffffffffffffff16815260200190815260200160002060020183815481101515612a0657fe5b90600052602060002090600902019080600181540180825580915050906001820390600052602060002090600902016000909192909190915060008201548160000155600182015481600101556002820181600201908054612a69929190613553565b506003820160009054906101000a900473ffffffffffffffffffffffffffffffffffffffff168160030160006101000a81548173ffffffffffffffffffffffffffffffffffffffff021916908373ffffffffffffffffffffffffffffffffffffffff16021790555060048201816004019080546001816001161561010002031660029004612af89291906135a5565b50600582015481600501556006820160009054906101000a900473ffffffffffffffffffffffffffffffffffffffff168160060160006101000a81548173ffffffffffffffffffffffffffffffffffffffff021916908373ffffffffffffffffffffffffffffffffffffffff16021790555060078201816007019080546001816001161561010002031660029004612b919291906135a5565b5060088201548160080155505050600c601860008573ffffffffffffffffffffffffffffffffffffffff1673ffffffffffffffffffffffffffffffffffffffff16815260200190815260200160002060020183815481101515612bf057fe5b906000526020600020906009020160080154815481101515612c0e57fe5b90600052602060002090600902016000808201600090556001820160009055600282016000612c3d919061362c565b6003820160006101000a81549073ffffffffffffffffffffffffffffffffffffffff0219169055600482016000612c74919061364d565b60058201600090556006820160006101000a81549073ffffffffffffffffffffffffffffffffffffffff0219169055600782016000612cb3919061364d565b600882016000905550505b6001905092915050565b600d81815481101515612cd757fe5b90600052602060002090600902016000915090508060000154908060010154908060030160009054906101000a900473ffffffffffffffffffffffffffffffffffffffff1690806004018054600181600116156101000203166002900480601f016020809104026020016040519081016040528092919081815260200182805460018160011615610100020316600290048015612db55780601f10612d8a57610100808354040283529160200191612db5565b820191906000526020600020905b815481529060010190602001808311612d9857829003601f168201915b5050505050908060050154908060060160009054906101000a900473ffffffffffffffffffffffffffffffffffffffff1690806007018054600181600116156101000203166002900480601f016020809104026020016040519081016040528092919081815260200182805460018160011615610100020316600290048015612e7f5780601f10612e5457610100808354040283529160200191612e7f565b820191906000526020600020905b815481529060010190602001808311612e6257829003601f168201915b5050505050908060080154905088565b6000600b80549050905090565b6000600c80549050905090565b60186020528060005260406000206000915090508060000160009054906101000a900460ff16908060010154905082565b60006001601860008673ffffffffffffffffffffffffffffffffffffffff1673ffffffffffffffffffffffffffffffffffffffff16815260200190815260200160002060000160006101000a81548160ff0219169083151502179055506001601860003373ffffffffffffffffffffffffffffffffffffffff1673ffffffffffffffffffffffffffffffffffffffff1681526020019081526020016000206001015401604051908082528060200260200182016040528015612fb057816020015b6060815260200190600190039081612f9b5790505b50601860008673ffffffffffffffffffffffffffffffffffffffff1673ffffffffffffffffffffffffffffffffffffffff1681526020019081526020016000206003019080519060200190613006929190613473565b506001601860008573ffffffffffffffffffffffffffffffffffffffff1673ffffffffffffffffffffffffffffffffffffffff16815260200190815260200160002060000160006101000a81548160ff0219169083151502179055506001601860003373ffffffffffffffffffffffffffffffffffffffff1673ffffffffffffffffffffffffffffffffffffffff16815260200190815260200160002060010154016040519080825280602002602001820160405280156130db57816020015b60608152602001906001900390816130c65790505b50601860008573ffffffffffffffffffffffffffffffffffffffff1673ffffffffffffffffffffffffffffffffffffffff1681526020019081526020016000206003019080519060200190613131929190613473565b506001601860008473ffffffffffffffffffffffffffffffffffffffff1673ffffffffffffffffffffffffffffffffffffffff16815260200190815260200160002060000160006101000a81548160ff0219169083151502179055506001601860003373ffffffffffffffffffffffffffffffffffffffff1673ffffffffffffffffffffffffffffffffffffffff168152602001908152602001600020600101540160405190808252806020026020018201604052801561320657816020015b60608152602001906001900390816131f15790505b50601860008473ffffffffffffffffffffffffffffffffffffffff1673ffffffffffffffffffffffffffffffffffffffff168152602001908152602001600020600301908051906020019061325c929190613473565b50600a8490806001815401808255809150509060018203906000526020600020016000909192909190916101000a81548173ffffffffffffffffffffffffffffffffffffffff021916908373ffffffffffffffffffffffffffffffffffffffff16021790555050600a8390806001815401808255809150509060018203906000526020600020016000909192909190916101000a81548173ffffffffffffffffffffffffffffffffffffffff021916908373ffffffffffffffffffffffffffffffffffffffff16021790555050600a8290806001815401808255809150509060018203906000526020600020016000909192909190916101000a81548173ffffffffffffffffffffffffffffffffffffffff021916908373ffffffffffffffffffffffffffffffffffffffff1602179055505060036004819055507f90c5757fc4fa5d1822eb62f02567da41c848dcecb5cfe2e69ece7fd12f60f890848484604051808473ffffffffffffffffffffffffffffffffffffffff1673ffffffffffffffffffffffffffffffffffffffff1681526020018373ffffffffffffffffffffffffffffffffffffffff1673ffffffffffffffffffffffffffffffffffffffff1681526020018273ffffffffffffffffffffffffffffffffffffffff1673ffffffffffffffffffffffffffffffffffffffff168152602001935050505060405180910390a1600190509392505050565b60045481565b8280548282559060005260206000209081019282156134c2579160200282015b828111156134c15782518290805190602001906134b1929190613695565b5091602001919060010190613493565b5b5090506134cf9190613715565b5090565b828054600181600116156101000203166002900490600052602060002090601f016020900481019282601f1061351457805160ff1916838001178555613542565b82800160010185558215613542579182015b82811115613541578251825591602001919060010190613526565b5b50905061354f9190613741565b5090565b8280548282559060005260206000209081019282156135945760005260206000209182015b82811115613593578254825591600101919060010190613578565b5b5090506135a19190613766565b5090565b828054600181600116156101000203166002900490600052602060002090601f016020900481019282601f106135de578054855561361b565b8280016001018555821561361b57600052602060002091601f016020900482015b8281111561361a5782548255916001019190600101906135ff565b5b5090506136289190613741565b5090565b508054600082559060005260206000209081019061364a9190613741565b50565b50805460018160011615610100020316600290046000825580601f106136735750613692565b601f0160209004906000526020600020908101906136919190613741565b5b50565b828054600181600116156101000203166002900490600052602060002090601f016020900481019282601f106136d657805160ff1916838001178555613704565b82800160010185558215613704579182015b828111156137035782518255916020019190600101906136e8565b5b5090506137119190613741565b5090565b61373e91905b8082111561373a5760008181613731919061364d565b5060010161371b565b5090565b90565b61376391905b8082111561375f576000816000905550600101613747565b5090565b90565b6137a691905b808211156137a257600081816101000a81549073ffffffffffffffffffffffffffffffffffffffff02191690555060010161376c565b5090565b9056fea165627a7a723058200956274d34dd70a233cc14c9800f0ee086a034a662c2cc8d93ea139ab5fdbb5b0029",
  "source": "\r\npragma solidity >=0.4.7 <0.6.0;\r\n// pragma experimental ABIEncoderV2;\r\n\r\ncontract Token{\r\n\r\n    struct signaturies{\r\n        bool signer;\r\n        uint index;\r\n        transactions [] transaction;\r\n        string [] receipts;\r\n    }\r\n\r\n    struct transactions{\r\n        uint256 id;\r\n        uint no_signed;\r\n        address [] signed;\r\n        address executioner;\r\n        string purpose;\r\n        uint256 amount;\r\n        address to;\r\n        string txHash;\r\n        uint index;\r\n    }\r\n\r\n\r\n    string public name = \"UMaTCoin\";\r\n    string public symbol = \"UMC\";\r\n    uint8 public decimals = 8;\r\n    uint public totalSupply;\r\n    uint public no_signaturies;\r\n    uint public no_signed=0;\r\n    address public owner;\r\n    uint public execs_signed = 0;\r\n    uint256 public contractBalance;\r\n    uint index = 0;\r\n    address [] public signaturesAuthorized;\r\n    transactions [] public signedTransactions;\r\n    transactions [] public pendingTransactions;\r\n    transactions [] public allTransactions;\r\n\r\n    transactions trans;\r\n\r\n    //events\r\n    event Transfer(address indexed _from, address indexed _to, uint256 _value);\r\n    event Approval(address indexed _owner, address indexed _spender, uint256 _value);\r\n    event SignaturiesCreated(address treasurer,address financeOfficer, address president);\r\n    event AddSignaturies(address[] signaturies);\r\n    event ApproveTransaction(address _contractAddress, uint id, uint no_signed, address executioner, address [] sig);\r\n    event TransferFrom(address _to, uint256 _value);\r\n    event Data(bool a);\r\n    event TransactionDet(uint id, uint no_signed, address signed, address executioner);\r\n    // event ReceiptDetails(bytes [] receipts);\r\n    // event SignedTransactions(transactions [] signedTrans);\r\n    event PendingTransaction(\r\n        uint256 id,\r\n        uint no_signed,\r\n        address [] signed,\r\n        address executioner,\r\n        string purpose,\r\n        uint256 amount,\r\n        address to,\r\n        bytes txHash\r\n    );\r\n    \r\n    mapping(address => uint256) public balanceOf;\r\n    mapping(address => signaturies) public sign;\r\n\r\n    constructor(uint256 _initialSupply, address treasurer, address financeOfficer, address president) public {\r\n        owner = msg.sender;\r\n        // balanceOf[owner] = _initialSupply;\r\n        totalSupply = _initialSupply;\r\n        contractBalance = _initialSupply;\r\n        assignSignaturies(treasurer,financeOfficer,president);\r\n    }\r\n    \r\n\r\n    // modifier for only signaturies\r\n    modifier signersOnly{\r\n        require(sign[msg.sender].signer==true);\r\n        _;    \r\n    }\r\n\r\n\r\n    modifier signedOnly(uint transId){\r\n        require(sign[msg.sender].transaction[transId].no_signed == no_signaturies);\r\n        _;    \r\n    }\r\n\r\n    \r\n\r\n    // transfer from current address to another address {Not really required since transaction is from contract address to 'to' address}\r\n    function transfer(address _to, uint256 _value) public returns (bool success){\r\n        //check for enough funds b4 transfer\r\n        require(balanceOf[msg.sender]>=_value);\r\n        //Subtract from current balance\r\n        balanceOf[msg.sender]-=_value;\r\n        //Transfer amount\r\n        balanceOf[_to] += _value;\r\n        emit Transfer(msg.sender,_to,_value);\r\n        return true;\r\n    }\r\n\r\n    // transfer from contract address to specified address\r\n    function transferFromContract(address _to, uint256 _value) public returns (bool success){\r\n\r\n        require(contractBalance >= _value);\r\n        contractBalance -= _value;\r\n        balanceOf[_to] += _value;\r\n        // emit TransferFrom(_to,_value);\r\n        return true; \r\n    }\r\n    \r\n    function createTransaction(string memory purpose, uint256 amount, address to) public signersOnly returns(bool success){\r\n        // trans = transactions(sign[msg.sender].index,0,new address[](no_signaturies),msg.sender,\"\",0,0x0000000000000000000000000000000000000000,\"\");\r\n        trans.id = sign[msg.sender].index+1;\r\n        trans.no_signed=1;\r\n        trans.signed.push(msg.sender);\r\n        trans.executioner = msg.sender;\r\n        trans.purpose = purpose;\r\n        trans.amount = amount;\r\n        trans.to = to;\r\n        trans.index = index;\r\n        sign[msg.sender].transaction.push(trans);\r\n        ++sign[msg.sender].index;\r\n        ++index;\r\n        pendingTransactions.push(trans);\r\n        // emit TransactionDet(sign[msg.sender].transaction[index].id,sign[msg.sender].transaction[0].no_signed,sign[msg.sender].transaction[0].signed[index], sign[msg.sender].transaction[0].executioner);\r\n        return true;\r\n    }\r\n\r\nevent Ts(uint t);\r\nevent Ac(uint a);\r\n    function signTransaction(address executioner, uint id) public signersOnly returns (bool success){\r\n        // emit Ts(sign[executioner].transaction[id].no_signed);\r\n        for(uint i=0; i<sign[executioner].transaction[id].no_signed; i++){\r\n            require(sign[executioner].transaction[id].signed[i] != msg.sender );\r\n        }\r\n\r\n        ++sign[executioner].transaction[id].no_signed;\r\n        sign[executioner].transaction[id].signed.push(msg.sender);\r\n        \r\n        // emit Ts(sign[executioner].transaction[id].no_signed);\r\n        if(sign[executioner].transaction[id].no_signed == 3){\r\n            emit Ts(sign[executioner].transaction[id].no_signed);\r\n            signedTransactions.push(sign[executioner].transaction[id]);\r\n            delete pendingTransactions[sign[executioner].transaction[id].index];\r\n        }\r\n        return true;\r\n    }\r\n\r\n    function approve (address _contractAddress, uint transId, address executioner) public signersOnly returns (bool success){\r\n        require(sign[executioner].transaction[transId].no_signed == no_signaturies);\r\n        transferFromContract(sign[executioner].transaction[transId].to, sign[executioner].transaction[transId].amount);\r\n        emit ApproveTransaction(_contractAddress, transId, sign[executioner].transaction[transId].no_signed, executioner,signaturesAuthorized);\r\n        // emit TransferDet(transId, sign[executioner].transaction[transId].no_signed, executioner)\r\n        return false;\r\n    }\r\n\r\n    // function allowance(address _owner, address _spender) public view returns (uint256 remaining){\r\n\r\n    // }\r\n\r\n    function assignSignaturies(address treasurer, address financeOfficer, address president) public returns (bool success) {\r\n        // sig = signaturies(true,0, transactions(index,0,new address[](no_signaturies),msg.sender,\"\",0,0x0000000000000000000000000000000000000000,''));\r\n        sign[treasurer].signer=true;\r\n        sign[treasurer].receipts=new string[](sign[msg.sender].index+1);\r\n        sign[financeOfficer].signer=true;\r\n        sign[financeOfficer].receipts=new string[](sign[msg.sender].index+1);\r\n        sign[president].signer=true;\r\n        sign[president].receipts=new string[](sign[msg.sender].index+1);\r\n        signaturesAuthorized.push(treasurer);\r\n        signaturesAuthorized.push(financeOfficer);\r\n        signaturesAuthorized.push(president);\r\n        no_signaturies = 3;\r\n        emit SignaturiesCreated(treasurer,financeOfficer, president);\r\n        return true;\r\n    }\r\n\r\n    function addSignatory(address[] memory signers) public returns (bool success) {\r\n\r\n        uint len = signers.length;\r\n\r\n        for(uint i = 0; i < len; i++){\r\n            sign[signers[i]];\r\n            sign[signers[i]].receipts=new string[](sign[msg.sender].index+1);\r\n            signaturesAuthorized.push(signers[i]);\r\n        }\r\n        no_signaturies += len; \r\n        emit AddSignaturies(signers);\r\n        return true;\r\n    }\r\n\r\n    function saveReceipt(string memory receipt) public returns (bool successs){\r\n        sign[msg.sender].receipts.push(receipt);\r\n        sign[msg.sender].transaction[sign[msg.sender].index - 1].txHash=receipt;\r\n        trans.txHash=receipt;\r\n        pendingTransactions.push(trans);\r\n        // emit ReceiptDetails(sign[msg.sender].receipts);\r\n        return true;\r\n    } \r\n\r\n    function viewSignedTransactions() public returns(bool success){\r\n        \r\n        // emit SignedTransactions(signedTransactions);\r\n        return true;\r\n    }\r\n\r\n    function viewPendingTransactions() public returns(bool success){\r\n        \r\n        // emit PendingTransactions(pendingTransactions);\r\n        // return pendingTransactions\r\n        return true;\r\n    }\r\n\r\n    function pendingTransactionsLength() public view returns(uint length){\r\n        return pendingTransactions.length;\r\n    }\r\n\r\n    function signedTransactionsLength() public view returns(uint length){\r\n        return signedTransactions.length;\r\n    }\r\n\r\n    // function getPendingTransaction(uint indexA) public returns(bool success){\r\n    //     transactions memory a = pendingTransactions[index];\r\n\r\n    //     emit PendingTransaction(a.id,a.no_signed,a.signed,a.executioner,a.purpose,a.amount,a.to,a.txHash);\r\n    //     return true;\r\n    // }\r\n\r\n}",
  "sourcePath": "C:/xampp/htdocs/Fintech/src/ledger/contracts/Token.sol",
  "compiler": {
    "name": "solc",
    "version": "0.5.0+commit.1d4f565a.Emscripten.clang"
  },
  "schemaVersion": "3.0.2",
  "updatedAt": "2019-04-09T22:29:10.689Z",
  "devdoc": {
    "methods": {}
  },
  "userdoc": {
    "methods": {}
  }
}