{
  "contractName": "Token",
  "abi": [
    {
      "constant": true,
      "inputs": [],
      "name": "execs_signed",
      "outputs": [
        {
          "name": "",
          "type": "uint256"
        }
      ],
      "payable": false,
      "stateMutability": "view",
      "type": "function",
      "signature": "0x00c4ba04"
    },
    {
      "constant": true,
      "inputs": [],
      "name": "name",
      "outputs": [
        {
          "name": "",
          "type": "string"
        }
      ],
      "payable": false,
      "stateMutability": "view",
      "type": "function",
      "signature": "0x06fdde03"
    },
    {
      "constant": true,
      "inputs": [],
      "name": "totalSupply",
      "outputs": [
        {
          "name": "",
          "type": "uint256"
        }
      ],
      "payable": false,
      "stateMutability": "view",
      "type": "function",
      "signature": "0x18160ddd"
    },
    {
      "constant": true,
      "inputs": [],
      "name": "index",
      "outputs": [
        {
          "name": "",
          "type": "uint256"
        }
      ],
      "payable": false,
      "stateMutability": "view",
      "type": "function",
      "signature": "0x2986c0e5"
    },
    {
      "constant": true,
      "inputs": [],
      "name": "decimals",
      "outputs": [
        {
          "name": "",
          "type": "uint8"
        }
      ],
      "payable": false,
      "stateMutability": "view",
      "type": "function",
      "signature": "0x313ce567"
    },
    {
      "constant": true,
      "inputs": [
        {
          "name": "",
          "type": "uint256"
        }
      ],
      "name": "signaturesAuthorized",
      "outputs": [
        {
          "name": "",
          "type": "address"
        }
      ],
      "payable": false,
      "stateMutability": "view",
      "type": "function",
      "signature": "0x37c2b8da"
    },
    {
      "constant": true,
      "inputs": [
        {
          "name": "",
          "type": "uint256"
        }
      ],
      "name": "pendingTransactions",
      "outputs": [
        {
          "name": "id",
          "type": "uint256"
        },
        {
          "name": "no_signed",
          "type": "uint256"
        },
        {
          "name": "executioner",
          "type": "address"
        },
        {
          "name": "purpose",
          "type": "string"
        },
        {
          "name": "amount",
          "type": "uint256"
        },
        {
          "name": "to",
          "type": "address"
        },
        {
          "name": "txHash",
          "type": "bytes"
        }
      ],
      "payable": false,
      "stateMutability": "view",
      "type": "function",
      "signature": "0x63a8374d"
    },
    {
      "constant": true,
      "inputs": [
        {
          "name": "",
          "type": "uint256"
        }
      ],
      "name": "signedTransactions",
      "outputs": [
        {
          "name": "id",
          "type": "uint256"
        },
        {
          "name": "no_signed",
          "type": "uint256"
        },
        {
          "name": "executioner",
          "type": "address"
        },
        {
          "name": "purpose",
          "type": "string"
        },
        {
          "name": "amount",
          "type": "uint256"
        },
        {
          "name": "to",
          "type": "address"
        },
        {
          "name": "txHash",
          "type": "bytes"
        }
      ],
      "payable": false,
      "stateMutability": "view",
      "type": "function",
      "signature": "0x63d30367"
    },
    {
      "constant": true,
      "inputs": [
        {
          "name": "",
          "type": "address"
        }
      ],
      "name": "balanceOf",
      "outputs": [
        {
          "name": "",
          "type": "uint256"
        }
      ],
      "payable": false,
      "stateMutability": "view",
      "type": "function",
      "signature": "0x70a08231"
    },
    {
      "constant": true,
      "inputs": [],
      "name": "contractBalance",
      "outputs": [
        {
          "name": "",
          "type": "uint256"
        }
      ],
      "payable": false,
      "stateMutability": "view",
      "type": "function",
      "signature": "0x8b7afe2e"
    },
    {
      "constant": true,
      "inputs": [],
      "name": "owner",
      "outputs": [
        {
          "name": "",
          "type": "address"
        }
      ],
      "payable": false,
      "stateMutability": "view",
      "type": "function",
      "signature": "0x8da5cb5b"
    },
    {
      "constant": true,
      "inputs": [],
      "name": "symbol",
      "outputs": [
        {
          "name": "",
          "type": "string"
        }
      ],
      "payable": false,
      "stateMutability": "view",
      "type": "function",
      "signature": "0x95d89b41"
    },
    {
      "constant": true,
      "inputs": [],
      "name": "no_signed",
      "outputs": [
        {
          "name": "",
          "type": "uint256"
        }
      ],
      "payable": false,
      "stateMutability": "view",
      "type": "function",
      "signature": "0xcaa0e43d"
    },
    {
      "constant": true,
      "inputs": [
        {
          "name": "",
          "type": "uint256"
        }
      ],
      "name": "allTransactions",
      "outputs": [
        {
          "name": "id",
          "type": "uint256"
        },
        {
          "name": "no_signed",
          "type": "uint256"
        },
        {
          "name": "executioner",
          "type": "address"
        },
        {
          "name": "purpose",
          "type": "string"
        },
        {
          "name": "amount",
          "type": "uint256"
        },
        {
          "name": "to",
          "type": "address"
        },
        {
          "name": "txHash",
          "type": "bytes"
        }
      ],
      "payable": false,
      "stateMutability": "view",
      "type": "function",
      "signature": "0xd7ff0714"
    },
    {
      "constant": true,
      "inputs": [
        {
          "name": "",
          "type": "address"
        }
      ],
      "name": "sign",
      "outputs": [
        {
          "name": "signer",
          "type": "bool"
        },
        {
          "name": "index",
          "type": "uint256"
        }
      ],
      "payable": false,
      "stateMutability": "view",
      "type": "function",
      "signature": "0xf71be837"
    },
    {
      "constant": true,
      "inputs": [],
      "name": "no_signaturies",
      "outputs": [
        {
          "name": "",
          "type": "uint256"
        }
      ],
      "payable": false,
      "stateMutability": "view",
      "type": "function",
      "signature": "0xfb40086d"
    },
    {
      "inputs": [
        {
          "name": "_initialSupply",
          "type": "uint256"
        },
        {
          "name": "treasurer",
          "type": "address"
        },
        {
          "name": "financeOfficer",
          "type": "address"
        },
        {
          "name": "president",
          "type": "address"
        }
      ],
      "payable": false,
      "stateMutability": "nonpayable",
      "type": "constructor",
      "signature": "constructor"
    },
    {
      "anonymous": false,
      "inputs": [
        {
          "indexed": true,
          "name": "_from",
          "type": "address"
        },
        {
          "indexed": true,
          "name": "_to",
          "type": "address"
        },
        {
          "indexed": false,
          "name": "_value",
          "type": "uint256"
        }
      ],
      "name": "Transfer",
      "type": "event",
      "signature": "0xddf252ad1be2c89b69c2b068fc378daa952ba7f163c4a11628f55a4df523b3ef"
    },
    {
      "anonymous": false,
      "inputs": [
        {
          "indexed": true,
          "name": "_owner",
          "type": "address"
        },
        {
          "indexed": true,
          "name": "_spender",
          "type": "address"
        },
        {
          "indexed": false,
          "name": "_value",
          "type": "uint256"
        }
      ],
      "name": "Approval",
      "type": "event",
      "signature": "0x8c5be1e5ebec7d5bd14f71427d1e84f3dd0314c0f7b2291e5b200ac8c7c3b925"
    },
    {
      "anonymous": false,
      "inputs": [
        {
          "indexed": false,
          "name": "treasurer",
          "type": "address"
        },
        {
          "indexed": false,
          "name": "financeOfficer",
          "type": "address"
        },
        {
          "indexed": false,
          "name": "president",
          "type": "address"
        }
      ],
      "name": "SignaturiesCreated",
      "type": "event",
      "signature": "0x90c5757fc4fa5d1822eb62f02567da41c848dcecb5cfe2e69ece7fd12f60f890"
    },
    {
      "anonymous": false,
      "inputs": [
        {
          "indexed": false,
          "name": "signaturies",
          "type": "address[]"
        }
      ],
      "name": "AddSignaturies",
      "type": "event",
      "signature": "0x28b9850d7271e5258efeee5c16852dd3183a05db1d791f16f171dbe44eecf1bf"
    },
    {
      "anonymous": false,
      "inputs": [
        {
          "indexed": false,
          "name": "_contractAddress",
          "type": "address"
        },
        {
          "indexed": false,
          "name": "id",
          "type": "uint256"
        },
        {
          "indexed": false,
          "name": "no_signed",
          "type": "uint256"
        },
        {
          "indexed": false,
          "name": "executioner",
          "type": "address"
        },
        {
          "indexed": false,
          "name": "sig",
          "type": "address[]"
        }
      ],
      "name": "ApproveTransaction",
      "type": "event",
      "signature": "0xd2718f2508947126da255bd275338cc82e08d7ceead21b6ebaa2ccd6d8830c63"
    },
    {
      "anonymous": false,
      "inputs": [
        {
          "indexed": false,
          "name": "_to",
          "type": "address"
        },
        {
          "indexed": false,
          "name": "_value",
          "type": "uint256"
        }
      ],
      "name": "TransferFrom",
      "type": "event",
      "signature": "0x58becdf9a931dd5ffd26ec2dde1ceab1683ffc0744ebd71f33267bc4406cc847"
    },
    {
      "anonymous": false,
      "inputs": [
        {
          "indexed": false,
          "name": "a",
          "type": "bool"
        }
      ],
      "name": "Data",
      "type": "event",
      "signature": "0xd4484901664f2f8511b28f987d546116a8e952222d68e609f78edc24d992b031"
    },
    {
      "anonymous": false,
      "inputs": [
        {
          "indexed": false,
          "name": "id",
          "type": "uint256"
        },
        {
          "indexed": false,
          "name": "no_signed",
          "type": "uint256"
        },
        {
          "indexed": false,
          "name": "signed",
          "type": "address"
        },
        {
          "indexed": false,
          "name": "executioner",
          "type": "address"
        }
      ],
      "name": "TransactionDet",
      "type": "event",
      "signature": "0x9fd4c058a57966e900e70822af82d2219c92a57a2b87fe913bd286659cff32a3"
    },
    {
      "anonymous": false,
      "inputs": [
        {
          "indexed": false,
          "name": "id",
          "type": "uint256"
        },
        {
          "indexed": false,
          "name": "no_signed",
          "type": "uint256"
        },
        {
          "indexed": false,
          "name": "signed",
          "type": "address[]"
        },
        {
          "indexed": false,
          "name": "executioner",
          "type": "address"
        },
        {
          "indexed": false,
          "name": "purpose",
          "type": "string"
        },
        {
          "indexed": false,
          "name": "amount",
          "type": "uint256"
        },
        {
          "indexed": false,
          "name": "to",
          "type": "address"
        },
        {
          "indexed": false,
          "name": "txHash",
          "type": "bytes"
        }
      ],
      "name": "PendingTransaction",
      "type": "event",
      "signature": "0x37d978715a7d425ceffbfa6de923ba8f2c8191ef956e4bcde26ad892a8c9ade5"
    },
    {
      "constant": false,
      "inputs": [
        {
          "name": "_to",
          "type": "address"
        },
        {
          "name": "_value",
          "type": "uint256"
        }
      ],
      "name": "transfer",
      "outputs": [
        {
          "name": "success",
          "type": "bool"
        }
      ],
      "payable": false,
      "stateMutability": "nonpayable",
      "type": "function",
      "signature": "0xa9059cbb"
    },
    {
      "constant": false,
      "inputs": [
        {
          "name": "_to",
          "type": "address"
        },
        {
          "name": "_value",
          "type": "uint256"
        }
      ],
      "name": "transferFromContract",
      "outputs": [
        {
          "name": "success",
          "type": "bool"
        }
      ],
      "payable": false,
      "stateMutability": "nonpayable",
      "type": "function",
      "signature": "0x1a88f306"
    },
    {
      "constant": false,
      "inputs": [
        {
          "name": "purpose",
          "type": "string"
        },
        {
          "name": "amount",
          "type": "uint256"
        },
        {
          "name": "to",
          "type": "address"
        }
      ],
      "name": "createTransaction",
      "outputs": [
        {
          "name": "success",
          "type": "bool"
        }
      ],
      "payable": false,
      "stateMutability": "nonpayable",
      "type": "function",
      "signature": "0x9172dbc8"
    },
    {
      "constant": false,
      "inputs": [
        {
          "name": "executioner",
          "type": "address"
        },
        {
          "name": "id",
          "type": "uint256"
        }
      ],
      "name": "signTransaction",
      "outputs": [
        {
          "name": "success",
          "type": "bool"
        }
      ],
      "payable": false,
      "stateMutability": "nonpayable",
      "type": "function",
      "signature": "0xd7d4d2b9"
    },
    {
      "constant": false,
      "inputs": [
        {
          "name": "_contractAddress",
          "type": "address"
        },
        {
          "name": "transId",
          "type": "uint256"
        },
        {
          "name": "executioner",
          "type": "address"
        }
      ],
      "name": "approve",
      "outputs": [
        {
          "name": "success",
          "type": "bool"
        }
      ],
      "payable": false,
      "stateMutability": "nonpayable",
      "type": "function",
      "signature": "0x1271f09a"
    },
    {
      "constant": false,
      "inputs": [
        {
          "name": "treasurer",
          "type": "address"
        },
        {
          "name": "financeOfficer",
          "type": "address"
        },
        {
          "name": "president",
          "type": "address"
        }
      ],
      "name": "assignSignaturies",
      "outputs": [
        {
          "name": "success",
          "type": "bool"
        }
      ],
      "payable": false,
      "stateMutability": "nonpayable",
      "type": "function",
      "signature": "0xfa6ea69a"
    },
    {
      "constant": false,
      "inputs": [
        {
          "name": "signers",
          "type": "address[]"
        }
      ],
      "name": "addSignatory",
      "outputs": [
        {
          "name": "success",
          "type": "bool"
        }
      ],
      "payable": false,
      "stateMutability": "nonpayable",
      "type": "function",
      "signature": "0x78cdde7d"
    },
    {
      "constant": false,
      "inputs": [
        {
          "name": "receipt",
          "type": "bytes"
        }
      ],
      "name": "saveReceipt",
      "outputs": [
        {
          "name": "successs",
          "type": "bool"
        }
      ],
      "payable": false,
      "stateMutability": "nonpayable",
      "type": "function",
      "signature": "0x2f017d1f"
    },
    {
      "constant": false,
      "inputs": [],
      "name": "viewSignedTransactions",
      "outputs": [
        {
          "name": "success",
          "type": "bool"
        }
      ],
      "payable": false,
      "stateMutability": "nonpayable",
      "type": "function",
      "signature": "0x4ea49588"
    },
    {
      "constant": false,
      "inputs": [],
      "name": "viewPendingTransactions",
      "outputs": [
        {
          "name": "success",
          "type": "bool"
        }
      ],
      "payable": false,
      "stateMutability": "nonpayable",
      "type": "function",
      "signature": "0xafe45c32"
    },
    {
      "constant": true,
      "inputs": [],
      "name": "pendingTransactionsLength",
      "outputs": [
        {
          "name": "length",
          "type": "uint256"
        }
      ],
      "payable": false,
      "stateMutability": "view",
      "type": "function",
      "signature": "0xdcbda81a"
    },
    {
      "constant": true,
      "inputs": [],
      "name": "signedTransactionsLength",
      "outputs": [
        {
          "name": "length",
          "type": "uint256"
        }
      ],
      "payable": false,
      "stateMutability": "view",
      "type": "function",
      "signature": "0xda14a408"
    },
    {
      "constant": false,
      "inputs": [
        {
          "name": "indexA",
          "type": "uint256"
        }
      ],
      "name": "getPendingTransaction",
      "outputs": [
        {
          "name": "success",
          "type": "bool"
        }
      ],
      "payable": false,
      "stateMutability": "nonpayable",
      "type": "function",
      "signature": "0x23fbae41"
    }
  ],
  "bytecode": "0x60806040526040805190810160405280600881526020017f554d6154436f696e00000000000000000000000000000000000000000000000081525060009080519060200190620000519291906200073e565b506040805190810160405280600381526020017f554d430000000000000000000000000000000000000000000000000000000000815250600190805190602001906200009f9291906200073e565b506008600260006101000a81548160ff021916908360ff160217905550600060055560006007556000600955348015620000d857600080fd5b506040516080806200478583398101806040526080811015620000fa57600080fd5b810190808051906020019092919080519060200190929190805190602001909291908051906020019092919050505033600660006101000a81548173ffffffffffffffffffffffffffffffffffffffff021916908373ffffffffffffffffffffffffffffffffffffffff1602179055508360038190555083600881905550620001948383836200019f640100000000026401000000009004565b505050505062000958565b60006001601760008673ffffffffffffffffffffffffffffffffffffffff1673ffffffffffffffffffffffffffffffffffffffff16815260200190815260200160002060000160006101000a81548160ff0219169083151502179055506001601760003373ffffffffffffffffffffffffffffffffffffffff1673ffffffffffffffffffffffffffffffffffffffff16815260200190815260200160002060010154016040519080825280602002602001820160405280156200027757816020015b6060815260200190600190039081620002615790505b50601760008673ffffffffffffffffffffffffffffffffffffffff1673ffffffffffffffffffffffffffffffffffffffff1681526020019081526020016000206003019080519060200190620002cf929190620007c5565b506001601760008573ffffffffffffffffffffffffffffffffffffffff1673ffffffffffffffffffffffffffffffffffffffff16815260200190815260200160002060000160006101000a81548160ff0219169083151502179055506001601760003373ffffffffffffffffffffffffffffffffffffffff1673ffffffffffffffffffffffffffffffffffffffff1681526020019081526020016000206001015401604051908082528060200260200182016040528015620003a657816020015b6060815260200190600190039081620003905790505b50601760008573ffffffffffffffffffffffffffffffffffffffff1673ffffffffffffffffffffffffffffffffffffffff1681526020019081526020016000206003019080519060200190620003fe929190620007c5565b506001601760008473ffffffffffffffffffffffffffffffffffffffff1673ffffffffffffffffffffffffffffffffffffffff16815260200190815260200160002060000160006101000a81548160ff0219169083151502179055506001601760003373ffffffffffffffffffffffffffffffffffffffff1673ffffffffffffffffffffffffffffffffffffffff1681526020019081526020016000206001015401604051908082528060200260200182016040528015620004d557816020015b6060815260200190600190039081620004bf5790505b50601760008473ffffffffffffffffffffffffffffffffffffffff1673ffffffffffffffffffffffffffffffffffffffff16815260200190815260200160002060030190805190602001906200052d929190620007c5565b50600a8490806001815401808255809150509060018203906000526020600020016000909192909190916101000a81548173ffffffffffffffffffffffffffffffffffffffff021916908373ffffffffffffffffffffffffffffffffffffffff16021790555050600a8390806001815401808255809150509060018203906000526020600020016000909192909190916101000a81548173ffffffffffffffffffffffffffffffffffffffff021916908373ffffffffffffffffffffffffffffffffffffffff16021790555050600a8290806001815401808255809150509060018203906000526020600020016000909192909190916101000a81548173ffffffffffffffffffffffffffffffffffffffff021916908373ffffffffffffffffffffffffffffffffffffffff1602179055505060036004819055507f90c5757fc4fa5d1822eb62f02567da41c848dcecb5cfe2e69ece7fd12f60f890848484604051808473ffffffffffffffffffffffffffffffffffffffff1673ffffffffffffffffffffffffffffffffffffffff1681526020018373ffffffffffffffffffffffffffffffffffffffff1673ffffffffffffffffffffffffffffffffffffffff1681526020018273ffffffffffffffffffffffffffffffffffffffff1673ffffffffffffffffffffffffffffffffffffffff168152602001935050505060405180910390a1600190509392505050565b828054600181600116156101000203166002900490600052602060002090601f016020900481019282601f106200078157805160ff1916838001178555620007b2565b82800160010185558215620007b2579182015b82811115620007b157825182559160200191906001019062000794565b5b509050620007c191906200082c565b5090565b82805482825590600052602060002090810192821562000819579160200282015b82811115620008185782518290805190602001906200080792919062000854565b5091602001919060010190620007e6565b5b509050620008289190620008db565b5090565b6200085191905b808211156200084d57600081600090555060010162000833565b5090565b90565b828054600181600116156101000203166002900490600052602060002090601f016020900481019282601f106200089757805160ff1916838001178555620008c8565b82800160010185558215620008c8579182015b82811115620008c7578251825591602001919060010190620008aa565b5b509050620008d791906200082c565b5090565b6200090991905b80821115620009055760008181620008fb91906200090c565b50600101620008e2565b5090565b90565b50805460018160011615610100020316600290046000825580601f1062000934575062000955565b601f0160209004906000526020600020908101906200095491906200082c565b5b50565b613e1d80620009686000396000f3fe608060405260043610610174576000357c0100000000000000000000000000000000000000000000000000000000900463ffffffff168062c4ba041461017957806306fdde03146101a45780631271f09a1461023457806318160ddd146102c75780631a88f306146102f257806323fbae41146103655780632986c0e5146103b85780632f017d1f146103e3578063313ce567146104c357806337c2b8da146104f45780634ea495881461056f57806363a8374d1461059e57806363d303671461073957806370a08231146108d457806378cdde7d146109395780638b7afe2e14610a165780638da5cb5b14610a415780639172dbc814610a9857806395d89b4114610ba2578063a9059cbb14610c32578063afe45c3214610ca5578063caa0e43d14610cd4578063d7d4d2b914610cff578063d7ff071414610d72578063da14a40814610f0d578063dcbda81a14610f38578063f71be83714610f63578063fa6ea69a14610fd3578063fb40086d1461107c575b600080fd5b34801561018557600080fd5b5061018e6110a7565b6040518082815260200191505060405180910390f35b3480156101b057600080fd5b506101b96110ad565b6040518080602001828103825283818151815260200191508051906020019080838360005b838110156101f95780820151818401526020810190506101de565b50505050905090810190601f1680156102265780820380516001836020036101000a031916815260200191505b509250505060405180910390f35b34801561024057600080fd5b506102ad6004803603606081101561025757600080fd5b81019080803573ffffffffffffffffffffffffffffffffffffffff16906020019092919080359060200190929190803573ffffffffffffffffffffffffffffffffffffffff16906020019092919050505061114b565b604051808215151515815260200191505060405180910390f35b3480156102d357600080fd5b506102dc611499565b6040518082815260200191505060405180910390f35b3480156102fe57600080fd5b5061034b6004803603604081101561031557600080fd5b81019080803573ffffffffffffffffffffffffffffffffffffffff1690602001909291908035906020019092919050505061149f565b604051808215151515815260200191505060405180910390f35b34801561037157600080fd5b5061039e6004803603602081101561038857600080fd5b8101908080359060200190929190505050611519565b604051808215151515815260200191505060405180910390f35b3480156103c457600080fd5b506103cd6119e9565b6040518082815260200191505060405180910390f35b3480156103ef57600080fd5b506104a96004803603602081101561040657600080fd5b810190808035906020019064010000000081111561042357600080fd5b82018360208201111561043557600080fd5b8035906020019184600183028401116401000000008311171561045757600080fd5b91908080601f016020809104026020016040519081016040528093929190818152602001838380828437600081840152601f19601f8201169050808301925050505050505091929192905050506119ef565b604051808215151515815260200191505060405180910390f35b3480156104cf57600080fd5b506104d8611b33565b604051808260ff1660ff16815260200191505060405180910390f35b34801561050057600080fd5b5061052d6004803603602081101561051757600080fd5b8101908080359060200190929190505050611b46565b604051808273ffffffffffffffffffffffffffffffffffffffff1673ffffffffffffffffffffffffffffffffffffffff16815260200191505060405180910390f35b34801561057b57600080fd5b50610584611b84565b604051808215151515815260200191505060405180910390f35b3480156105aa57600080fd5b506105d7600480360360208110156105c157600080fd5b8101908080359060200190929190505050611b8d565b604051808881526020018781526020018673ffffffffffffffffffffffffffffffffffffffff1673ffffffffffffffffffffffffffffffffffffffff168152602001806020018581526020018473ffffffffffffffffffffffffffffffffffffffff1673ffffffffffffffffffffffffffffffffffffffff16815260200180602001838103835287818151815260200191508051906020019080838360005b83811015610691578082015181840152602081019050610676565b50505050905090810190601f1680156106be5780820380516001836020036101000a031916815260200191505b50838103825284818151815260200191508051906020019080838360005b838110156106f75780820151818401526020810190506106dc565b50505050905090810190601f1680156107245780820380516001836020036101000a031916815260200191505b50995050505050505050505060405180910390f35b34801561074557600080fd5b506107726004803603602081101561075c57600080fd5b8101908080359060200190929190505050611d4e565b604051808881526020018781526020018673ffffffffffffffffffffffffffffffffffffffff1673ffffffffffffffffffffffffffffffffffffffff168152602001806020018581526020018473ffffffffffffffffffffffffffffffffffffffff1673ffffffffffffffffffffffffffffffffffffffff16815260200180602001838103835287818151815260200191508051906020019080838360005b8381101561082c578082015181840152602081019050610811565b50505050905090810190601f1680156108595780820380516001836020036101000a031916815260200191505b50838103825284818151815260200191508051906020019080838360005b83811015610892578082015181840152602081019050610877565b50505050905090810190601f1680156108bf5780820380516001836020036101000a031916815260200191505b50995050505050505050505060405180910390f35b3480156108e057600080fd5b50610923600480360360208110156108f757600080fd5b81019080803573ffffffffffffffffffffffffffffffffffffffff169060200190929190505050611f0f565b6040518082815260200191505060405180910390f35b34801561094557600080fd5b506109fc6004803603602081101561095c57600080fd5b810190808035906020019064010000000081111561097957600080fd5b82018360208201111561098b57600080fd5b803590602001918460208302840111640100000000831117156109ad57600080fd5b919080806020026020016040519081016040528093929190818152602001838360200280828437600081840152601f19601f820116905080830192505050505050509192919290505050611f27565b604051808215151515815260200191505060405180910390f35b348015610a2257600080fd5b50610a2b612197565b6040518082815260200191505060405180910390f35b348015610a4d57600080fd5b50610a5661219d565b604051808273ffffffffffffffffffffffffffffffffffffffff1673ffffffffffffffffffffffffffffffffffffffff16815260200191505060405180910390f35b348015610aa457600080fd5b50610b8860048036036060811015610abb57600080fd5b8101908080359060200190640100000000811115610ad857600080fd5b820183602082011115610aea57600080fd5b80359060200191846001830284011164010000000083111715610b0c57600080fd5b91908080601f016020809104026020016040519081016040528093929190818152602001838380828437600081840152601f19601f82011690508083019250505050505050919291929080359060200190929190803573ffffffffffffffffffffffffffffffffffffffff1690602001909291905050506121c3565b604051808215151515815260200191505060405180910390f35b348015610bae57600080fd5b50610bb76129c0565b6040518080602001828103825283818151815260200191508051906020019080838360005b83811015610bf7578082015181840152602081019050610bdc565b50505050905090810190601f168015610c245780820380516001836020036101000a031916815260200191505b509250505060405180910390f35b348015610c3e57600080fd5b50610c8b60048036036040811015610c5557600080fd5b81019080803573ffffffffffffffffffffffffffffffffffffffff16906020019092919080359060200190929190505050612a5e565b604051808215151515815260200191505060405180910390f35b348015610cb157600080fd5b50610cba612bb7565b604051808215151515815260200191505060405180910390f35b348015610ce057600080fd5b50610ce9612bc0565b6040518082815260200191505060405180910390f35b348015610d0b57600080fd5b50610d5860048036036040811015610d2257600080fd5b81019080803573ffffffffffffffffffffffffffffffffffffffff16906020019092919080359060200190929190505050612bc6565b604051808215151515815260200191505060405180910390f35b348015610d7e57600080fd5b50610dab60048036036020811015610d9557600080fd5b8101908080359060200190929190505050613155565b604051808881526020018781526020018673ffffffffffffffffffffffffffffffffffffffff1673ffffffffffffffffffffffffffffffffffffffff168152602001806020018581526020018473ffffffffffffffffffffffffffffffffffffffff1673ffffffffffffffffffffffffffffffffffffffff16815260200180602001838103835287818151815260200191508051906020019080838360005b83811015610e65578082015181840152602081019050610e4a565b50505050905090810190601f168015610e925780820380516001836020036101000a031916815260200191505b50838103825284818151815260200191508051906020019080838360005b83811015610ecb578082015181840152602081019050610eb0565b50505050905090810190601f168015610ef85780820380516001836020036101000a031916815260200191505b50995050505050505050505060405180910390f35b348015610f1957600080fd5b50610f22613316565b6040518082815260200191505060405180910390f35b348015610f4457600080fd5b50610f4d613323565b6040518082815260200191505060405180910390f35b348015610f6f57600080fd5b50610fb260048036036020811015610f8657600080fd5b81019080803573ffffffffffffffffffffffffffffffffffffffff169060200190929190505050613330565b60405180831515151581526020018281526020019250505060405180910390f35b348015610fdf57600080fd5b5061106260048036036060811015610ff657600080fd5b81019080803573ffffffffffffffffffffffffffffffffffffffff169060200190929190803573ffffffffffffffffffffffffffffffffffffffff169060200190929190803573ffffffffffffffffffffffffffffffffffffffff169060200190929190505050613361565b604051808215151515815260200191505060405180910390f35b34801561108857600080fd5b506110916138f4565b6040518082815260200191505060405180910390f35b60075481565b60008054600181600116156101000203166002900480601f0160208091040260200160405190810160405280929190818152602001828054600181600116156101000203166002900480156111435780601f1061111857610100808354040283529160200191611143565b820191906000526020600020905b81548152906001019060200180831161112657829003601f168201915b505050505081565b600060011515601760003373ffffffffffffffffffffffffffffffffffffffff1673ffffffffffffffffffffffffffffffffffffffff16815260200190815260200160002060000160009054906101000a900460ff1615151415156111af57600080fd5b600454601760008473ffffffffffffffffffffffffffffffffffffffff1673ffffffffffffffffffffffffffffffffffffffff1681526020019081526020016000206002018481548110151561120157fe5b90600052602060002090600802016001015414151561121f57600080fd5b611309601760008473ffffffffffffffffffffffffffffffffffffffff1673ffffffffffffffffffffffffffffffffffffffff1681526020019081526020016000206002018481548110151561127157fe5b906000526020600020906008020160060160009054906101000a900473ffffffffffffffffffffffffffffffffffffffff16601760008573ffffffffffffffffffffffffffffffffffffffff1673ffffffffffffffffffffffffffffffffffffffff168152602001908152602001600020600201858154811015156112f257fe5b90600052602060002090600802016005015461149f565b507fd2718f2508947126da255bd275338cc82e08d7ceead21b6ebaa2ccd6d8830c638484601760008673ffffffffffffffffffffffffffffffffffffffff1673ffffffffffffffffffffffffffffffffffffffff1681526020019081526020016000206002018681548110151561137c57fe5b90600052602060002090600802016001015485600a604051808673ffffffffffffffffffffffffffffffffffffffff1673ffffffffffffffffffffffffffffffffffffffff1681526020018581526020018481526020018373ffffffffffffffffffffffffffffffffffffffff1673ffffffffffffffffffffffffffffffffffffffff16815260200180602001828103825283818154815260200191508054801561147c57602002820191906000526020600020905b8160009054906101000a900473ffffffffffffffffffffffffffffffffffffffff1673ffffffffffffffffffffffffffffffffffffffff1681526020019060010190808311611432575b5050965050505050505060405180910390a1600090509392505050565b60035481565b600081600854101515156114b257600080fd5b8160086000828254039250508190555081601660008573ffffffffffffffffffffffffffffffffffffffff1673ffffffffffffffffffffffffffffffffffffffff168152602001908152602001600020600082825401925050819055506001905092915050565b60006115236138fa565b600c60095481548110151561153457fe5b906000526020600020906008020161010060405190810160405290816000820154815260200160018201548152602001600282018054806020026020016040519081016040528092919081815260200182805480156115e857602002820191906000526020600020905b8160009054906101000a900473ffffffffffffffffffffffffffffffffffffffff1673ffffffffffffffffffffffffffffffffffffffff168152602001906001019080831161159e575b505050505081526020016003820160009054906101000a900473ffffffffffffffffffffffffffffffffffffffff1673ffffffffffffffffffffffffffffffffffffffff1673ffffffffffffffffffffffffffffffffffffffff168152602001600482018054600181600116156101000203166002900480601f0160208091040260200160405190810160405280929190818152602001828054600181600116156101000203166002900480156116e05780601f106116b5576101008083540402835291602001916116e0565b820191906000526020600020905b8154815290600101906020018083116116c357829003601f168201915b50505050508152602001600582015481526020016006820160009054906101000a900473ffffffffffffffffffffffffffffffffffffffff1673ffffffffffffffffffffffffffffffffffffffff1673ffffffffffffffffffffffffffffffffffffffff168152602001600782018054600181600116156101000203166002900480601f0160208091040260200160405190810160405280929190818152602001828054600181600116156101000203166002900480156117e25780601f106117b7576101008083540402835291602001916117e2565b820191906000526020600020905b8154815290600101906020018083116117c557829003601f168201915b50505050508152505090507f37d978715a7d425ceffbfa6de923ba8f2c8191ef956e4bcde26ad892a8c9ade5816000015182602001518360400151846060015185608001518660a001518760c001518860e0015160405180898152602001888152602001806020018773ffffffffffffffffffffffffffffffffffffffff1673ffffffffffffffffffffffffffffffffffffffff168152602001806020018681526020018573ffffffffffffffffffffffffffffffffffffffff1673ffffffffffffffffffffffffffffffffffffffff1681526020018060200184810384528a818151815260200191508051906020019060200280838360005b838110156118f75780820151818401526020810190506118dc565b50505050905001848103835288818151815260200191508051906020019080838360005b8381101561193657808201518184015260208101905061191b565b50505050905090810190601f1680156119635780820380516001836020036101000a031916815260200191505b50848103825285818151815260200191508051906020019080838360005b8381101561199c578082015181840152602081019050611981565b50505050905090810190601f1680156119c95780820380516001836020036101000a031916815260200191505b509b50505050505050505050505060405180910390a16001915050919050565b60095481565b6000601760003373ffffffffffffffffffffffffffffffffffffffff1673ffffffffffffffffffffffffffffffffffffffff168152602001908152602001600020600301829080600181540180825580915050906001820390600052602060002001600090919290919091509080519060200190611a6e92919061396c565b505081601760003373ffffffffffffffffffffffffffffffffffffffff1673ffffffffffffffffffffffffffffffffffffffff1681526020019081526020016000206002016001601760003373ffffffffffffffffffffffffffffffffffffffff1673ffffffffffffffffffffffffffffffffffffffff1681526020019081526020016000206001015403815481101515611b0557fe5b90600052602060002090600802016007019080519060200190611b2992919061396c565b5060019050919050565b600260009054906101000a900460ff1681565b600a81815481101515611b5557fe5b906000526020600020016000915054906101000a900473ffffffffffffffffffffffffffffffffffffffff1681565b60006001905090565b600c81815481101515611b9c57fe5b90600052602060002090600802016000915090508060000154908060010154908060030160009054906101000a900473ffffffffffffffffffffffffffffffffffffffff1690806004018054600181600116156101000203166002900480601f016020809104026020016040519081016040528092919081815260200182805460018160011615610100020316600290048015611c7a5780601f10611c4f57610100808354040283529160200191611c7a565b820191906000526020600020905b815481529060010190602001808311611c5d57829003601f168201915b5050505050908060050154908060060160009054906101000a900473ffffffffffffffffffffffffffffffffffffffff1690806007018054600181600116156101000203166002900480601f016020809104026020016040519081016040528092919081815260200182805460018160011615610100020316600290048015611d445780601f10611d1957610100808354040283529160200191611d44565b820191906000526020600020905b815481529060010190602001808311611d2757829003601f168201915b5050505050905087565b600b81815481101515611d5d57fe5b90600052602060002090600802016000915090508060000154908060010154908060030160009054906101000a900473ffffffffffffffffffffffffffffffffffffffff1690806004018054600181600116156101000203166002900480601f016020809104026020016040519081016040528092919081815260200182805460018160011615610100020316600290048015611e3b5780601f10611e1057610100808354040283529160200191611e3b565b820191906000526020600020905b815481529060010190602001808311611e1e57829003601f168201915b5050505050908060050154908060060160009054906101000a900473ffffffffffffffffffffffffffffffffffffffff1690806007018054600181600116156101000203166002900480601f016020809104026020016040519081016040528092919081815260200182805460018160011615610100020316600290048015611f055780601f10611eda57610100808354040283529160200191611f05565b820191906000526020600020905b815481529060010190602001808311611ee857829003601f168201915b5050505050905087565b60166020528060005260406000206000915090505481565b6000808251905060008090505b8181101561210457601760008583815181101515611f4e57fe5b9060200190602002015173ffffffffffffffffffffffffffffffffffffffff1673ffffffffffffffffffffffffffffffffffffffff168152602001908152602001600020506001601760003373ffffffffffffffffffffffffffffffffffffffff1673ffffffffffffffffffffffffffffffffffffffff168152602001908152602001600020600101540160405190808252806020026020018201604052801561200c57816020015b6060815260200190600190039081611ff75790505b5060176000868481518110151561201f57fe5b9060200190602002015173ffffffffffffffffffffffffffffffffffffffff1673ffffffffffffffffffffffffffffffffffffffff16815260200190815260200160002060030190805190602001906120799291906139ec565b50600a848281518110151561208a57fe5b9060200190602002015190806001815401808255809150509060018203906000526020600020016000909192909190916101000a81548173ffffffffffffffffffffffffffffffffffffffff021916908373ffffffffffffffffffffffffffffffffffffffff160217905550508080600101915050611f34565b50806004600082825401925050819055507f28b9850d7271e5258efeee5c16852dd3183a05db1d791f16f171dbe44eecf1bf836040518080602001828103825283818151815260200191508051906020019060200280838360005b8381101561217a57808201518184015260208101905061215f565b505050509050019250505060405180910390a16001915050919050565b60085481565b600660009054906101000a900473ffffffffffffffffffffffffffffffffffffffff1681565b600060011515601760003373ffffffffffffffffffffffffffffffffffffffff1673ffffffffffffffffffffffffffffffffffffffff16815260200190815260200160002060000160009054906101000a900460ff16151514151561222757600080fd5b6001601760003373ffffffffffffffffffffffffffffffffffffffff1673ffffffffffffffffffffffffffffffffffffffff1681526020019081526020016000206001015401600e600001819055506001600e60010181905550600e6002013390806001815401808255809150509060018203906000526020600020016000909192909190916101000a81548173ffffffffffffffffffffffffffffffffffffffff021916908373ffffffffffffffffffffffffffffffffffffffff1602179055505033600e60030160006101000a81548173ffffffffffffffffffffffffffffffffffffffff021916908373ffffffffffffffffffffffffffffffffffffffff16021790555083600e6004019080519060200190612347929190613a4c565b5082600e6005018190555081600e60060160006101000a81548173ffffffffffffffffffffffffffffffffffffffff021916908373ffffffffffffffffffffffffffffffffffffffff160217905550601760003373ffffffffffffffffffffffffffffffffffffffff1673ffffffffffffffffffffffffffffffffffffffff168152602001908152602001600020600201600e908060018154018082558091505090600182039060005260206000209060080201600090919290919091506000820154816000015560018201548160010155600282018160020190805461242f929190613acc565b506003820160009054906101000a900473ffffffffffffffffffffffffffffffffffffffff168160030160006101000a81548173ffffffffffffffffffffffffffffffffffffffff021916908373ffffffffffffffffffffffffffffffffffffffff160217905550600482018160040190805460018160011615610100020316600290046124be929190613b1e565b50600582015481600501556006820160009054906101000a900473ffffffffffffffffffffffffffffffffffffffff168160060160006101000a81548173ffffffffffffffffffffffffffffffffffffffff021916908373ffffffffffffffffffffffffffffffffffffffff16021790555060078201816007019080546001816001161561010002031660029004612557929190613ba5565b50505050601760003373ffffffffffffffffffffffffffffffffffffffff1673ffffffffffffffffffffffffffffffffffffffff1681526020019081526020016000206001016000815460010191905081905550600c600e9080600181540180825580915050906001820390600052602060002090600802016000909192909190915060008201548160000155600182015481600101556002820181600201908054612604929190613acc565b506003820160009054906101000a900473ffffffffffffffffffffffffffffffffffffffff168160030160006101000a81548173ffffffffffffffffffffffffffffffffffffffff021916908373ffffffffffffffffffffffffffffffffffffffff16021790555060048201816004019080546001816001161561010002031660029004612693929190613b1e565b50600582015481600501556006820160009054906101000a900473ffffffffffffffffffffffffffffffffffffffff168160060160006101000a81548173ffffffffffffffffffffffffffffffffffffffff021916908373ffffffffffffffffffffffffffffffffffffffff1602179055506007820181600701908054600181600116156101000203166002900461272c929190613ba5565b505050507f9fd4c058a57966e900e70822af82d2219c92a57a2b87fe913bd286659cff32a3601760003373ffffffffffffffffffffffffffffffffffffffff1673ffffffffffffffffffffffffffffffffffffffff1681526020019081526020016000206002016009548154811015156127a257fe5b906000526020600020906008020160000154601760003373ffffffffffffffffffffffffffffffffffffffff1673ffffffffffffffffffffffffffffffffffffffff168152602001908152602001600020600201600081548110151561280457fe5b906000526020600020906008020160010154601760003373ffffffffffffffffffffffffffffffffffffffff1673ffffffffffffffffffffffffffffffffffffffff168152602001908152602001600020600201600081548110151561286657fe5b906000526020600020906008020160020160095481548110151561288657fe5b9060005260206000200160009054906101000a900473ffffffffffffffffffffffffffffffffffffffff16601760003373ffffffffffffffffffffffffffffffffffffffff1673ffffffffffffffffffffffffffffffffffffffff168152602001908152602001600020600201600081548110151561290157fe5b906000526020600020906008020160030160009054906101000a900473ffffffffffffffffffffffffffffffffffffffff16604051808581526020018481526020018373ffffffffffffffffffffffffffffffffffffffff1673ffffffffffffffffffffffffffffffffffffffff1681526020018273ffffffffffffffffffffffffffffffffffffffff1673ffffffffffffffffffffffffffffffffffffffff16815260200194505050505060405180910390a1600190509392505050565b60018054600181600116156101000203166002900480601f016020809104026020016040519081016040528092919081815260200182805460018160011615610100020316600290048015612a565780601f10612a2b57610100808354040283529160200191612a56565b820191906000526020600020905b815481529060010190602001808311612a3957829003601f168201915b505050505081565b600081601660003373ffffffffffffffffffffffffffffffffffffffff1673ffffffffffffffffffffffffffffffffffffffff1681526020019081526020016000205410151515612aae57600080fd5b81601660003373ffffffffffffffffffffffffffffffffffffffff1673ffffffffffffffffffffffffffffffffffffffff1681526020019081526020016000206000828254039250508190555081601660008573ffffffffffffffffffffffffffffffffffffffff1673ffffffffffffffffffffffffffffffffffffffff168152602001908152602001600020600082825401925050819055508273ffffffffffffffffffffffffffffffffffffffff163373ffffffffffffffffffffffffffffffffffffffff167fddf252ad1be2c89b69c2b068fc378daa952ba7f163c4a11628f55a4df523b3ef846040518082815260200191505060405180910390a36001905092915050565b60006001905090565b60055481565b600060011515601760003373ffffffffffffffffffffffffffffffffffffffff1673ffffffffffffffffffffffffffffffffffffffff16815260200190815260200160002060000160009054906101000a900460ff161515141515612c2a57600080fd5b60008090505b6004811015612d18573373ffffffffffffffffffffffffffffffffffffffff16601760008673ffffffffffffffffffffffffffffffffffffffff1673ffffffffffffffffffffffffffffffffffffffff16815260200190815260200160002060020184815481101515612c9f57fe5b906000526020600020906008020160020182815481101515612cbd57fe5b9060005260206000200160009054906101000a900473ffffffffffffffffffffffffffffffffffffffff1673ffffffffffffffffffffffffffffffffffffffff1614151515612d0b57600080fd5b8080600101915050612c30565b50601760008473ffffffffffffffffffffffffffffffffffffffff1673ffffffffffffffffffffffffffffffffffffffff16815260200190815260200160002060020182815481101515612d6857fe5b90600052602060002090600802016002013390806001815401808255809150509060018203906000526020600020016000909192909190916101000a81548173ffffffffffffffffffffffffffffffffffffffff021916908373ffffffffffffffffffffffffffffffffffffffff16021790555050601760008473ffffffffffffffffffffffffffffffffffffffff1673ffffffffffffffffffffffffffffffffffffffff16815260200190815260200160002060020182815481101515612e2c57fe5b906000526020600020906008020160010160008154600101919050819055506003601760008573ffffffffffffffffffffffffffffffffffffffff1673ffffffffffffffffffffffffffffffffffffffff16815260200190815260200160002060020183815481101515612e9c57fe5b906000526020600020906008020160010154141561314b57600b601760008573ffffffffffffffffffffffffffffffffffffffff1673ffffffffffffffffffffffffffffffffffffffff16815260200190815260200160002060020183815481101515612f0557fe5b90600052602060002090600802019080600181540180825580915050906001820390600052602060002090600802016000909192909190915060008201548160000155600182015481600101556002820181600201908054612f68929190613acc565b506003820160009054906101000a900473ffffffffffffffffffffffffffffffffffffffff168160030160006101000a81548173ffffffffffffffffffffffffffffffffffffffff021916908373ffffffffffffffffffffffffffffffffffffffff16021790555060048201816004019080546001816001161561010002031660029004612ff7929190613b1e565b50600582015481600501556006820160009054906101000a900473ffffffffffffffffffffffffffffffffffffffff168160060160006101000a81548173ffffffffffffffffffffffffffffffffffffffff021916908373ffffffffffffffffffffffffffffffffffffffff16021790555060078201816007019080546001816001161561010002031660029004613090929190613ba5565b50505050600c828154811015156130a357fe5b906000526020600020906008020160008082016000905560018201600090556002820160006130d29190613c2c565b6003820160006101000a81549073ffffffffffffffffffffffffffffffffffffffff02191690556004820160006131099190613c4d565b60058201600090556006820160006101000a81549073ffffffffffffffffffffffffffffffffffffffff02191690556007820160006131489190613c95565b50505b6001905092915050565b600d8181548110151561316457fe5b90600052602060002090600802016000915090508060000154908060010154908060030160009054906101000a900473ffffffffffffffffffffffffffffffffffffffff1690806004018054600181600116156101000203166002900480601f0160208091040260200160405190810160405280929190818152602001828054600181600116156101000203166002900480156132425780601f1061321757610100808354040283529160200191613242565b820191906000526020600020905b81548152906001019060200180831161322557829003601f168201915b5050505050908060050154908060060160009054906101000a900473ffffffffffffffffffffffffffffffffffffffff1690806007018054600181600116156101000203166002900480601f01602080910402602001604051908101604052809291908181526020018280546001816001161561010002031660029004801561330c5780601f106132e15761010080835404028352916020019161330c565b820191906000526020600020905b8154815290600101906020018083116132ef57829003601f168201915b5050505050905087565b6000600b80549050905090565b6000600c80549050905090565b60176020528060005260406000206000915090508060000160009054906101000a900460ff16908060010154905082565b60006001601760008673ffffffffffffffffffffffffffffffffffffffff1673ffffffffffffffffffffffffffffffffffffffff16815260200190815260200160002060000160006101000a81548160ff0219169083151502179055506001601760003373ffffffffffffffffffffffffffffffffffffffff1673ffffffffffffffffffffffffffffffffffffffff168152602001908152602001600020600101540160405190808252806020026020018201604052801561343757816020015b60608152602001906001900390816134225790505b50601760008673ffffffffffffffffffffffffffffffffffffffff1673ffffffffffffffffffffffffffffffffffffffff168152602001908152602001600020600301908051906020019061348d9291906139ec565b506001601760008573ffffffffffffffffffffffffffffffffffffffff1673ffffffffffffffffffffffffffffffffffffffff16815260200190815260200160002060000160006101000a81548160ff0219169083151502179055506001601760003373ffffffffffffffffffffffffffffffffffffffff1673ffffffffffffffffffffffffffffffffffffffff168152602001908152602001600020600101540160405190808252806020026020018201604052801561356257816020015b606081526020019060019003908161354d5790505b50601760008573ffffffffffffffffffffffffffffffffffffffff1673ffffffffffffffffffffffffffffffffffffffff16815260200190815260200160002060030190805190602001906135b89291906139ec565b506001601760008473ffffffffffffffffffffffffffffffffffffffff1673ffffffffffffffffffffffffffffffffffffffff16815260200190815260200160002060000160006101000a81548160ff0219169083151502179055506001601760003373ffffffffffffffffffffffffffffffffffffffff1673ffffffffffffffffffffffffffffffffffffffff168152602001908152602001600020600101540160405190808252806020026020018201604052801561368d57816020015b60608152602001906001900390816136785790505b50601760008473ffffffffffffffffffffffffffffffffffffffff1673ffffffffffffffffffffffffffffffffffffffff16815260200190815260200160002060030190805190602001906136e39291906139ec565b50600a8490806001815401808255809150509060018203906000526020600020016000909192909190916101000a81548173ffffffffffffffffffffffffffffffffffffffff021916908373ffffffffffffffffffffffffffffffffffffffff16021790555050600a8390806001815401808255809150509060018203906000526020600020016000909192909190916101000a81548173ffffffffffffffffffffffffffffffffffffffff021916908373ffffffffffffffffffffffffffffffffffffffff16021790555050600a8290806001815401808255809150509060018203906000526020600020016000909192909190916101000a81548173ffffffffffffffffffffffffffffffffffffffff021916908373ffffffffffffffffffffffffffffffffffffffff1602179055505060036004819055507f90c5757fc4fa5d1822eb62f02567da41c848dcecb5cfe2e69ece7fd12f60f890848484604051808473ffffffffffffffffffffffffffffffffffffffff1673ffffffffffffffffffffffffffffffffffffffff1681526020018373ffffffffffffffffffffffffffffffffffffffff1673ffffffffffffffffffffffffffffffffffffffff1681526020018273ffffffffffffffffffffffffffffffffffffffff1673ffffffffffffffffffffffffffffffffffffffff168152602001935050505060405180910390a1600190509392505050565b60045481565b61010060405190810160405280600081526020016000815260200160608152602001600073ffffffffffffffffffffffffffffffffffffffff1681526020016060815260200160008152602001600073ffffffffffffffffffffffffffffffffffffffff168152602001606081525090565b828054600181600116156101000203166002900490600052602060002090601f016020900481019282601f106139ad57805160ff19168380011785556139db565b828001600101855582156139db579182015b828111156139da5782518255916020019190600101906139bf565b5b5090506139e89190613cdd565b5090565b828054828255906000526020600020908101928215613a3b579160200282015b82811115613a3a578251829080519060200190613a2a929190613d02565b5091602001919060010190613a0c565b5b509050613a489190613d82565b5090565b828054600181600116156101000203166002900490600052602060002090601f016020900481019282601f10613a8d57805160ff1916838001178555613abb565b82800160010185558215613abb579182015b82811115613aba578251825591602001919060010190613a9f565b5b509050613ac89190613cdd565b5090565b828054828255906000526020600020908101928215613b0d5760005260206000209182015b82811115613b0c578254825591600101919060010190613af1565b5b509050613b1a9190613dae565b5090565b828054600181600116156101000203166002900490600052602060002090601f016020900481019282601f10613b575780548555613b94565b82800160010185558215613b9457600052602060002091601f016020900482015b82811115613b93578254825591600101919060010190613b78565b5b509050613ba19190613cdd565b5090565b828054600181600116156101000203166002900490600052602060002090601f016020900481019282601f10613bde5780548555613c1b565b82800160010185558215613c1b57600052602060002091601f016020900482015b82811115613c1a578254825591600101919060010190613bff565b5b509050613c289190613cdd565b5090565b5080546000825590600052602060002090810190613c4a9190613cdd565b50565b50805460018160011615610100020316600290046000825580601f10613c735750613c92565b601f016020900490600052602060002090810190613c919190613cdd565b5b50565b50805460018160011615610100020316600290046000825580601f10613cbb5750613cda565b601f016020900490600052602060002090810190613cd99190613cdd565b5b50565b613cff91905b80821115613cfb576000816000905550600101613ce3565b5090565b90565b828054600181600116156101000203166002900490600052602060002090601f016020900481019282601f10613d4357805160ff1916838001178555613d71565b82800160010185558215613d71579182015b82811115613d70578251825591602001919060010190613d55565b5b509050613d7e9190613cdd565b5090565b613dab91905b80821115613da75760008181613d9e9190613c95565b50600101613d88565b5090565b90565b613dee91905b80821115613dea57600081816101000a81549073ffffffffffffffffffffffffffffffffffffffff021916905550600101613db4565b5090565b9056fea165627a7a72305820fba27f4a20bc3b8dc8be8381b0477d95a0739c663ebcf616feef5a066fe56c350029",
  "source": "\r\npragma solidity >=0.4.7 <0.6.0;\r\n// pragma experimental ABIEncoderV2;\r\n\r\ncontract Token{\r\n\r\n    struct signaturies{\r\n        bool signer;\r\n        uint index;\r\n        transactions [] transaction;\r\n        bytes [] receipts;\r\n    }\r\n\r\n    struct transactions{\r\n        uint256 id;\r\n        uint no_signed;\r\n        address [] signed;\r\n        address executioner;\r\n        string purpose;\r\n        uint256 amount;\r\n        address to;\r\n        bytes txHash;\r\n    }\r\n\r\n\r\n    string public name = \"UMaTCoin\";\r\n    string public symbol = \"UMC\";\r\n    uint8 public decimals = 8;\r\n    uint public totalSupply;\r\n    uint public no_signaturies;\r\n    uint public no_signed=0;\r\n    address public owner;\r\n    uint public execs_signed = 0;\r\n    uint256 public contractBalance;\r\n    uint256 public index=0;\r\n    address [] public signaturesAuthorized;\r\n    transactions [] public signedTransactions;\r\n    transactions [] public pendingTransactions;\r\n    transactions [] public allTransactions;\r\n\r\n    transactions trans;\r\n\r\n    //events\r\n    event Transfer(address indexed _from, address indexed _to, uint256 _value);\r\n    event Approval(address indexed _owner, address indexed _spender, uint256 _value);\r\n    event SignaturiesCreated(address treasurer,address financeOfficer, address president);\r\n    event AddSignaturies(address[] signaturies);\r\n    event ApproveTransaction(address _contractAddress, uint id, uint no_signed, address executioner, address [] sig);\r\n    event TransferFrom(address _to, uint256 _value);\r\n    event Data(bool a);\r\n    event TransactionDet(uint id, uint no_signed, address signed, address executioner);\r\n    // event ReceiptDetails(bytes [] receipts);\r\n    // event SignedTransactions(transactions [] signedTrans);\r\n    event PendingTransaction(\r\n        uint256 id,\r\n        uint no_signed,\r\n        address [] signed,\r\n        address executioner,\r\n        string purpose,\r\n        uint256 amount,\r\n        address to,\r\n        bytes txHash\r\n    );\r\n    \r\n    mapping(address => uint256) public balanceOf;\r\n    mapping(address => signaturies) public sign;\r\n    // mapping(uint => transactions) public pendingTransactions;\r\n    // mapping(uint => transactions) public signedTransactions;\r\n\r\n    // mapping(address => bytes) public receipts;\r\n\r\n    constructor(uint256 _initialSupply, address treasurer, address financeOfficer, address president) public {\r\n        owner = msg.sender;\r\n        // balanceOf[owner] = _initialSupply;\r\n        totalSupply = _initialSupply;\r\n        contractBalance = _initialSupply;\r\n        assignSignaturies(treasurer,financeOfficer,president);\r\n    }\r\n    \r\n\r\n    // modifier for only signaturies\r\n    modifier signersOnly{\r\n        require(sign[msg.sender].signer==true);\r\n        _;    \r\n    }\r\n\r\n\r\n    modifier signedOnly(uint transId){\r\n        require(sign[msg.sender].transaction[transId].no_signed == no_signaturies);\r\n        _;    \r\n    }\r\n\r\n    \r\n\r\n    // transfer from current address to another address {Not really required since transaction is from contract address to 'to' address}\r\n    function transfer(address _to, uint256 _value) public returns (bool success){\r\n        //check for enough funds b4 transfer\r\n        require(balanceOf[msg.sender]>=_value);\r\n        //Subtract from current balance\r\n        balanceOf[msg.sender]-=_value;\r\n        //Transfer amount\r\n        balanceOf[_to] += _value;\r\n        emit Transfer(msg.sender,_to,_value);\r\n        return true;\r\n    }\r\n\r\n    // transfer from contract address to specified address\r\n    function transferFromContract(address _to, uint256 _value) public returns (bool success){\r\n\r\n        require(contractBalance >= _value);\r\n        contractBalance -= _value;\r\n        balanceOf[_to] += _value;\r\n        // emit TransferFrom(_to,_value);\r\n        return true; \r\n    }\r\n    \r\n    function createTransaction(string memory purpose, uint256 amount, address to) public signersOnly returns(bool success){\r\n        // trans = transactions(sign[msg.sender].index,0,new address[](no_signaturies),msg.sender,\"\",0,0x0000000000000000000000000000000000000000,\"\");\r\n        trans.id = sign[msg.sender].index+1;\r\n        trans.no_signed=1;\r\n        trans.signed.push(msg.sender);\r\n        trans.executioner = msg.sender;\r\n        trans.purpose = purpose;\r\n        trans.amount = amount;\r\n        trans.to = to;\r\n        sign[msg.sender].transaction.push(trans);\r\n        ++sign[msg.sender].index;\r\n        pendingTransactions.push(trans);\r\n        emit TransactionDet(sign[msg.sender].transaction[index].id,sign[msg.sender].transaction[0].no_signed,sign[msg.sender].transaction[0].signed[index], sign[msg.sender].transaction[0].executioner);\r\n        return true;\r\n    }\r\n\r\n    function signTransaction(address executioner, uint id) public signersOnly returns (bool success){\r\n        \r\n        for(uint i=0; i<4; i++){\r\n            require(sign[executioner].transaction[id].signed[i] != msg.sender );\r\n        }\r\n\r\n        sign[executioner].transaction[id].signed.push(msg.sender);\r\n        ++sign[executioner].transaction[id].no_signed;\r\n        if(sign[executioner].transaction[id].no_signed == 3){\r\n            signedTransactions.push(sign[executioner].transaction[id]);\r\n            delete pendingTransactions[id];\r\n        }\r\n        return true;\r\n    }\r\n\r\n    function approve (address _contractAddress, uint transId, address executioner) public signersOnly returns (bool success){\r\n        require(sign[executioner].transaction[transId].no_signed == no_signaturies);\r\n        transferFromContract(sign[executioner].transaction[transId].to, sign[executioner].transaction[transId].amount);\r\n        emit ApproveTransaction(_contractAddress, transId, sign[executioner].transaction[transId].no_signed, executioner,signaturesAuthorized);\r\n        // emit TransferDet(transId, sign[executioner].transaction[transId].no_signed, executioner)\r\n        return false;\r\n    }\r\n\r\n    // function allowance(address _owner, address _spender) public view returns (uint256 remaining){\r\n\r\n    // }\r\n\r\n    function assignSignaturies(address treasurer, address financeOfficer, address president) public returns (bool success) {\r\n        // sig = signaturies(true,0, transactions(index,0,new address[](no_signaturies),msg.sender,\"\",0,0x0000000000000000000000000000000000000000,''));\r\n        sign[treasurer].signer=true;\r\n        sign[treasurer].receipts=new bytes[](sign[msg.sender].index+1);\r\n        sign[financeOfficer].signer=true;\r\n        sign[financeOfficer].receipts=new bytes[](sign[msg.sender].index+1);\r\n        sign[president].signer=true;\r\n        sign[president].receipts=new bytes[](sign[msg.sender].index+1);\r\n        signaturesAuthorized.push(treasurer);\r\n        signaturesAuthorized.push(financeOfficer);\r\n        signaturesAuthorized.push(president);\r\n        no_signaturies = 3;\r\n        emit SignaturiesCreated(treasurer,financeOfficer, president);\r\n        return true;\r\n    }\r\n\r\n    function addSignatory(address[] memory signers) public returns (bool success) {\r\n\r\n        uint len = signers.length;\r\n\r\n        for(uint i = 0; i < len; i++){\r\n            sign[signers[i]];\r\n            sign[signers[i]].receipts=new bytes[](sign[msg.sender].index+1);\r\n            signaturesAuthorized.push(signers[i]);\r\n        }\r\n        no_signaturies += len; \r\n        emit AddSignaturies(signers);\r\n        return true;\r\n    }\r\n\r\n    function saveReceipt(bytes memory receipt) public returns (bool successs){\r\n        sign[msg.sender].receipts.push(receipt);\r\n        sign[msg.sender].transaction[sign[msg.sender].index - 1].txHash=receipt;\r\n        // emit ReceiptDetails(sign[msg.sender].receipts);\r\n        return true;\r\n    } \r\n\r\n    function viewSignedTransactions() public returns(bool success){\r\n        \r\n        // emit SignedTransactions(signedTransactions);\r\n        return true;\r\n    }\r\n\r\n    function viewPendingTransactions() public returns(bool success){\r\n        \r\n        // emit PendingTransactions(pendingTransactions);\r\n        // return pendingTransactions\r\n        return true;\r\n    }\r\n\r\n    function pendingTransactionsLength() public view returns(uint length){\r\n        return pendingTransactions.length;\r\n    }\r\n\r\n    function signedTransactionsLength() public view returns(uint length){\r\n        return signedTransactions.length;\r\n    }\r\n\r\n    function getPendingTransaction(uint indexA) public returns(bool success){\r\n        transactions memory a = pendingTransactions[index];\r\n\r\n        emit PendingTransaction(a.id,a.no_signed,a.signed,a.executioner,a.purpose,a.amount,a.to,a.txHash);\r\n        return true;\r\n    }\r\n\r\n}",
  "sourcePath": "C:/xampp/htdocs/Fintech/src/ledger/contracts/Token.sol",
  "compiler": {
    "name": "solc",
    "version": "0.5.0+commit.1d4f565a.Emscripten.clang"
  },
  "schemaVersion": "3.0.2",
  "updatedAt": "2019-04-04T23:32:38.969Z",
  "devdoc": {
    "methods": {}
  },
  "userdoc": {
    "methods": {}
  }
}