{
  "contractName": "Token",
  "abi": [
    {
      "constant": true,
      "inputs": [],
      "name": "execs_signed",
      "outputs": [
        {
          "name": "",
          "type": "uint256"
        }
      ],
      "payable": false,
      "stateMutability": "view",
      "type": "function",
      "signature": "0x00c4ba04"
    },
    {
      "constant": true,
      "inputs": [],
      "name": "name",
      "outputs": [
        {
          "name": "",
          "type": "string"
        }
      ],
      "payable": false,
      "stateMutability": "view",
      "type": "function",
      "signature": "0x06fdde03"
    },
    {
      "constant": true,
      "inputs": [],
      "name": "totalSupply",
      "outputs": [
        {
          "name": "",
          "type": "uint256"
        }
      ],
      "payable": false,
      "stateMutability": "view",
      "type": "function",
      "signature": "0x18160ddd"
    },
    {
      "constant": true,
      "inputs": [],
      "name": "index",
      "outputs": [
        {
          "name": "",
          "type": "uint256"
        }
      ],
      "payable": false,
      "stateMutability": "view",
      "type": "function",
      "signature": "0x2986c0e5"
    },
    {
      "constant": true,
      "inputs": [],
      "name": "decimals",
      "outputs": [
        {
          "name": "",
          "type": "uint8"
        }
      ],
      "payable": false,
      "stateMutability": "view",
      "type": "function",
      "signature": "0x313ce567"
    },
    {
      "constant": true,
      "inputs": [
        {
          "name": "",
          "type": "uint256"
        }
      ],
      "name": "signaturesAuthorized",
      "outputs": [
        {
          "name": "",
          "type": "address"
        }
      ],
      "payable": false,
      "stateMutability": "view",
      "type": "function",
      "signature": "0x37c2b8da"
    },
    {
      "constant": true,
      "inputs": [
        {
          "name": "",
          "type": "uint256"
        }
      ],
      "name": "pendingTransactions",
      "outputs": [
        {
          "name": "id",
          "type": "uint256"
        },
        {
          "name": "no_signed",
          "type": "uint256"
        },
        {
          "name": "executioner",
          "type": "address"
        },
        {
          "name": "purpose",
          "type": "string"
        },
        {
          "name": "amount",
          "type": "uint256"
        },
        {
          "name": "to",
          "type": "address"
        },
        {
          "name": "txHash",
          "type": "string"
        }
      ],
      "payable": false,
      "stateMutability": "view",
      "type": "function",
      "signature": "0x63a8374d"
    },
    {
      "constant": true,
      "inputs": [
        {
          "name": "",
          "type": "uint256"
        }
      ],
      "name": "signedTransactions",
      "outputs": [
        {
          "name": "id",
          "type": "uint256"
        },
        {
          "name": "no_signed",
          "type": "uint256"
        },
        {
          "name": "executioner",
          "type": "address"
        },
        {
          "name": "purpose",
          "type": "string"
        },
        {
          "name": "amount",
          "type": "uint256"
        },
        {
          "name": "to",
          "type": "address"
        },
        {
          "name": "txHash",
          "type": "string"
        }
      ],
      "payable": false,
      "stateMutability": "view",
      "type": "function",
      "signature": "0x63d30367"
    },
    {
      "constant": true,
      "inputs": [
        {
          "name": "",
          "type": "address"
        }
      ],
      "name": "balanceOf",
      "outputs": [
        {
          "name": "",
          "type": "uint256"
        }
      ],
      "payable": false,
      "stateMutability": "view",
      "type": "function",
      "signature": "0x70a08231"
    },
    {
      "constant": true,
      "inputs": [],
      "name": "contractBalance",
      "outputs": [
        {
          "name": "",
          "type": "uint256"
        }
      ],
      "payable": false,
      "stateMutability": "view",
      "type": "function",
      "signature": "0x8b7afe2e"
    },
    {
      "constant": true,
      "inputs": [],
      "name": "owner",
      "outputs": [
        {
          "name": "",
          "type": "address"
        }
      ],
      "payable": false,
      "stateMutability": "view",
      "type": "function",
      "signature": "0x8da5cb5b"
    },
    {
      "constant": true,
      "inputs": [],
      "name": "symbol",
      "outputs": [
        {
          "name": "",
          "type": "string"
        }
      ],
      "payable": false,
      "stateMutability": "view",
      "type": "function",
      "signature": "0x95d89b41"
    },
    {
      "constant": true,
      "inputs": [],
      "name": "no_signed",
      "outputs": [
        {
          "name": "",
          "type": "uint256"
        }
      ],
      "payable": false,
      "stateMutability": "view",
      "type": "function",
      "signature": "0xcaa0e43d"
    },
    {
      "constant": true,
      "inputs": [
        {
          "name": "",
          "type": "uint256"
        }
      ],
      "name": "allTransactions",
      "outputs": [
        {
          "name": "id",
          "type": "uint256"
        },
        {
          "name": "no_signed",
          "type": "uint256"
        },
        {
          "name": "executioner",
          "type": "address"
        },
        {
          "name": "purpose",
          "type": "string"
        },
        {
          "name": "amount",
          "type": "uint256"
        },
        {
          "name": "to",
          "type": "address"
        },
        {
          "name": "txHash",
          "type": "string"
        }
      ],
      "payable": false,
      "stateMutability": "view",
      "type": "function",
      "signature": "0xd7ff0714"
    },
    {
      "constant": true,
      "inputs": [
        {
          "name": "",
          "type": "address"
        }
      ],
      "name": "sign",
      "outputs": [
        {
          "name": "signer",
          "type": "bool"
        },
        {
          "name": "index",
          "type": "uint256"
        }
      ],
      "payable": false,
      "stateMutability": "view",
      "type": "function",
      "signature": "0xf71be837"
    },
    {
      "constant": true,
      "inputs": [],
      "name": "no_signaturies",
      "outputs": [
        {
          "name": "",
          "type": "uint256"
        }
      ],
      "payable": false,
      "stateMutability": "view",
      "type": "function",
      "signature": "0xfb40086d"
    },
    {
      "inputs": [
        {
          "name": "_initialSupply",
          "type": "uint256"
        },
        {
          "name": "treasurer",
          "type": "address"
        },
        {
          "name": "financeOfficer",
          "type": "address"
        },
        {
          "name": "president",
          "type": "address"
        }
      ],
      "payable": false,
      "stateMutability": "nonpayable",
      "type": "constructor",
      "signature": "constructor"
    },
    {
      "anonymous": false,
      "inputs": [
        {
          "indexed": true,
          "name": "_from",
          "type": "address"
        },
        {
          "indexed": true,
          "name": "_to",
          "type": "address"
        },
        {
          "indexed": false,
          "name": "_value",
          "type": "uint256"
        }
      ],
      "name": "Transfer",
      "type": "event",
      "signature": "0xddf252ad1be2c89b69c2b068fc378daa952ba7f163c4a11628f55a4df523b3ef"
    },
    {
      "anonymous": false,
      "inputs": [
        {
          "indexed": true,
          "name": "_owner",
          "type": "address"
        },
        {
          "indexed": true,
          "name": "_spender",
          "type": "address"
        },
        {
          "indexed": false,
          "name": "_value",
          "type": "uint256"
        }
      ],
      "name": "Approval",
      "type": "event",
      "signature": "0x8c5be1e5ebec7d5bd14f71427d1e84f3dd0314c0f7b2291e5b200ac8c7c3b925"
    },
    {
      "anonymous": false,
      "inputs": [
        {
          "indexed": false,
          "name": "treasurer",
          "type": "address"
        },
        {
          "indexed": false,
          "name": "financeOfficer",
          "type": "address"
        },
        {
          "indexed": false,
          "name": "president",
          "type": "address"
        }
      ],
      "name": "SignaturiesCreated",
      "type": "event",
      "signature": "0x90c5757fc4fa5d1822eb62f02567da41c848dcecb5cfe2e69ece7fd12f60f890"
    },
    {
      "anonymous": false,
      "inputs": [
        {
          "indexed": false,
          "name": "signaturies",
          "type": "address[]"
        }
      ],
      "name": "AddSignaturies",
      "type": "event",
      "signature": "0x28b9850d7271e5258efeee5c16852dd3183a05db1d791f16f171dbe44eecf1bf"
    },
    {
      "anonymous": false,
      "inputs": [
        {
          "indexed": false,
          "name": "_contractAddress",
          "type": "address"
        },
        {
          "indexed": false,
          "name": "id",
          "type": "uint256"
        },
        {
          "indexed": false,
          "name": "no_signed",
          "type": "uint256"
        },
        {
          "indexed": false,
          "name": "executioner",
          "type": "address"
        },
        {
          "indexed": false,
          "name": "sig",
          "type": "address[]"
        }
      ],
      "name": "ApproveTransaction",
      "type": "event",
      "signature": "0xd2718f2508947126da255bd275338cc82e08d7ceead21b6ebaa2ccd6d8830c63"
    },
    {
      "anonymous": false,
      "inputs": [
        {
          "indexed": false,
          "name": "_to",
          "type": "address"
        },
        {
          "indexed": false,
          "name": "_value",
          "type": "uint256"
        }
      ],
      "name": "TransferFrom",
      "type": "event",
      "signature": "0x58becdf9a931dd5ffd26ec2dde1ceab1683ffc0744ebd71f33267bc4406cc847"
    },
    {
      "anonymous": false,
      "inputs": [
        {
          "indexed": false,
          "name": "a",
          "type": "bool"
        }
      ],
      "name": "Data",
      "type": "event",
      "signature": "0xd4484901664f2f8511b28f987d546116a8e952222d68e609f78edc24d992b031"
    },
    {
      "anonymous": false,
      "inputs": [
        {
          "indexed": false,
          "name": "id",
          "type": "uint256"
        },
        {
          "indexed": false,
          "name": "no_signed",
          "type": "uint256"
        },
        {
          "indexed": false,
          "name": "signed",
          "type": "address"
        },
        {
          "indexed": false,
          "name": "executioner",
          "type": "address"
        }
      ],
      "name": "TransactionDet",
      "type": "event",
      "signature": "0x9fd4c058a57966e900e70822af82d2219c92a57a2b87fe913bd286659cff32a3"
    },
    {
      "anonymous": false,
      "inputs": [
        {
          "indexed": false,
          "name": "id",
          "type": "uint256"
        },
        {
          "indexed": false,
          "name": "no_signed",
          "type": "uint256"
        },
        {
          "indexed": false,
          "name": "signed",
          "type": "address[]"
        },
        {
          "indexed": false,
          "name": "executioner",
          "type": "address"
        },
        {
          "indexed": false,
          "name": "purpose",
          "type": "string"
        },
        {
          "indexed": false,
          "name": "amount",
          "type": "uint256"
        },
        {
          "indexed": false,
          "name": "to",
          "type": "address"
        },
        {
          "indexed": false,
          "name": "txHash",
          "type": "bytes"
        }
      ],
      "name": "PendingTransaction",
      "type": "event",
      "signature": "0x37d978715a7d425ceffbfa6de923ba8f2c8191ef956e4bcde26ad892a8c9ade5"
    },
    {
      "constant": false,
      "inputs": [
        {
          "name": "_to",
          "type": "address"
        },
        {
          "name": "_value",
          "type": "uint256"
        }
      ],
      "name": "transfer",
      "outputs": [
        {
          "name": "success",
          "type": "bool"
        }
      ],
      "payable": false,
      "stateMutability": "nonpayable",
      "type": "function",
      "signature": "0xa9059cbb"
    },
    {
      "constant": false,
      "inputs": [
        {
          "name": "_to",
          "type": "address"
        },
        {
          "name": "_value",
          "type": "uint256"
        }
      ],
      "name": "transferFromContract",
      "outputs": [
        {
          "name": "success",
          "type": "bool"
        }
      ],
      "payable": false,
      "stateMutability": "nonpayable",
      "type": "function",
      "signature": "0x1a88f306"
    },
    {
      "constant": false,
      "inputs": [
        {
          "name": "purpose",
          "type": "string"
        },
        {
          "name": "amount",
          "type": "uint256"
        },
        {
          "name": "to",
          "type": "address"
        }
      ],
      "name": "createTransaction",
      "outputs": [
        {
          "name": "success",
          "type": "bool"
        }
      ],
      "payable": false,
      "stateMutability": "nonpayable",
      "type": "function",
      "signature": "0x9172dbc8"
    },
    {
      "constant": false,
      "inputs": [
        {
          "name": "executioner",
          "type": "address"
        },
        {
          "name": "id",
          "type": "uint256"
        }
      ],
      "name": "signTransaction",
      "outputs": [
        {
          "name": "success",
          "type": "bool"
        }
      ],
      "payable": false,
      "stateMutability": "nonpayable",
      "type": "function",
      "signature": "0xd7d4d2b9"
    },
    {
      "constant": false,
      "inputs": [
        {
          "name": "_contractAddress",
          "type": "address"
        },
        {
          "name": "transId",
          "type": "uint256"
        },
        {
          "name": "executioner",
          "type": "address"
        }
      ],
      "name": "approve",
      "outputs": [
        {
          "name": "success",
          "type": "bool"
        }
      ],
      "payable": false,
      "stateMutability": "nonpayable",
      "type": "function",
      "signature": "0x1271f09a"
    },
    {
      "constant": false,
      "inputs": [
        {
          "name": "treasurer",
          "type": "address"
        },
        {
          "name": "financeOfficer",
          "type": "address"
        },
        {
          "name": "president",
          "type": "address"
        }
      ],
      "name": "assignSignaturies",
      "outputs": [
        {
          "name": "success",
          "type": "bool"
        }
      ],
      "payable": false,
      "stateMutability": "nonpayable",
      "type": "function",
      "signature": "0xfa6ea69a"
    },
    {
      "constant": false,
      "inputs": [
        {
          "name": "signers",
          "type": "address[]"
        }
      ],
      "name": "addSignatory",
      "outputs": [
        {
          "name": "success",
          "type": "bool"
        }
      ],
      "payable": false,
      "stateMutability": "nonpayable",
      "type": "function",
      "signature": "0x78cdde7d"
    },
    {
      "constant": false,
      "inputs": [
        {
          "name": "receipt",
          "type": "string"
        }
      ],
      "name": "saveReceipt",
      "outputs": [
        {
          "name": "successs",
          "type": "bool"
        }
      ],
      "payable": false,
      "stateMutability": "nonpayable",
      "type": "function",
      "signature": "0x9350b0e5"
    },
    {
      "constant": false,
      "inputs": [],
      "name": "viewSignedTransactions",
      "outputs": [
        {
          "name": "success",
          "type": "bool"
        }
      ],
      "payable": false,
      "stateMutability": "nonpayable",
      "type": "function",
      "signature": "0x4ea49588"
    },
    {
      "constant": false,
      "inputs": [],
      "name": "viewPendingTransactions",
      "outputs": [
        {
          "name": "success",
          "type": "bool"
        }
      ],
      "payable": false,
      "stateMutability": "nonpayable",
      "type": "function",
      "signature": "0xafe45c32"
    },
    {
      "constant": true,
      "inputs": [],
      "name": "pendingTransactionsLength",
      "outputs": [
        {
          "name": "length",
          "type": "uint256"
        }
      ],
      "payable": false,
      "stateMutability": "view",
      "type": "function",
      "signature": "0xdcbda81a"
    },
    {
      "constant": true,
      "inputs": [],
      "name": "signedTransactionsLength",
      "outputs": [
        {
          "name": "length",
          "type": "uint256"
        }
      ],
      "payable": false,
      "stateMutability": "view",
      "type": "function",
      "signature": "0xda14a408"
    }
  ],
  "bytecode": "0x60806040526040805190810160405280600881526020017f554d6154436f696e00000000000000000000000000000000000000000000000081525060009080519060200190620000519291906200073e565b506040805190810160405280600381526020017f554d430000000000000000000000000000000000000000000000000000000000815250600190805190602001906200009f9291906200073e565b506008600260006101000a81548160ff021916908360ff160217905550600060055560006007556000600955348015620000d857600080fd5b50604051608080620040b083398101806040526080811015620000fa57600080fd5b810190808051906020019092919080519060200190929190805190602001909291908051906020019092919050505033600660006101000a81548173ffffffffffffffffffffffffffffffffffffffff021916908373ffffffffffffffffffffffffffffffffffffffff1602179055508360038190555083600881905550620001948383836200019f640100000000026401000000009004565b505050505062000958565b60006001601760008673ffffffffffffffffffffffffffffffffffffffff1673ffffffffffffffffffffffffffffffffffffffff16815260200190815260200160002060000160006101000a81548160ff0219169083151502179055506001601760003373ffffffffffffffffffffffffffffffffffffffff1673ffffffffffffffffffffffffffffffffffffffff16815260200190815260200160002060010154016040519080825280602002602001820160405280156200027757816020015b6060815260200190600190039081620002615790505b50601760008673ffffffffffffffffffffffffffffffffffffffff1673ffffffffffffffffffffffffffffffffffffffff1681526020019081526020016000206003019080519060200190620002cf929190620007c5565b506001601760008573ffffffffffffffffffffffffffffffffffffffff1673ffffffffffffffffffffffffffffffffffffffff16815260200190815260200160002060000160006101000a81548160ff0219169083151502179055506001601760003373ffffffffffffffffffffffffffffffffffffffff1673ffffffffffffffffffffffffffffffffffffffff1681526020019081526020016000206001015401604051908082528060200260200182016040528015620003a657816020015b6060815260200190600190039081620003905790505b50601760008573ffffffffffffffffffffffffffffffffffffffff1673ffffffffffffffffffffffffffffffffffffffff1681526020019081526020016000206003019080519060200190620003fe929190620007c5565b506001601760008473ffffffffffffffffffffffffffffffffffffffff1673ffffffffffffffffffffffffffffffffffffffff16815260200190815260200160002060000160006101000a81548160ff0219169083151502179055506001601760003373ffffffffffffffffffffffffffffffffffffffff1673ffffffffffffffffffffffffffffffffffffffff1681526020019081526020016000206001015401604051908082528060200260200182016040528015620004d557816020015b6060815260200190600190039081620004bf5790505b50601760008473ffffffffffffffffffffffffffffffffffffffff1673ffffffffffffffffffffffffffffffffffffffff16815260200190815260200160002060030190805190602001906200052d929190620007c5565b50600a8490806001815401808255809150509060018203906000526020600020016000909192909190916101000a81548173ffffffffffffffffffffffffffffffffffffffff021916908373ffffffffffffffffffffffffffffffffffffffff16021790555050600a8390806001815401808255809150509060018203906000526020600020016000909192909190916101000a81548173ffffffffffffffffffffffffffffffffffffffff021916908373ffffffffffffffffffffffffffffffffffffffff16021790555050600a8290806001815401808255809150509060018203906000526020600020016000909192909190916101000a81548173ffffffffffffffffffffffffffffffffffffffff021916908373ffffffffffffffffffffffffffffffffffffffff1602179055505060036004819055507f90c5757fc4fa5d1822eb62f02567da41c848dcecb5cfe2e69ece7fd12f60f890848484604051808473ffffffffffffffffffffffffffffffffffffffff1673ffffffffffffffffffffffffffffffffffffffff1681526020018373ffffffffffffffffffffffffffffffffffffffff1673ffffffffffffffffffffffffffffffffffffffff1681526020018273ffffffffffffffffffffffffffffffffffffffff1673ffffffffffffffffffffffffffffffffffffffff168152602001935050505060405180910390a1600190509392505050565b828054600181600116156101000203166002900490600052602060002090601f016020900481019282601f106200078157805160ff1916838001178555620007b2565b82800160010185558215620007b2579182015b82811115620007b157825182559160200191906001019062000794565b5b509050620007c191906200082c565b5090565b82805482825590600052602060002090810192821562000819579160200282015b82811115620008185782518290805190602001906200080792919062000854565b5091602001919060010190620007e6565b5b509050620008289190620008db565b5090565b6200085191905b808211156200084d57600081600090555060010162000833565b5090565b90565b828054600181600116156101000203166002900490600052602060002090601f016020900481019282601f106200089757805160ff1916838001178555620008c8565b82800160010185558215620008c8579182015b82811115620008c7578251825591602001919060010190620008aa565b5b509050620008d791906200082c565b5090565b6200090991905b80821115620009055760008181620008fb91906200090c565b50600101620008e2565b5090565b90565b50805460018160011615610100020316600290046000825580601f1062000934575062000955565b601f0160209004906000526020600020908101906200095491906200082c565b5b50565b61374880620009686000396000f3fe608060405260043610610169576000357c0100000000000000000000000000000000000000000000000000000000900463ffffffff168062c4ba041461016e57806306fdde03146101995780631271f09a1461022957806318160ddd146102bc5780631a88f306146102e75780632986c0e51461035a578063313ce5671461038557806337c2b8da146103b65780634ea495881461043157806363a8374d1461046057806363d30367146105fb57806370a082311461079657806378cdde7d146107fb5780638b7afe2e146108d85780638da5cb5b146109035780639172dbc81461095a5780639350b0e514610a6457806395d89b4114610b44578063a9059cbb14610bd4578063afe45c3214610c47578063caa0e43d14610c76578063d7d4d2b914610ca1578063d7ff071414610d14578063da14a40814610eaf578063dcbda81a14610eda578063f71be83714610f05578063fa6ea69a14610f75578063fb40086d1461101e575b600080fd5b34801561017a57600080fd5b50610183611049565b6040518082815260200191505060405180910390f35b3480156101a557600080fd5b506101ae61104f565b6040518080602001828103825283818151815260200191508051906020019080838360005b838110156101ee5780820151818401526020810190506101d3565b50505050905090810190601f16801561021b5780820380516001836020036101000a031916815260200191505b509250505060405180910390f35b34801561023557600080fd5b506102a26004803603606081101561024c57600080fd5b81019080803573ffffffffffffffffffffffffffffffffffffffff16906020019092919080359060200190929190803573ffffffffffffffffffffffffffffffffffffffff1690602001909291905050506110ed565b604051808215151515815260200191505060405180910390f35b3480156102c857600080fd5b506102d161143b565b6040518082815260200191505060405180910390f35b3480156102f357600080fd5b506103406004803603604081101561030a57600080fd5b81019080803573ffffffffffffffffffffffffffffffffffffffff16906020019092919080359060200190929190505050611441565b604051808215151515815260200191505060405180910390f35b34801561036657600080fd5b5061036f6114bb565b6040518082815260200191505060405180910390f35b34801561039157600080fd5b5061039a6114c1565b604051808260ff1660ff16815260200191505060405180910390f35b3480156103c257600080fd5b506103ef600480360360208110156103d957600080fd5b81019080803590602001909291905050506114d4565b604051808273ffffffffffffffffffffffffffffffffffffffff1673ffffffffffffffffffffffffffffffffffffffff16815260200191505060405180910390f35b34801561043d57600080fd5b50610446611512565b604051808215151515815260200191505060405180910390f35b34801561046c57600080fd5b506104996004803603602081101561048357600080fd5b810190808035906020019092919050505061151b565b604051808881526020018781526020018673ffffffffffffffffffffffffffffffffffffffff1673ffffffffffffffffffffffffffffffffffffffff168152602001806020018581526020018473ffffffffffffffffffffffffffffffffffffffff1673ffffffffffffffffffffffffffffffffffffffff16815260200180602001838103835287818151815260200191508051906020019080838360005b83811015610553578082015181840152602081019050610538565b50505050905090810190601f1680156105805780820380516001836020036101000a031916815260200191505b50838103825284818151815260200191508051906020019080838360005b838110156105b957808201518184015260208101905061059e565b50505050905090810190601f1680156105e65780820380516001836020036101000a031916815260200191505b50995050505050505050505060405180910390f35b34801561060757600080fd5b506106346004803603602081101561061e57600080fd5b81019080803590602001909291905050506116dc565b604051808881526020018781526020018673ffffffffffffffffffffffffffffffffffffffff1673ffffffffffffffffffffffffffffffffffffffff168152602001806020018581526020018473ffffffffffffffffffffffffffffffffffffffff1673ffffffffffffffffffffffffffffffffffffffff16815260200180602001838103835287818151815260200191508051906020019080838360005b838110156106ee5780820151818401526020810190506106d3565b50505050905090810190601f16801561071b5780820380516001836020036101000a031916815260200191505b50838103825284818151815260200191508051906020019080838360005b83811015610754578082015181840152602081019050610739565b50505050905090810190601f1680156107815780820380516001836020036101000a031916815260200191505b50995050505050505050505060405180910390f35b3480156107a257600080fd5b506107e5600480360360208110156107b957600080fd5b81019080803573ffffffffffffffffffffffffffffffffffffffff16906020019092919050505061189d565b6040518082815260200191505060405180910390f35b34801561080757600080fd5b506108be6004803603602081101561081e57600080fd5b810190808035906020019064010000000081111561083b57600080fd5b82018360208201111561084d57600080fd5b8035906020019184602083028401116401000000008311171561086f57600080fd5b919080806020026020016040519081016040528093929190818152602001838360200280828437600081840152601f19601f8201169050808301925050505050505091929192905050506118b5565b604051808215151515815260200191505060405180910390f35b3480156108e457600080fd5b506108ed611b25565b6040518082815260200191505060405180910390f35b34801561090f57600080fd5b50610918611b2b565b604051808273ffffffffffffffffffffffffffffffffffffffff1673ffffffffffffffffffffffffffffffffffffffff16815260200191505060405180910390f35b34801561096657600080fd5b50610a4a6004803603606081101561097d57600080fd5b810190808035906020019064010000000081111561099a57600080fd5b8201836020820111156109ac57600080fd5b803590602001918460018302840111640100000000831117156109ce57600080fd5b91908080601f016020809104026020016040519081016040528093929190818152602001838380828437600081840152601f19601f82011690508083019250505050505050919291929080359060200190929190803573ffffffffffffffffffffffffffffffffffffffff169060200190929190505050611b51565b604051808215151515815260200191505060405180910390f35b348015610a7057600080fd5b50610b2a60048036036020811015610a8757600080fd5b8101908080359060200190640100000000811115610aa457600080fd5b820183602082011115610ab657600080fd5b80359060200191846001830284011164010000000083111715610ad857600080fd5b91908080601f016020809104026020016040519081016040528093929190818152602001838380828437600081840152601f19601f8201169050808301925050505050505091929192905050506121c9565b604051808215151515815260200191505060405180910390f35b348015610b5057600080fd5b50610b596124ac565b6040518080602001828103825283818151815260200191508051906020019080838360005b83811015610b99578082015181840152602081019050610b7e565b50505050905090810190601f168015610bc65780820380516001836020036101000a031916815260200191505b509250505060405180910390f35b348015610be057600080fd5b50610c2d60048036036040811015610bf757600080fd5b81019080803573ffffffffffffffffffffffffffffffffffffffff1690602001909291908035906020019092919050505061254a565b604051808215151515815260200191505060405180910390f35b348015610c5357600080fd5b50610c5c6126a3565b604051808215151515815260200191505060405180910390f35b348015610c8257600080fd5b50610c8b6126ac565b6040518082815260200191505060405180910390f35b348015610cad57600080fd5b50610cfa60048036036040811015610cc457600080fd5b81019080803573ffffffffffffffffffffffffffffffffffffffff169060200190929190803590602001909291905050506126b2565b604051808215151515815260200191505060405180910390f35b348015610d2057600080fd5b50610d4d60048036036020811015610d3757600080fd5b8101908080359060200190929190505050612c41565b604051808881526020018781526020018673ffffffffffffffffffffffffffffffffffffffff1673ffffffffffffffffffffffffffffffffffffffff168152602001806020018581526020018473ffffffffffffffffffffffffffffffffffffffff1673ffffffffffffffffffffffffffffffffffffffff16815260200180602001838103835287818151815260200191508051906020019080838360005b83811015610e07578082015181840152602081019050610dec565b50505050905090810190601f168015610e345780820380516001836020036101000a031916815260200191505b50838103825284818151815260200191508051906020019080838360005b83811015610e6d578082015181840152602081019050610e52565b50505050905090810190601f168015610e9a5780820380516001836020036101000a031916815260200191505b50995050505050505050505060405180910390f35b348015610ebb57600080fd5b50610ec4612e02565b6040518082815260200191505060405180910390f35b348015610ee657600080fd5b50610eef612e0f565b6040518082815260200191505060405180910390f35b348015610f1157600080fd5b50610f5460048036036020811015610f2857600080fd5b81019080803573ffffffffffffffffffffffffffffffffffffffff169060200190929190505050612e1c565b60405180831515151581526020018281526020019250505060405180910390f35b348015610f8157600080fd5b5061100460048036036060811015610f9857600080fd5b81019080803573ffffffffffffffffffffffffffffffffffffffff169060200190929190803573ffffffffffffffffffffffffffffffffffffffff169060200190929190803573ffffffffffffffffffffffffffffffffffffffff169060200190929190505050612e4d565b604051808215151515815260200191505060405180910390f35b34801561102a57600080fd5b506110336133e0565b6040518082815260200191505060405180910390f35b60075481565b60008054600181600116156101000203166002900480601f0160208091040260200160405190810160405280929190818152602001828054600181600116156101000203166002900480156110e55780601f106110ba576101008083540402835291602001916110e5565b820191906000526020600020905b8154815290600101906020018083116110c857829003601f168201915b505050505081565b600060011515601760003373ffffffffffffffffffffffffffffffffffffffff1673ffffffffffffffffffffffffffffffffffffffff16815260200190815260200160002060000160009054906101000a900460ff16151514151561115157600080fd5b600454601760008473ffffffffffffffffffffffffffffffffffffffff1673ffffffffffffffffffffffffffffffffffffffff168152602001908152602001600020600201848154811015156111a357fe5b9060005260206000209060080201600101541415156111c157600080fd5b6112ab601760008473ffffffffffffffffffffffffffffffffffffffff1673ffffffffffffffffffffffffffffffffffffffff1681526020019081526020016000206002018481548110151561121357fe5b906000526020600020906008020160060160009054906101000a900473ffffffffffffffffffffffffffffffffffffffff16601760008573ffffffffffffffffffffffffffffffffffffffff1673ffffffffffffffffffffffffffffffffffffffff1681526020019081526020016000206002018581548110151561129457fe5b906000526020600020906008020160050154611441565b507fd2718f2508947126da255bd275338cc82e08d7ceead21b6ebaa2ccd6d8830c638484601760008673ffffffffffffffffffffffffffffffffffffffff1673ffffffffffffffffffffffffffffffffffffffff1681526020019081526020016000206002018681548110151561131e57fe5b90600052602060002090600802016001015485600a604051808673ffffffffffffffffffffffffffffffffffffffff1673ffffffffffffffffffffffffffffffffffffffff1681526020018581526020018481526020018373ffffffffffffffffffffffffffffffffffffffff1673ffffffffffffffffffffffffffffffffffffffff16815260200180602001828103825283818154815260200191508054801561141e57602002820191906000526020600020905b8160009054906101000a900473ffffffffffffffffffffffffffffffffffffffff1673ffffffffffffffffffffffffffffffffffffffff16815260200190600101908083116113d4575b5050965050505050505060405180910390a1600090509392505050565b60035481565b6000816008541015151561145457600080fd5b8160086000828254039250508190555081601660008573ffffffffffffffffffffffffffffffffffffffff1673ffffffffffffffffffffffffffffffffffffffff168152602001908152602001600020600082825401925050819055506001905092915050565b60095481565b600260009054906101000a900460ff1681565b600a818154811015156114e357fe5b906000526020600020016000915054906101000a900473ffffffffffffffffffffffffffffffffffffffff1681565b60006001905090565b600c8181548110151561152a57fe5b90600052602060002090600802016000915090508060000154908060010154908060030160009054906101000a900473ffffffffffffffffffffffffffffffffffffffff1690806004018054600181600116156101000203166002900480601f0160208091040260200160405190810160405280929190818152602001828054600181600116156101000203166002900480156116085780601f106115dd57610100808354040283529160200191611608565b820191906000526020600020905b8154815290600101906020018083116115eb57829003601f168201915b5050505050908060050154908060060160009054906101000a900473ffffffffffffffffffffffffffffffffffffffff1690806007018054600181600116156101000203166002900480601f0160208091040260200160405190810160405280929190818152602001828054600181600116156101000203166002900480156116d25780601f106116a7576101008083540402835291602001916116d2565b820191906000526020600020905b8154815290600101906020018083116116b557829003601f168201915b5050505050905087565b600b818154811015156116eb57fe5b90600052602060002090600802016000915090508060000154908060010154908060030160009054906101000a900473ffffffffffffffffffffffffffffffffffffffff1690806004018054600181600116156101000203166002900480601f0160208091040260200160405190810160405280929190818152602001828054600181600116156101000203166002900480156117c95780601f1061179e576101008083540402835291602001916117c9565b820191906000526020600020905b8154815290600101906020018083116117ac57829003601f168201915b5050505050908060050154908060060160009054906101000a900473ffffffffffffffffffffffffffffffffffffffff1690806007018054600181600116156101000203166002900480601f0160208091040260200160405190810160405280929190818152602001828054600181600116156101000203166002900480156118935780601f1061186857610100808354040283529160200191611893565b820191906000526020600020905b81548152906001019060200180831161187657829003601f168201915b5050505050905087565b60166020528060005260406000206000915090505481565b6000808251905060008090505b81811015611a92576017600085838151811015156118dc57fe5b9060200190602002015173ffffffffffffffffffffffffffffffffffffffff1673ffffffffffffffffffffffffffffffffffffffff168152602001908152602001600020506001601760003373ffffffffffffffffffffffffffffffffffffffff1673ffffffffffffffffffffffffffffffffffffffff168152602001908152602001600020600101540160405190808252806020026020018201604052801561199a57816020015b60608152602001906001900390816119855790505b506017600086848151811015156119ad57fe5b9060200190602002015173ffffffffffffffffffffffffffffffffffffffff1673ffffffffffffffffffffffffffffffffffffffff1681526020019081526020016000206003019080519060200190611a079291906133e6565b50600a8482815181101515611a1857fe5b9060200190602002015190806001815401808255809150509060018203906000526020600020016000909192909190916101000a81548173ffffffffffffffffffffffffffffffffffffffff021916908373ffffffffffffffffffffffffffffffffffffffff1602179055505080806001019150506118c2565b50806004600082825401925050819055507f28b9850d7271e5258efeee5c16852dd3183a05db1d791f16f171dbe44eecf1bf836040518080602001828103825283818151815260200191508051906020019060200280838360005b83811015611b08578082015181840152602081019050611aed565b505050509050019250505060405180910390a16001915050919050565b60085481565b600660009054906101000a900473ffffffffffffffffffffffffffffffffffffffff1681565b600060011515601760003373ffffffffffffffffffffffffffffffffffffffff1673ffffffffffffffffffffffffffffffffffffffff16815260200190815260200160002060000160009054906101000a900460ff161515141515611bb557600080fd5b6001601760003373ffffffffffffffffffffffffffffffffffffffff1673ffffffffffffffffffffffffffffffffffffffff1681526020019081526020016000206001015401600e600001819055506001600e60010181905550600e6002013390806001815401808255809150509060018203906000526020600020016000909192909190916101000a81548173ffffffffffffffffffffffffffffffffffffffff021916908373ffffffffffffffffffffffffffffffffffffffff1602179055505033600e60030160006101000a81548173ffffffffffffffffffffffffffffffffffffffff021916908373ffffffffffffffffffffffffffffffffffffffff16021790555083600e6004019080519060200190611cd5929190613446565b5082600e6005018190555081600e60060160006101000a81548173ffffffffffffffffffffffffffffffffffffffff021916908373ffffffffffffffffffffffffffffffffffffffff160217905550601760003373ffffffffffffffffffffffffffffffffffffffff1673ffffffffffffffffffffffffffffffffffffffff168152602001908152602001600020600201600e9080600181540180825580915050906001820390600052602060002090600802016000909192909190915060008201548160000155600182015481600101556002820181600201908054611dbd9291906134c6565b506003820160009054906101000a900473ffffffffffffffffffffffffffffffffffffffff168160030160006101000a81548173ffffffffffffffffffffffffffffffffffffffff021916908373ffffffffffffffffffffffffffffffffffffffff16021790555060048201816004019080546001816001161561010002031660029004611e4c929190613518565b50600582015481600501556006820160009054906101000a900473ffffffffffffffffffffffffffffffffffffffff168160060160006101000a81548173ffffffffffffffffffffffffffffffffffffffff021916908373ffffffffffffffffffffffffffffffffffffffff16021790555060078201816007019080546001816001161561010002031660029004611ee5929190613518565b50505050601760003373ffffffffffffffffffffffffffffffffffffffff1673ffffffffffffffffffffffffffffffffffffffff16815260200190815260200160002060010160008154600101919050819055507f9fd4c058a57966e900e70822af82d2219c92a57a2b87fe913bd286659cff32a3601760003373ffffffffffffffffffffffffffffffffffffffff1673ffffffffffffffffffffffffffffffffffffffff168152602001908152602001600020600201600954815481101515611fab57fe5b906000526020600020906008020160000154601760003373ffffffffffffffffffffffffffffffffffffffff1673ffffffffffffffffffffffffffffffffffffffff168152602001908152602001600020600201600081548110151561200d57fe5b906000526020600020906008020160010154601760003373ffffffffffffffffffffffffffffffffffffffff1673ffffffffffffffffffffffffffffffffffffffff168152602001908152602001600020600201600081548110151561206f57fe5b906000526020600020906008020160020160095481548110151561208f57fe5b9060005260206000200160009054906101000a900473ffffffffffffffffffffffffffffffffffffffff16601760003373ffffffffffffffffffffffffffffffffffffffff1673ffffffffffffffffffffffffffffffffffffffff168152602001908152602001600020600201600081548110151561210a57fe5b906000526020600020906008020160030160009054906101000a900473ffffffffffffffffffffffffffffffffffffffff16604051808581526020018481526020018373ffffffffffffffffffffffffffffffffffffffff1673ffffffffffffffffffffffffffffffffffffffff1681526020018273ffffffffffffffffffffffffffffffffffffffff1673ffffffffffffffffffffffffffffffffffffffff16815260200194505050505060405180910390a1600190509392505050565b6000601760003373ffffffffffffffffffffffffffffffffffffffff1673ffffffffffffffffffffffffffffffffffffffff168152602001908152602001600020600301829080600181540180825580915050906001820390600052602060002001600090919290919091509080519060200190612248929190613446565b505081601760003373ffffffffffffffffffffffffffffffffffffffff1673ffffffffffffffffffffffffffffffffffffffff1681526020019081526020016000206002016001601760003373ffffffffffffffffffffffffffffffffffffffff1673ffffffffffffffffffffffffffffffffffffffff16815260200190815260200160002060010154038154811015156122df57fe5b90600052602060002090600802016007019080519060200190612303929190613446565b5081600e600701908051906020019061231d929190613446565b50600c600e90806001815401808255809150509060018203906000526020600020906008020160009091929091909150600082015481600001556001820154816001015560028201816002019080546123779291906134c6565b506003820160009054906101000a900473ffffffffffffffffffffffffffffffffffffffff168160030160006101000a81548173ffffffffffffffffffffffffffffffffffffffff021916908373ffffffffffffffffffffffffffffffffffffffff16021790555060048201816004019080546001816001161561010002031660029004612406929190613518565b50600582015481600501556006820160009054906101000a900473ffffffffffffffffffffffffffffffffffffffff168160060160006101000a81548173ffffffffffffffffffffffffffffffffffffffff021916908373ffffffffffffffffffffffffffffffffffffffff1602179055506007820181600701908054600181600116156101000203166002900461249f929190613518565b5050505060019050919050565b60018054600181600116156101000203166002900480601f0160208091040260200160405190810160405280929190818152602001828054600181600116156101000203166002900480156125425780601f1061251757610100808354040283529160200191612542565b820191906000526020600020905b81548152906001019060200180831161252557829003601f168201915b505050505081565b600081601660003373ffffffffffffffffffffffffffffffffffffffff1673ffffffffffffffffffffffffffffffffffffffff168152602001908152602001600020541015151561259a57600080fd5b81601660003373ffffffffffffffffffffffffffffffffffffffff1673ffffffffffffffffffffffffffffffffffffffff1681526020019081526020016000206000828254039250508190555081601660008573ffffffffffffffffffffffffffffffffffffffff1673ffffffffffffffffffffffffffffffffffffffff168152602001908152602001600020600082825401925050819055508273ffffffffffffffffffffffffffffffffffffffff163373ffffffffffffffffffffffffffffffffffffffff167fddf252ad1be2c89b69c2b068fc378daa952ba7f163c4a11628f55a4df523b3ef846040518082815260200191505060405180910390a36001905092915050565b60006001905090565b60055481565b600060011515601760003373ffffffffffffffffffffffffffffffffffffffff1673ffffffffffffffffffffffffffffffffffffffff16815260200190815260200160002060000160009054906101000a900460ff16151514151561271657600080fd5b60008090505b6004811015612804573373ffffffffffffffffffffffffffffffffffffffff16601760008673ffffffffffffffffffffffffffffffffffffffff1673ffffffffffffffffffffffffffffffffffffffff1681526020019081526020016000206002018481548110151561278b57fe5b9060005260206000209060080201600201828154811015156127a957fe5b9060005260206000200160009054906101000a900473ffffffffffffffffffffffffffffffffffffffff1673ffffffffffffffffffffffffffffffffffffffff16141515156127f757600080fd5b808060010191505061271c565b50601760008473ffffffffffffffffffffffffffffffffffffffff1673ffffffffffffffffffffffffffffffffffffffff1681526020019081526020016000206002018281548110151561285457fe5b90600052602060002090600802016002013390806001815401808255809150509060018203906000526020600020016000909192909190916101000a81548173ffffffffffffffffffffffffffffffffffffffff021916908373ffffffffffffffffffffffffffffffffffffffff16021790555050601760008473ffffffffffffffffffffffffffffffffffffffff1673ffffffffffffffffffffffffffffffffffffffff1681526020019081526020016000206002018281548110151561291857fe5b906000526020600020906008020160010160008154600101919050819055506003601760008573ffffffffffffffffffffffffffffffffffffffff1673ffffffffffffffffffffffffffffffffffffffff1681526020019081526020016000206002018381548110151561298857fe5b9060005260206000209060080201600101541415612c3757600b601760008573ffffffffffffffffffffffffffffffffffffffff1673ffffffffffffffffffffffffffffffffffffffff168152602001908152602001600020600201838154811015156129f157fe5b90600052602060002090600802019080600181540180825580915050906001820390600052602060002090600802016000909192909190915060008201548160000155600182015481600101556002820181600201908054612a549291906134c6565b506003820160009054906101000a900473ffffffffffffffffffffffffffffffffffffffff168160030160006101000a81548173ffffffffffffffffffffffffffffffffffffffff021916908373ffffffffffffffffffffffffffffffffffffffff16021790555060048201816004019080546001816001161561010002031660029004612ae3929190613518565b50600582015481600501556006820160009054906101000a900473ffffffffffffffffffffffffffffffffffffffff168160060160006101000a81548173ffffffffffffffffffffffffffffffffffffffff021916908373ffffffffffffffffffffffffffffffffffffffff16021790555060078201816007019080546001816001161561010002031660029004612b7c929190613518565b50505050600c82815481101515612b8f57fe5b90600052602060002090600802016000808201600090556001820160009055600282016000612bbe919061359f565b6003820160006101000a81549073ffffffffffffffffffffffffffffffffffffffff0219169055600482016000612bf591906135c0565b60058201600090556006820160006101000a81549073ffffffffffffffffffffffffffffffffffffffff0219169055600782016000612c3491906135c0565b50505b6001905092915050565b600d81815481101515612c5057fe5b90600052602060002090600802016000915090508060000154908060010154908060030160009054906101000a900473ffffffffffffffffffffffffffffffffffffffff1690806004018054600181600116156101000203166002900480601f016020809104026020016040519081016040528092919081815260200182805460018160011615610100020316600290048015612d2e5780601f10612d0357610100808354040283529160200191612d2e565b820191906000526020600020905b815481529060010190602001808311612d1157829003601f168201915b5050505050908060050154908060060160009054906101000a900473ffffffffffffffffffffffffffffffffffffffff1690806007018054600181600116156101000203166002900480601f016020809104026020016040519081016040528092919081815260200182805460018160011615610100020316600290048015612df85780601f10612dcd57610100808354040283529160200191612df8565b820191906000526020600020905b815481529060010190602001808311612ddb57829003601f168201915b5050505050905087565b6000600b80549050905090565b6000600c80549050905090565b60176020528060005260406000206000915090508060000160009054906101000a900460ff16908060010154905082565b60006001601760008673ffffffffffffffffffffffffffffffffffffffff1673ffffffffffffffffffffffffffffffffffffffff16815260200190815260200160002060000160006101000a81548160ff0219169083151502179055506001601760003373ffffffffffffffffffffffffffffffffffffffff1673ffffffffffffffffffffffffffffffffffffffff1681526020019081526020016000206001015401604051908082528060200260200182016040528015612f2357816020015b6060815260200190600190039081612f0e5790505b50601760008673ffffffffffffffffffffffffffffffffffffffff1673ffffffffffffffffffffffffffffffffffffffff1681526020019081526020016000206003019080519060200190612f799291906133e6565b506001601760008573ffffffffffffffffffffffffffffffffffffffff1673ffffffffffffffffffffffffffffffffffffffff16815260200190815260200160002060000160006101000a81548160ff0219169083151502179055506001601760003373ffffffffffffffffffffffffffffffffffffffff1673ffffffffffffffffffffffffffffffffffffffff168152602001908152602001600020600101540160405190808252806020026020018201604052801561304e57816020015b60608152602001906001900390816130395790505b50601760008573ffffffffffffffffffffffffffffffffffffffff1673ffffffffffffffffffffffffffffffffffffffff16815260200190815260200160002060030190805190602001906130a49291906133e6565b506001601760008473ffffffffffffffffffffffffffffffffffffffff1673ffffffffffffffffffffffffffffffffffffffff16815260200190815260200160002060000160006101000a81548160ff0219169083151502179055506001601760003373ffffffffffffffffffffffffffffffffffffffff1673ffffffffffffffffffffffffffffffffffffffff168152602001908152602001600020600101540160405190808252806020026020018201604052801561317957816020015b60608152602001906001900390816131645790505b50601760008473ffffffffffffffffffffffffffffffffffffffff1673ffffffffffffffffffffffffffffffffffffffff16815260200190815260200160002060030190805190602001906131cf9291906133e6565b50600a8490806001815401808255809150509060018203906000526020600020016000909192909190916101000a81548173ffffffffffffffffffffffffffffffffffffffff021916908373ffffffffffffffffffffffffffffffffffffffff16021790555050600a8390806001815401808255809150509060018203906000526020600020016000909192909190916101000a81548173ffffffffffffffffffffffffffffffffffffffff021916908373ffffffffffffffffffffffffffffffffffffffff16021790555050600a8290806001815401808255809150509060018203906000526020600020016000909192909190916101000a81548173ffffffffffffffffffffffffffffffffffffffff021916908373ffffffffffffffffffffffffffffffffffffffff1602179055505060036004819055507f90c5757fc4fa5d1822eb62f02567da41c848dcecb5cfe2e69ece7fd12f60f890848484604051808473ffffffffffffffffffffffffffffffffffffffff1673ffffffffffffffffffffffffffffffffffffffff1681526020018373ffffffffffffffffffffffffffffffffffffffff1673ffffffffffffffffffffffffffffffffffffffff1681526020018273ffffffffffffffffffffffffffffffffffffffff1673ffffffffffffffffffffffffffffffffffffffff168152602001935050505060405180910390a1600190509392505050565b60045481565b828054828255906000526020600020908101928215613435579160200282015b82811115613434578251829080519060200190613424929190613608565b5091602001919060010190613406565b5b5090506134429190613688565b5090565b828054600181600116156101000203166002900490600052602060002090601f016020900481019282601f1061348757805160ff19168380011785556134b5565b828001600101855582156134b5579182015b828111156134b4578251825591602001919060010190613499565b5b5090506134c291906136b4565b5090565b8280548282559060005260206000209081019282156135075760005260206000209182015b828111156135065782548255916001019190600101906134eb565b5b50905061351491906136d9565b5090565b828054600181600116156101000203166002900490600052602060002090601f016020900481019282601f10613551578054855561358e565b8280016001018555821561358e57600052602060002091601f016020900482015b8281111561358d578254825591600101919060010190613572565b5b50905061359b91906136b4565b5090565b50805460008255906000526020600020908101906135bd91906136b4565b50565b50805460018160011615610100020316600290046000825580601f106135e65750613605565b601f01602090049060005260206000209081019061360491906136b4565b5b50565b828054600181600116156101000203166002900490600052602060002090601f016020900481019282601f1061364957805160ff1916838001178555613677565b82800160010185558215613677579182015b8281111561367657825182559160200191906001019061365b565b5b50905061368491906136b4565b5090565b6136b191905b808211156136ad57600081816136a491906135c0565b5060010161368e565b5090565b90565b6136d691905b808211156136d25760008160009055506001016136ba565b5090565b90565b61371991905b8082111561371557600081816101000a81549073ffffffffffffffffffffffffffffffffffffffff0219169055506001016136df565b5090565b9056fea165627a7a723058200614a7b57571565918cfac9e7e615cb9ceb26b29d3f82af5b818b6b9a6b99e4f0029",
  "source": "\r\npragma solidity >=0.4.7 <0.6.0;\r\n// pragma experimental ABIEncoderV2;\r\n\r\ncontract Token{\r\n\r\n    struct signaturies{\r\n        bool signer;\r\n        uint index;\r\n        transactions [] transaction;\r\n        string [] receipts;\r\n    }\r\n\r\n    struct transactions{\r\n        uint256 id;\r\n        uint no_signed;\r\n        address [] signed;\r\n        address executioner;\r\n        string purpose;\r\n        uint256 amount;\r\n        address to;\r\n        string txHash;\r\n    }\r\n\r\n\r\n    string public name = \"UMaTCoin\";\r\n    string public symbol = \"UMC\";\r\n    uint8 public decimals = 8;\r\n    uint public totalSupply;\r\n    uint public no_signaturies;\r\n    uint public no_signed=0;\r\n    address public owner;\r\n    uint public execs_signed = 0;\r\n    uint256 public contractBalance;\r\n    uint256 public index=0;\r\n    address [] public signaturesAuthorized;\r\n    transactions [] public signedTransactions;\r\n    transactions [] public pendingTransactions;\r\n    transactions [] public allTransactions;\r\n\r\n    transactions trans;\r\n\r\n    //events\r\n    event Transfer(address indexed _from, address indexed _to, uint256 _value);\r\n    event Approval(address indexed _owner, address indexed _spender, uint256 _value);\r\n    event SignaturiesCreated(address treasurer,address financeOfficer, address president);\r\n    event AddSignaturies(address[] signaturies);\r\n    event ApproveTransaction(address _contractAddress, uint id, uint no_signed, address executioner, address [] sig);\r\n    event TransferFrom(address _to, uint256 _value);\r\n    event Data(bool a);\r\n    event TransactionDet(uint id, uint no_signed, address signed, address executioner);\r\n    // event ReceiptDetails(bytes [] receipts);\r\n    // event SignedTransactions(transactions [] signedTrans);\r\n    event PendingTransaction(\r\n        uint256 id,\r\n        uint no_signed,\r\n        address [] signed,\r\n        address executioner,\r\n        string purpose,\r\n        uint256 amount,\r\n        address to,\r\n        bytes txHash\r\n    );\r\n    \r\n    mapping(address => uint256) public balanceOf;\r\n    mapping(address => signaturies) public sign;\r\n    // mapping(uint => transactions) public pendingTransactions;\r\n    // mapping(uint => transactions) public signedTransactions;\r\n\r\n    // mapping(address => bytes) public receipts;\r\n\r\n    constructor(uint256 _initialSupply, address treasurer, address financeOfficer, address president) public {\r\n        owner = msg.sender;\r\n        // balanceOf[owner] = _initialSupply;\r\n        totalSupply = _initialSupply;\r\n        contractBalance = _initialSupply;\r\n        assignSignaturies(treasurer,financeOfficer,president);\r\n    }\r\n    \r\n\r\n    // modifier for only signaturies\r\n    modifier signersOnly{\r\n        require(sign[msg.sender].signer==true);\r\n        _;    \r\n    }\r\n\r\n\r\n    modifier signedOnly(uint transId){\r\n        require(sign[msg.sender].transaction[transId].no_signed == no_signaturies);\r\n        _;    \r\n    }\r\n\r\n    \r\n\r\n    // transfer from current address to another address {Not really required since transaction is from contract address to 'to' address}\r\n    function transfer(address _to, uint256 _value) public returns (bool success){\r\n        //check for enough funds b4 transfer\r\n        require(balanceOf[msg.sender]>=_value);\r\n        //Subtract from current balance\r\n        balanceOf[msg.sender]-=_value;\r\n        //Transfer amount\r\n        balanceOf[_to] += _value;\r\n        emit Transfer(msg.sender,_to,_value);\r\n        return true;\r\n    }\r\n\r\n    // transfer from contract address to specified address\r\n    function transferFromContract(address _to, uint256 _value) public returns (bool success){\r\n\r\n        require(contractBalance >= _value);\r\n        contractBalance -= _value;\r\n        balanceOf[_to] += _value;\r\n        // emit TransferFrom(_to,_value);\r\n        return true; \r\n    }\r\n    \r\n    function createTransaction(string memory purpose, uint256 amount, address to) public signersOnly returns(bool success){\r\n        // trans = transactions(sign[msg.sender].index,0,new address[](no_signaturies),msg.sender,\"\",0,0x0000000000000000000000000000000000000000,\"\");\r\n        trans.id = sign[msg.sender].index+1;\r\n        trans.no_signed=1;\r\n        trans.signed.push(msg.sender);\r\n        trans.executioner = msg.sender;\r\n        trans.purpose = purpose;\r\n        trans.amount = amount;\r\n        trans.to = to;\r\n        sign[msg.sender].transaction.push(trans);\r\n        ++sign[msg.sender].index;\r\n        // pendingTransactions.push(trans);\r\n        emit TransactionDet(sign[msg.sender].transaction[index].id,sign[msg.sender].transaction[0].no_signed,sign[msg.sender].transaction[0].signed[index], sign[msg.sender].transaction[0].executioner);\r\n        return true;\r\n    }\r\n\r\n    function signTransaction(address executioner, uint id) public signersOnly returns (bool success){\r\n        \r\n        for(uint i=0; i<4; i++){\r\n            require(sign[executioner].transaction[id].signed[i] != msg.sender );\r\n        }\r\n\r\n        sign[executioner].transaction[id].signed.push(msg.sender);\r\n        ++sign[executioner].transaction[id].no_signed;\r\n        if(sign[executioner].transaction[id].no_signed == 3){\r\n            signedTransactions.push(sign[executioner].transaction[id]);\r\n            delete pendingTransactions[id];\r\n        }\r\n        return true;\r\n    }\r\n\r\n    function approve (address _contractAddress, uint transId, address executioner) public signersOnly returns (bool success){\r\n        require(sign[executioner].transaction[transId].no_signed == no_signaturies);\r\n        transferFromContract(sign[executioner].transaction[transId].to, sign[executioner].transaction[transId].amount);\r\n        emit ApproveTransaction(_contractAddress, transId, sign[executioner].transaction[transId].no_signed, executioner,signaturesAuthorized);\r\n        // emit TransferDet(transId, sign[executioner].transaction[transId].no_signed, executioner)\r\n        return false;\r\n    }\r\n\r\n    // function allowance(address _owner, address _spender) public view returns (uint256 remaining){\r\n\r\n    // }\r\n\r\n    function assignSignaturies(address treasurer, address financeOfficer, address president) public returns (bool success) {\r\n        // sig = signaturies(true,0, transactions(index,0,new address[](no_signaturies),msg.sender,\"\",0,0x0000000000000000000000000000000000000000,''));\r\n        sign[treasurer].signer=true;\r\n        sign[treasurer].receipts=new string[](sign[msg.sender].index+1);\r\n        sign[financeOfficer].signer=true;\r\n        sign[financeOfficer].receipts=new string[](sign[msg.sender].index+1);\r\n        sign[president].signer=true;\r\n        sign[president].receipts=new string[](sign[msg.sender].index+1);\r\n        signaturesAuthorized.push(treasurer);\r\n        signaturesAuthorized.push(financeOfficer);\r\n        signaturesAuthorized.push(president);\r\n        no_signaturies = 3;\r\n        emit SignaturiesCreated(treasurer,financeOfficer, president);\r\n        return true;\r\n    }\r\n\r\n    function addSignatory(address[] memory signers) public returns (bool success) {\r\n\r\n        uint len = signers.length;\r\n\r\n        for(uint i = 0; i < len; i++){\r\n            sign[signers[i]];\r\n            sign[signers[i]].receipts=new string[](sign[msg.sender].index+1);\r\n            signaturesAuthorized.push(signers[i]);\r\n        }\r\n        no_signaturies += len; \r\n        emit AddSignaturies(signers);\r\n        return true;\r\n    }\r\n\r\n    function saveReceipt(string memory receipt) public returns (bool successs){\r\n        sign[msg.sender].receipts.push(receipt);\r\n        sign[msg.sender].transaction[sign[msg.sender].index - 1].txHash=receipt;\r\n        trans.txHash=receipt;\r\n        pendingTransactions.push(trans);\r\n        // emit ReceiptDetails(sign[msg.sender].receipts);\r\n        return true;\r\n    } \r\n\r\n    function viewSignedTransactions() public returns(bool success){\r\n        \r\n        // emit SignedTransactions(signedTransactions);\r\n        return true;\r\n    }\r\n\r\n    function viewPendingTransactions() public returns(bool success){\r\n        \r\n        // emit PendingTransactions(pendingTransactions);\r\n        // return pendingTransactions\r\n        return true;\r\n    }\r\n\r\n    function pendingTransactionsLength() public view returns(uint length){\r\n        return pendingTransactions.length;\r\n    }\r\n\r\n    function signedTransactionsLength() public view returns(uint length){\r\n        return signedTransactions.length;\r\n    }\r\n\r\n    // function getPendingTransaction(uint indexA) public returns(bool success){\r\n    //     transactions memory a = pendingTransactions[index];\r\n\r\n    //     emit PendingTransaction(a.id,a.no_signed,a.signed,a.executioner,a.purpose,a.amount,a.to,a.txHash);\r\n    //     return true;\r\n    // }\r\n\r\n}",
  "sourcePath": "C:/xampp/htdocs/Fintech/src/ledger/contracts/Token.sol",
  "compiler": {
    "name": "solc",
    "version": "0.5.0+commit.1d4f565a.Emscripten.clang"
  },
  "schemaVersion": "3.0.2",
  "updatedAt": "2019-04-07T01:58:43.785Z",
  "devdoc": {
    "methods": {}
  },
  "userdoc": {
    "methods": {}
  }
}