{
  "contractName": "Token",
  "abi": [
    {
      "constant": true,
      "inputs": [],
      "name": "execs_signed",
      "outputs": [
        {
          "name": "",
          "type": "uint256"
        }
      ],
      "payable": false,
      "stateMutability": "view",
      "type": "function"
    },
    {
      "constant": true,
      "inputs": [],
      "name": "name",
      "outputs": [
        {
          "name": "",
          "type": "string"
        }
      ],
      "payable": false,
      "stateMutability": "view",
      "type": "function"
    },
    {
      "constant": true,
      "inputs": [],
      "name": "totalSupply",
      "outputs": [
        {
          "name": "",
          "type": "uint256"
        }
      ],
      "payable": false,
      "stateMutability": "view",
      "type": "function"
    },
    {
      "constant": true,
      "inputs": [],
      "name": "index",
      "outputs": [
        {
          "name": "",
          "type": "uint256"
        }
      ],
      "payable": false,
      "stateMutability": "view",
      "type": "function"
    },
    {
      "constant": true,
      "inputs": [],
      "name": "decimals",
      "outputs": [
        {
          "name": "",
          "type": "uint8"
        }
      ],
      "payable": false,
      "stateMutability": "view",
      "type": "function"
    },
    {
      "constant": true,
      "inputs": [
        {
          "name": "",
          "type": "address"
        }
      ],
      "name": "balanceOf",
      "outputs": [
        {
          "name": "",
          "type": "uint256"
        }
      ],
      "payable": false,
      "stateMutability": "view",
      "type": "function"
    },
    {
      "constant": true,
      "inputs": [],
      "name": "contractBalance",
      "outputs": [
        {
          "name": "",
          "type": "uint256"
        }
      ],
      "payable": false,
      "stateMutability": "view",
      "type": "function"
    },
    {
      "constant": true,
      "inputs": [],
      "name": "owner",
      "outputs": [
        {
          "name": "",
          "type": "address"
        }
      ],
      "payable": false,
      "stateMutability": "view",
      "type": "function"
    },
    {
      "constant": true,
      "inputs": [],
      "name": "symbol",
      "outputs": [
        {
          "name": "",
          "type": "string"
        }
      ],
      "payable": false,
      "stateMutability": "view",
      "type": "function"
    },
    {
      "constant": true,
      "inputs": [],
      "name": "no_signed",
      "outputs": [
        {
          "name": "",
          "type": "uint256"
        }
      ],
      "payable": false,
      "stateMutability": "view",
      "type": "function"
    },
    {
      "constant": true,
      "inputs": [
        {
          "name": "",
          "type": "address"
        }
      ],
      "name": "sign",
      "outputs": [
        {
          "name": "signer",
          "type": "bool"
        }
      ],
      "payable": false,
      "stateMutability": "view",
      "type": "function"
    },
    {
      "constant": true,
      "inputs": [],
      "name": "no_signaturies",
      "outputs": [
        {
          "name": "",
          "type": "uint256"
        }
      ],
      "payable": false,
      "stateMutability": "view",
      "type": "function"
    },
    {
      "inputs": [
        {
          "name": "_initialSupply",
          "type": "uint256"
        }
      ],
      "payable": false,
      "stateMutability": "nonpayable",
      "type": "constructor"
    },
    {
      "anonymous": false,
      "inputs": [
        {
          "indexed": true,
          "name": "_from",
          "type": "address"
        },
        {
          "indexed": true,
          "name": "_to",
          "type": "address"
        },
        {
          "indexed": false,
          "name": "_value",
          "type": "uint256"
        }
      ],
      "name": "Transfer",
      "type": "event"
    },
    {
      "anonymous": false,
      "inputs": [
        {
          "indexed": true,
          "name": "_owner",
          "type": "address"
        },
        {
          "indexed": true,
          "name": "_spender",
          "type": "address"
        },
        {
          "indexed": false,
          "name": "_value",
          "type": "uint256"
        }
      ],
      "name": "Approval",
      "type": "event"
    },
    {
      "anonymous": false,
      "inputs": [
        {
          "indexed": false,
          "name": "treasurer",
          "type": "address"
        },
        {
          "indexed": false,
          "name": "financeOfficer",
          "type": "address"
        },
        {
          "indexed": false,
          "name": "president",
          "type": "address"
        }
      ],
      "name": "SignaturiesCreated",
      "type": "event"
    },
    {
      "anonymous": false,
      "inputs": [
        {
          "indexed": false,
          "name": "signaturies",
          "type": "address[]"
        }
      ],
      "name": "AddSignaturies",
      "type": "event"
    },
    {
      "anonymous": false,
      "inputs": [
        {
          "indexed": false,
          "name": "_contractAddress",
          "type": "address"
        },
        {
          "indexed": false,
          "name": "_receipient",
          "type": "address"
        },
        {
          "indexed": false,
          "name": "_value",
          "type": "uint256"
        }
      ],
      "name": "ApproveTransaction",
      "type": "event"
    },
    {
      "anonymous": false,
      "inputs": [
        {
          "indexed": false,
          "name": "_to",
          "type": "address"
        },
        {
          "indexed": false,
          "name": "_value",
          "type": "uint256"
        }
      ],
      "name": "TransferFrom",
      "type": "event"
    },
    {
      "anonymous": false,
      "inputs": [
        {
          "indexed": false,
          "name": "a",
          "type": "bool"
        }
      ],
      "name": "Data",
      "type": "event"
    },
    {
      "constant": false,
      "inputs": [
        {
          "name": "_to",
          "type": "address"
        },
        {
          "name": "_value",
          "type": "uint256"
        }
      ],
      "name": "transfer",
      "outputs": [
        {
          "name": "success",
          "type": "bool"
        }
      ],
      "payable": false,
      "stateMutability": "nonpayable",
      "type": "function"
    },
    {
      "constant": false,
      "inputs": [
        {
          "name": "_to",
          "type": "address"
        },
        {
          "name": "_value",
          "type": "uint256"
        }
      ],
      "name": "transferFromContract",
      "outputs": [
        {
          "name": "success",
          "type": "bool"
        }
      ],
      "payable": false,
      "stateMutability": "nonpayable",
      "type": "function"
    },
    {
      "constant": false,
      "inputs": [],
      "name": "createTransaction",
      "outputs": [
        {
          "name": "success",
          "type": "bool"
        }
      ],
      "payable": false,
      "stateMutability": "nonpayable",
      "type": "function"
    },
    {
      "constant": false,
      "inputs": [
        {
          "name": "executioner",
          "type": "address"
        },
        {
          "name": "id",
          "type": "uint256"
        },
        {
          "name": "a",
          "type": "address"
        }
      ],
      "name": "signTransaction",
      "outputs": [
        {
          "name": "success",
          "type": "bool"
        }
      ],
      "payable": false,
      "stateMutability": "nonpayable",
      "type": "function"
    },
    {
      "constant": false,
      "inputs": [
        {
          "name": "_contractAddress",
          "type": "address"
        },
        {
          "name": "_receipient",
          "type": "address"
        },
        {
          "name": "_value",
          "type": "uint256"
        },
        {
          "name": "transId",
          "type": "uint256"
        },
        {
          "name": "executioner",
          "type": "address"
        }
      ],
      "name": "approve",
      "outputs": [
        {
          "name": "success",
          "type": "bool"
        }
      ],
      "payable": false,
      "stateMutability": "nonpayable",
      "type": "function"
    },
    {
      "constant": false,
      "inputs": [
        {
          "name": "treasurer",
          "type": "address"
        },
        {
          "name": "financeOfficer",
          "type": "address"
        },
        {
          "name": "president",
          "type": "address"
        }
      ],
      "name": "assignSignaturies",
      "outputs": [
        {
          "name": "success",
          "type": "bool"
        }
      ],
      "payable": false,
      "stateMutability": "nonpayable",
      "type": "function"
    },
    {
      "constant": false,
      "inputs": [
        {
          "name": "signers",
          "type": "address[]"
        }
      ],
      "name": "addSignatory",
      "outputs": [
        {
          "name": "success",
          "type": "bool"
        }
      ],
      "payable": false,
      "stateMutability": "nonpayable",
      "type": "function"
    }
  ],
  "bytecode": "0x60806040526040805190810160405280600881526020017f554d6154436f696e000000000000000000000000000000000000000000000000815250600090805190602001906200005192919062000161565b506040805190810160405280600381526020017f554d430000000000000000000000000000000000000000000000000000000000815250600190805190602001906200009f92919062000161565b506008600260006101000a81548160ff021916908360ff160217905550600060055560006007556000600955348015620000d857600080fd5b50604051602080620017c883398101806040526020811015620000fa57600080fd5b810190808051906020019092919050505033600660006101000a81548173ffffffffffffffffffffffffffffffffffffffff021916908373ffffffffffffffffffffffffffffffffffffffff16021790555080600381905550806008819055505062000210565b828054600181600116156101000203166002900490600052602060002090601f016020900481019282601f10620001a457805160ff1916838001178555620001d5565b82800160010185558215620001d5579182015b82811115620001d4578251825591602001919060010190620001b7565b5b509050620001e49190620001e8565b5090565b6200020d91905b8082111562000209576000816000905550600101620001ef565b5090565b90565b6115a880620002206000396000f3fe608060405260043610610106576000357c0100000000000000000000000000000000000000000000000000000000900463ffffffff168062c4ba041461010b57806306fdde031461013657806318160ddd146101c65780631a88f306146101f15780631a8f6ac0146102645780632986c0e5146102f7578063313ce5671461032257806370a082311461035357806378cdde7d146103b85780638b7afe2e146104955780638da5cb5b146104c057806395d89b411461051757806397b54cc2146105a7578063a9059cbb146105d6578063caa0e43d14610649578063f71be83714610674578063f84617e4146106dd578063fa6ea69a1461079a578063fb40086d14610843575b600080fd5b34801561011757600080fd5b5061012061086e565b6040518082815260200191505060405180910390f35b34801561014257600080fd5b5061014b610874565b6040518080602001828103825283818151815260200191508051906020019080838360005b8381101561018b578082015181840152602081019050610170565b50505050905090810190601f1680156101b85780820380516001836020036101000a031916815260200191505b509250505060405180910390f35b3480156101d257600080fd5b506101db610912565b6040518082815260200191505060405180910390f35b3480156101fd57600080fd5b5061024a6004803603604081101561021457600080fd5b81019080803573ffffffffffffffffffffffffffffffffffffffff16906020019092919080359060200190929190505050610918565b604051808215151515815260200191505060405180910390f35b34801561027057600080fd5b506102dd6004803603606081101561028757600080fd5b81019080803573ffffffffffffffffffffffffffffffffffffffff16906020019092919080359060200190929190803573ffffffffffffffffffffffffffffffffffffffff1690602001909291905050506109fd565b604051808215151515815260200191505060405180910390f35b34801561030357600080fd5b5061030c610b9e565b6040518082815260200191505060405180910390f35b34801561032e57600080fd5b50610337610ba4565b604051808260ff1660ff16815260200191505060405180910390f35b34801561035f57600080fd5b506103a26004803603602081101561037657600080fd5b81019080803573ffffffffffffffffffffffffffffffffffffffff169060200190929190505050610bb7565b6040518082815260200191505060405180910390f35b3480156103c457600080fd5b5061047b600480360360208110156103db57600080fd5b81019080803590602001906401000000008111156103f857600080fd5b82018360208201111561040a57600080fd5b8035906020019184602083028401116401000000008311171561042c57600080fd5b919080806020026020016040519081016040528093929190818152602001838360200280828437600081840152601f19601f820116905080830192505050505050509192919290505050610bcf565b604051808215151515815260200191505060405180910390f35b3480156104a157600080fd5b506104aa610cdb565b6040518082815260200191505060405180910390f35b3480156104cc57600080fd5b506104d5610ce1565b604051808273ffffffffffffffffffffffffffffffffffffffff1673ffffffffffffffffffffffffffffffffffffffff16815260200191505060405180910390f35b34801561052357600080fd5b5061052c610d07565b6040518080602001828103825283818151815260200191508051906020019080838360005b8381101561056c578082015181840152602081019050610551565b50505050905090810190601f1680156105995780820380516001836020036101000a031916815260200191505b509250505060405180910390f35b3480156105b357600080fd5b506105bc610da5565b604051808215151515815260200191505060405180910390f35b3480156105e257600080fd5b5061062f600480360360408110156105f957600080fd5b81019080803573ffffffffffffffffffffffffffffffffffffffff16906020019092919080359060200190929190505050610fdb565b604051808215151515815260200191505060405180910390f35b34801561065557600080fd5b5061065e611134565b6040518082815260200191505060405180910390f35b34801561068057600080fd5b506106c36004803603602081101561069757600080fd5b81019080803573ffffffffffffffffffffffffffffffffffffffff16906020019092919050505061113a565b604051808215151515815260200191505060405180910390f35b3480156106e957600080fd5b50610780600480360360a081101561070057600080fd5b81019080803573ffffffffffffffffffffffffffffffffffffffff169060200190929190803573ffffffffffffffffffffffffffffffffffffffff1690602001909291908035906020019092919080359060200190929190803573ffffffffffffffffffffffffffffffffffffffff169060200190929190505050611165565b604051808215151515815260200191505060405180910390f35b3480156107a657600080fd5b50610829600480360360608110156107bd57600080fd5b81019080803573ffffffffffffffffffffffffffffffffffffffff169060200190929190803573ffffffffffffffffffffffffffffffffffffffff169060200190929190803573ffffffffffffffffffffffffffffffffffffffff1690602001909291905050506112f0565b604051808215151515815260200191505060405180910390f35b34801561084f57600080fd5b506108586114e1565b6040518082815260200191505060405180910390f35b60075481565b60008054600181600116156101000203166002900480601f01602080910402602001604051908101604052809291908181526020018280546001816001161561010002031660029004801561090a5780601f106108df5761010080835404028352916020019161090a565b820191906000526020600020905b8154815290600101906020018083116108ed57829003601f168201915b505050505081565b60035481565b6000816008541015151561092b57600080fd5b8160086000828254039250508190555081600e60008573ffffffffffffffffffffffffffffffffffffffff1673ffffffffffffffffffffffffffffffffffffffff168152602001908152602001600020600082825401925050819055507f58becdf9a931dd5ffd26ec2dde1ceab1683ffc0744ebd71f33267bc4406cc8478383604051808373ffffffffffffffffffffffffffffffffffffffff1673ffffffffffffffffffffffffffffffffffffffff1681526020018281526020019250505060405180910390a16001905092915050565b600060011515600f60003373ffffffffffffffffffffffffffffffffffffffff1673ffffffffffffffffffffffffffffffffffffffff16815260200190815260200160002060000160009054906101000a900460ff161515141515610a6157600080fd5b600f60008573ffffffffffffffffffffffffffffffffffffffff1673ffffffffffffffffffffffffffffffffffffffff16815260200190815260200160002060010183815481101515610ab057fe5b90600052602060002090600402016002018290806001815401808255809150509060018203906000526020600020016000909192909190916101000a81548173ffffffffffffffffffffffffffffffffffffffff021916908373ffffffffffffffffffffffffffffffffffffffff16021790555050600f60008573ffffffffffffffffffffffffffffffffffffffff1673ffffffffffffffffffffffffffffffffffffffff16815260200190815260200160002060010183815481101515610b7457fe5b90600052602060002090600402016001016000815460010191905081905550600190509392505050565b60095481565b600260009054906101000a900460ff1681565b600e6020528060005260406000206000915090505481565b6000808251905060008090505b81811015610c4857600f60008583815181101515610bf657fe5b9060200190602002015173ffffffffffffffffffffffffffffffffffffffff1673ffffffffffffffffffffffffffffffffffffffff168152602001908152602001600020508080600101915050610bdc565b50806004600082825401925050819055507f28b9850d7271e5258efeee5c16852dd3183a05db1d791f16f171dbe44eecf1bf836040518080602001828103825283818151815260200191508051906020019060200280838360005b83811015610cbe578082015181840152602081019050610ca3565b505050509050019250505060405180910390a16001915050919050565b60085481565b600660009054906101000a900473ffffffffffffffffffffffffffffffffffffffff1681565b60018054600181600116156101000203166002900480601f016020809104026020016040519081016040528092919081815260200182805460018160011615610100020316600290048015610d9d5780601f10610d7257610100808354040283529160200191610d9d565b820191906000526020600020905b815481529060010190602001808311610d8057829003601f168201915b505050505081565b600060011515600f60003373ffffffffffffffffffffffffffffffffffffffff1673ffffffffffffffffffffffffffffffffffffffff16815260200190815260200160002060000160009054906101000a900460ff161515141515610e0957600080fd5b600160095401600a600001819055506001600a60010181905550600a6002013390806001815401808255809150509060018203906000526020600020016000909192909190916101000a81548173ffffffffffffffffffffffffffffffffffffffff021916908373ffffffffffffffffffffffffffffffffffffffff1602179055505033600a60030160006101000a81548173ffffffffffffffffffffffffffffffffffffffff021916908373ffffffffffffffffffffffffffffffffffffffff160217905550600f60003373ffffffffffffffffffffffffffffffffffffffff1673ffffffffffffffffffffffffffffffffffffffff168152602001908152602001600020600101600a9080600181540180825580915050906001820390600052602060002090600402016000909192909190915060008201548160000155600182015481600101556002820181600201908054610f699291906114e7565b506003820160009054906101000a900473ffffffffffffffffffffffffffffffffffffffff168160030160006101000a81548173ffffffffffffffffffffffffffffffffffffffff021916908373ffffffffffffffffffffffffffffffffffffffff1602179055505050506001905090565b600081600e60003373ffffffffffffffffffffffffffffffffffffffff1673ffffffffffffffffffffffffffffffffffffffff168152602001908152602001600020541015151561102b57600080fd5b81600e60003373ffffffffffffffffffffffffffffffffffffffff1673ffffffffffffffffffffffffffffffffffffffff1681526020019081526020016000206000828254039250508190555081600e60008573ffffffffffffffffffffffffffffffffffffffff1673ffffffffffffffffffffffffffffffffffffffff168152602001908152602001600020600082825401925050819055508273ffffffffffffffffffffffffffffffffffffffff163373ffffffffffffffffffffffffffffffffffffffff167fddf252ad1be2c89b69c2b068fc378daa952ba7f163c4a11628f55a4df523b3ef846040518082815260200191505060405180910390a36001905092915050565b60055481565b600f6020528060005260406000206000915090508060000160009054906101000a900460ff16905081565b600060011515600f60003373ffffffffffffffffffffffffffffffffffffffff1673ffffffffffffffffffffffffffffffffffffffff16815260200190815260200160002060000160009054906101000a900460ff1615151415156111c957600080fd5b600454600f60008473ffffffffffffffffffffffffffffffffffffffff1673ffffffffffffffffffffffffffffffffffffffff1681526020019081526020016000206001018481548110151561121b57fe5b90600052602060002090600402016001015414151561123957600080fd5b6112438585610918565b507ffd3e2035cd4b82435ab9216a224c21a535587ce9d4c25298c6508917093b0c50868686604051808473ffffffffffffffffffffffffffffffffffffffff1673ffffffffffffffffffffffffffffffffffffffff1681526020018373ffffffffffffffffffffffffffffffffffffffff1673ffffffffffffffffffffffffffffffffffffffff168152602001828152602001935050505060405180910390a16000905095945050505050565b60006001600f60008673ffffffffffffffffffffffffffffffffffffffff1673ffffffffffffffffffffffffffffffffffffffff16815260200190815260200160002060000160006101000a81548160ff0219169083151502179055506001600f60008573ffffffffffffffffffffffffffffffffffffffff1673ffffffffffffffffffffffffffffffffffffffff16815260200190815260200160002060000160006101000a81548160ff0219169083151502179055506001600f60008473ffffffffffffffffffffffffffffffffffffffff1673ffffffffffffffffffffffffffffffffffffffff16815260200190815260200160002060000160006101000a81548160ff02191690831515021790555060036004819055507f90c5757fc4fa5d1822eb62f02567da41c848dcecb5cfe2e69ece7fd12f60f890848484604051808473ffffffffffffffffffffffffffffffffffffffff1673ffffffffffffffffffffffffffffffffffffffff1681526020018373ffffffffffffffffffffffffffffffffffffffff1673ffffffffffffffffffffffffffffffffffffffff1681526020018273ffffffffffffffffffffffffffffffffffffffff1673ffffffffffffffffffffffffffffffffffffffff168152602001935050505060405180910390a1600190509392505050565b60045481565b8280548282559060005260206000209081019282156115285760005260206000209182015b8281111561152757825482559160010191906001019061150c565b5b5090506115359190611539565b5090565b61157991905b8082111561157557600081816101000a81549073ffffffffffffffffffffffffffffffffffffffff02191690555060010161153f565b5090565b9056fea165627a7a723058206f1305b6b4e79a9e571fb001c39b1a503584ccc64d28ceae75aecedaf9a34cea0029",
  "source": "\r\npragma solidity >=0.4.7 <0.6.0;\r\n\r\ncontract Token{\r\n\r\n    struct signaturies{\r\n        bool signer;\r\n        // uint index;\r\n        transactions [] transaction;\r\n    }\r\n\r\n    struct transactions{\r\n        uint256 id;\r\n        uint no_signed;\r\n        address [] signed;\r\n        address executioner;\r\n    }\r\n\r\n    string public name = \"UMaTCoin\";\r\n    string public symbol = \"UMC\";\r\n    uint8 public decimals = 8;\r\n    uint256 public totalSupply;\r\n    uint public no_signaturies;\r\n    uint public no_signed=0;\r\n    address public owner;\r\n    uint public execs_signed = 0;\r\n    uint256 public contractBalance;\r\n    uint256 public index=0;\r\n    transactions trans;\r\n\r\n    //events\r\n    event Transfer(address indexed _from, address indexed _to, uint256 _value);\r\n    event Approval(address indexed _owner, address indexed _spender, uint256 _value);\r\n    event SignaturiesCreated(address treasurer,address financeOfficer, address president);\r\n    event AddSignaturies(address[] signaturies);\r\n    event ApproveTransaction(address _contractAddress, address _receipient, uint256 _value);\r\n    event TransferFrom(address _to, uint256 _value);\r\n    event Data(bool a);\r\n    \r\n    mapping(address => uint256) public balanceOf;\r\n    mapping(address => signaturies) public sign;\r\n\r\n    constructor(uint256 _initialSupply) public {\r\n        owner = msg.sender;\r\n        // balanceOf[owner] = _initialSupply;\r\n        totalSupply = _initialSupply;\r\n        contractBalance = _initialSupply;\r\n    }\r\n    \r\n\r\n    // modifier for only signaturies\r\n    modifier signersOnly{\r\n        require(sign[msg.sender].signer==true);\r\n        _;    \r\n    }\r\n\r\n    modifier signedOnly(uint transId){\r\n        require(sign[msg.sender].transaction[transId].no_signed == no_signaturies);\r\n        _;    \r\n    }\r\n\r\n    \r\n\r\n    // transfer from current address to another address {Not really required since transaction is from contract address to 'to' address}\r\n    function transfer(address _to, uint256 _value) public returns (bool success){\r\n        //check for enough funds b4 transfer\r\n        require(balanceOf[msg.sender]>=_value);\r\n        //Subtract from current balance\r\n        balanceOf[msg.sender]-=_value;\r\n        //Transfer amount\r\n        balanceOf[_to] += _value;\r\n\r\n        emit Transfer(msg.sender,_to,_value);\r\n        return true;\r\n    }\r\n\r\n    // transfer from contract address to specified address\r\n    function transferFromContract(address _to, uint256 _value) public returns (bool success){\r\n\r\n        require(contractBalance >= _value);\r\n        contractBalance -= _value;\r\n        balanceOf[_to] += _value;\r\n        emit TransferFrom(_to,_value);\r\n        return true; \r\n    }\r\n    \r\n    function createTransaction() public signersOnly returns(bool success){\r\n        // trans = transactions(index+1,1,[msg.sender],msg.sender);\r\n        trans.id = index+1;\r\n        trans.no_signed=1;\r\n        trans.signed.push(msg.sender);\r\n        trans.executioner = msg.sender;\r\n        sign[msg.sender].transaction.push(trans);\r\n        return true;\r\n    }\r\n\r\n    function signTransaction(address executioner, uint id,address a) public signersOnly returns (bool success){\r\n        sign[executioner].transaction[id].signed.push(a);\r\n        ++sign[executioner].transaction[id].no_signed;\r\n        return true;\r\n    }\r\n\r\n    function approve (address _contractAddress, address _receipient, uint256 _value, uint transId, address executioner) public signersOnly returns (bool success){\r\n        require(sign[executioner].transaction[transId].no_signed == no_signaturies);\r\n        transferFromContract(_receipient, _value);\r\n        emit ApproveTransaction(_contractAddress, _receipient, _value);\r\n        return false;\r\n    }\r\n\r\n    // function allowance(address _owner, address _spender) public view returns (uint256 remaining){\r\n\r\n    // }\r\n\r\n    function assignSignaturies(address treasurer, address financeOfficer, address president) public returns (bool success) {\r\n        sign[treasurer].signer=true;\r\n        sign[financeOfficer].signer=true;\r\n        sign[president].signer=true;\r\n        no_signaturies = 3;\r\n        emit SignaturiesCreated(treasurer,financeOfficer, president);\r\n        return true;\r\n    }\r\n\r\n    function addSignatory(address[] memory signers) public returns (bool success) {\r\n\r\n        uint len = signers.length;\r\n\r\n        for(uint i = 0; i < len; i++){\r\n            sign[signers[i]];\r\n        }\r\n        no_signaturies += len; \r\n        emit AddSignaturies(signers);\r\n        return true;\r\n    }\r\n\r\n}",
  "sourcePath": "C:/xampp/htdocs/Fintech/src/ledger/contracts/Token.sol",
  "compiler": {
    "name": "solc",
    "version": "0.5.0+commit.1d4f565a.Emscripten.clang"
  },
  "schemaVersion": "3.0.2",
  "updatedAt": "2019-03-26T09:57:06.956Z",
  "devdoc": {
    "methods": {}
  },
  "userdoc": {
    "methods": {}
  }
}