{
  "contractName": "Token",
  "abi": [
    {
      "constant": true,
      "inputs": [],
      "name": "execs_signed",
      "outputs": [
        {
          "name": "",
          "type": "uint256"
        }
      ],
      "payable": false,
      "stateMutability": "view",
      "type": "function",
      "signature": "0x00c4ba04"
    },
    {
      "constant": true,
      "inputs": [],
      "name": "name",
      "outputs": [
        {
          "name": "",
          "type": "string"
        }
      ],
      "payable": false,
      "stateMutability": "view",
      "type": "function",
      "signature": "0x06fdde03"
    },
    {
      "constant": true,
      "inputs": [],
      "name": "totalSupply",
      "outputs": [
        {
          "name": "",
          "type": "uint256"
        }
      ],
      "payable": false,
      "stateMutability": "view",
      "type": "function",
      "signature": "0x18160ddd"
    },
    {
      "constant": true,
      "inputs": [],
      "name": "decimals",
      "outputs": [
        {
          "name": "",
          "type": "uint8"
        }
      ],
      "payable": false,
      "stateMutability": "view",
      "type": "function",
      "signature": "0x313ce567"
    },
    {
      "constant": true,
      "inputs": [
        {
          "name": "",
          "type": "uint256"
        }
      ],
      "name": "signaturesAuthorized",
      "outputs": [
        {
          "name": "",
          "type": "address"
        }
      ],
      "payable": false,
      "stateMutability": "view",
      "type": "function",
      "signature": "0x37c2b8da"
    },
    {
      "constant": true,
      "inputs": [
        {
          "name": "",
          "type": "uint256"
        }
      ],
      "name": "pendingTransactions",
      "outputs": [
        {
          "name": "id",
          "type": "uint256"
        },
        {
          "name": "no_signed",
          "type": "uint256"
        },
        {
          "name": "signed1",
          "type": "address"
        },
        {
          "name": "signed2",
          "type": "address"
        },
        {
          "name": "signed3",
          "type": "address"
        },
        {
          "name": "executioner",
          "type": "address"
        },
        {
          "name": "purpose",
          "type": "string"
        },
        {
          "name": "amount",
          "type": "uint256"
        },
        {
          "name": "to",
          "type": "address"
        },
        {
          "name": "txHash",
          "type": "string"
        },
        {
          "name": "index",
          "type": "uint256"
        }
      ],
      "payable": false,
      "stateMutability": "view",
      "type": "function",
      "signature": "0x63a8374d"
    },
    {
      "constant": true,
      "inputs": [
        {
          "name": "",
          "type": "uint256"
        }
      ],
      "name": "signedTransactions",
      "outputs": [
        {
          "name": "id",
          "type": "uint256"
        },
        {
          "name": "no_signed",
          "type": "uint256"
        },
        {
          "name": "signed1",
          "type": "address"
        },
        {
          "name": "signed2",
          "type": "address"
        },
        {
          "name": "signed3",
          "type": "address"
        },
        {
          "name": "executioner",
          "type": "address"
        },
        {
          "name": "purpose",
          "type": "string"
        },
        {
          "name": "amount",
          "type": "uint256"
        },
        {
          "name": "to",
          "type": "address"
        },
        {
          "name": "txHash",
          "type": "string"
        },
        {
          "name": "index",
          "type": "uint256"
        }
      ],
      "payable": false,
      "stateMutability": "view",
      "type": "function",
      "signature": "0x63d30367"
    },
    {
      "constant": true,
      "inputs": [
        {
          "name": "",
          "type": "address"
        }
      ],
      "name": "balanceOf",
      "outputs": [
        {
          "name": "",
          "type": "uint256"
        }
      ],
      "payable": false,
      "stateMutability": "view",
      "type": "function",
      "signature": "0x70a08231"
    },
    {
      "constant": true,
      "inputs": [],
      "name": "contractBalance",
      "outputs": [
        {
          "name": "",
          "type": "uint256"
        }
      ],
      "payable": false,
      "stateMutability": "view",
      "type": "function",
      "signature": "0x8b7afe2e"
    },
    {
      "constant": true,
      "inputs": [],
      "name": "owner",
      "outputs": [
        {
          "name": "",
          "type": "address"
        }
      ],
      "payable": false,
      "stateMutability": "view",
      "type": "function",
      "signature": "0x8da5cb5b"
    },
    {
      "constant": true,
      "inputs": [],
      "name": "symbol",
      "outputs": [
        {
          "name": "",
          "type": "string"
        }
      ],
      "payable": false,
      "stateMutability": "view",
      "type": "function",
      "signature": "0x95d89b41"
    },
    {
      "constant": true,
      "inputs": [],
      "name": "no_signed",
      "outputs": [
        {
          "name": "",
          "type": "uint256"
        }
      ],
      "payable": false,
      "stateMutability": "view",
      "type": "function",
      "signature": "0xcaa0e43d"
    },
    {
      "constant": true,
      "inputs": [
        {
          "name": "",
          "type": "uint256"
        }
      ],
      "name": "allTransactions",
      "outputs": [
        {
          "name": "id",
          "type": "uint256"
        },
        {
          "name": "no_signed",
          "type": "uint256"
        },
        {
          "name": "signed1",
          "type": "address"
        },
        {
          "name": "signed2",
          "type": "address"
        },
        {
          "name": "signed3",
          "type": "address"
        },
        {
          "name": "executioner",
          "type": "address"
        },
        {
          "name": "purpose",
          "type": "string"
        },
        {
          "name": "amount",
          "type": "uint256"
        },
        {
          "name": "to",
          "type": "address"
        },
        {
          "name": "txHash",
          "type": "string"
        },
        {
          "name": "index",
          "type": "uint256"
        }
      ],
      "payable": false,
      "stateMutability": "view",
      "type": "function",
      "signature": "0xd7ff0714"
    },
    {
      "constant": true,
      "inputs": [
        {
          "name": "",
          "type": "address"
        }
      ],
      "name": "sign",
      "outputs": [
        {
          "name": "signer",
          "type": "bool"
        },
        {
          "name": "index",
          "type": "uint256"
        }
      ],
      "payable": false,
      "stateMutability": "view",
      "type": "function",
      "signature": "0xf71be837"
    },
    {
      "constant": true,
      "inputs": [],
      "name": "no_signaturies",
      "outputs": [
        {
          "name": "",
          "type": "uint256"
        }
      ],
      "payable": false,
      "stateMutability": "view",
      "type": "function",
      "signature": "0xfb40086d"
    },
    {
      "inputs": [
        {
          "name": "_initialSupply",
          "type": "uint256"
        },
        {
          "name": "treasurer",
          "type": "address"
        },
        {
          "name": "financeOfficer",
          "type": "address"
        },
        {
          "name": "president",
          "type": "address"
        }
      ],
      "payable": false,
      "stateMutability": "nonpayable",
      "type": "constructor",
      "signature": "constructor"
    },
    {
      "anonymous": false,
      "inputs": [
        {
          "indexed": true,
          "name": "_from",
          "type": "address"
        },
        {
          "indexed": true,
          "name": "_to",
          "type": "address"
        },
        {
          "indexed": false,
          "name": "_value",
          "type": "uint256"
        }
      ],
      "name": "Transfer",
      "type": "event",
      "signature": "0xddf252ad1be2c89b69c2b068fc378daa952ba7f163c4a11628f55a4df523b3ef"
    },
    {
      "anonymous": false,
      "inputs": [
        {
          "indexed": true,
          "name": "_owner",
          "type": "address"
        },
        {
          "indexed": true,
          "name": "_spender",
          "type": "address"
        },
        {
          "indexed": false,
          "name": "_value",
          "type": "uint256"
        }
      ],
      "name": "Approval",
      "type": "event",
      "signature": "0x8c5be1e5ebec7d5bd14f71427d1e84f3dd0314c0f7b2291e5b200ac8c7c3b925"
    },
    {
      "anonymous": false,
      "inputs": [
        {
          "indexed": false,
          "name": "treasurer",
          "type": "address"
        },
        {
          "indexed": false,
          "name": "financeOfficer",
          "type": "address"
        },
        {
          "indexed": false,
          "name": "president",
          "type": "address"
        }
      ],
      "name": "SignaturiesCreated",
      "type": "event",
      "signature": "0x90c5757fc4fa5d1822eb62f02567da41c848dcecb5cfe2e69ece7fd12f60f890"
    },
    {
      "anonymous": false,
      "inputs": [
        {
          "indexed": false,
          "name": "signaturies",
          "type": "address[]"
        }
      ],
      "name": "AddSignaturies",
      "type": "event",
      "signature": "0x28b9850d7271e5258efeee5c16852dd3183a05db1d791f16f171dbe44eecf1bf"
    },
    {
      "anonymous": false,
      "inputs": [
        {
          "indexed": false,
          "name": "_to",
          "type": "address"
        },
        {
          "indexed": false,
          "name": "_value",
          "type": "uint256"
        }
      ],
      "name": "TransferFrom",
      "type": "event",
      "signature": "0x58becdf9a931dd5ffd26ec2dde1ceab1683ffc0744ebd71f33267bc4406cc847"
    },
    {
      "anonymous": false,
      "inputs": [
        {
          "indexed": false,
          "name": "a",
          "type": "bool"
        }
      ],
      "name": "Data",
      "type": "event",
      "signature": "0xd4484901664f2f8511b28f987d546116a8e952222d68e609f78edc24d992b031"
    },
    {
      "anonymous": false,
      "inputs": [
        {
          "indexed": false,
          "name": "id",
          "type": "uint256"
        },
        {
          "indexed": false,
          "name": "no_signed",
          "type": "uint256"
        },
        {
          "indexed": false,
          "name": "signed",
          "type": "address"
        },
        {
          "indexed": false,
          "name": "executioner",
          "type": "address"
        }
      ],
      "name": "TransactionDet",
      "type": "event",
      "signature": "0x9fd4c058a57966e900e70822af82d2219c92a57a2b87fe913bd286659cff32a3"
    },
    {
      "anonymous": false,
      "inputs": [
        {
          "indexed": false,
          "name": "id",
          "type": "uint256"
        },
        {
          "indexed": false,
          "name": "no_signed",
          "type": "uint256"
        },
        {
          "indexed": false,
          "name": "signed",
          "type": "address[]"
        },
        {
          "indexed": false,
          "name": "executioner",
          "type": "address"
        },
        {
          "indexed": false,
          "name": "purpose",
          "type": "string"
        },
        {
          "indexed": false,
          "name": "amount",
          "type": "uint256"
        },
        {
          "indexed": false,
          "name": "to",
          "type": "address"
        },
        {
          "indexed": false,
          "name": "txHash",
          "type": "bytes"
        }
      ],
      "name": "PendingTransaction",
      "type": "event",
      "signature": "0x37d978715a7d425ceffbfa6de923ba8f2c8191ef956e4bcde26ad892a8c9ade5"
    },
    {
      "anonymous": false,
      "inputs": [
        {
          "indexed": false,
          "name": "t",
          "type": "uint256"
        }
      ],
      "name": "Ts",
      "type": "event",
      "signature": "0x9f13dff2a19a1998adb10caae98c6c2805e6fd43318bd120872ceda7582c57e9"
    },
    {
      "anonymous": false,
      "inputs": [
        {
          "indexed": false,
          "name": "a",
          "type": "uint256"
        }
      ],
      "name": "Ac",
      "type": "event",
      "signature": "0x08344ac47d76f512919e64a1153de5e6a3eee7e95b9559d4c2f324aed36260e4"
    },
    {
      "constant": false,
      "inputs": [
        {
          "name": "_to",
          "type": "address"
        },
        {
          "name": "_value",
          "type": "uint256"
        }
      ],
      "name": "transfer",
      "outputs": [
        {
          "name": "success",
          "type": "bool"
        }
      ],
      "payable": false,
      "stateMutability": "nonpayable",
      "type": "function",
      "signature": "0xa9059cbb"
    },
    {
      "constant": false,
      "inputs": [
        {
          "name": "_to",
          "type": "address"
        },
        {
          "name": "_value",
          "type": "uint256"
        }
      ],
      "name": "transferFrom",
      "outputs": [
        {
          "name": "success",
          "type": "bool"
        }
      ],
      "payable": false,
      "stateMutability": "nonpayable",
      "type": "function",
      "signature": "0x01c6adc3"
    },
    {
      "constant": false,
      "inputs": [
        {
          "name": "purpose",
          "type": "string"
        },
        {
          "name": "amount",
          "type": "uint256"
        },
        {
          "name": "to",
          "type": "address"
        }
      ],
      "name": "createTransaction",
      "outputs": [
        {
          "name": "success",
          "type": "bool"
        }
      ],
      "payable": false,
      "stateMutability": "nonpayable",
      "type": "function",
      "signature": "0x9172dbc8"
    },
    {
      "constant": false,
      "inputs": [
        {
          "name": "executioner",
          "type": "address"
        },
        {
          "name": "id",
          "type": "uint256"
        }
      ],
      "name": "signTransaction",
      "outputs": [
        {
          "name": "success",
          "type": "bool"
        }
      ],
      "payable": false,
      "stateMutability": "nonpayable",
      "type": "function",
      "signature": "0xd7d4d2b9"
    },
    {
      "constant": false,
      "inputs": [
        {
          "name": "treasurer",
          "type": "address"
        },
        {
          "name": "financeOfficer",
          "type": "address"
        },
        {
          "name": "president",
          "type": "address"
        }
      ],
      "name": "assignSignaturies",
      "outputs": [
        {
          "name": "success",
          "type": "bool"
        }
      ],
      "payable": false,
      "stateMutability": "nonpayable",
      "type": "function",
      "signature": "0xfa6ea69a"
    },
    {
      "constant": false,
      "inputs": [
        {
          "name": "signers",
          "type": "address[]"
        }
      ],
      "name": "addSignatory",
      "outputs": [
        {
          "name": "success",
          "type": "bool"
        }
      ],
      "payable": false,
      "stateMutability": "nonpayable",
      "type": "function",
      "signature": "0x78cdde7d"
    },
    {
      "constant": false,
      "inputs": [
        {
          "name": "receipt",
          "type": "string"
        }
      ],
      "name": "saveReceipt",
      "outputs": [
        {
          "name": "successs",
          "type": "bool"
        }
      ],
      "payable": false,
      "stateMutability": "nonpayable",
      "type": "function",
      "signature": "0x9350b0e5"
    },
    {
      "constant": false,
      "inputs": [],
      "name": "viewSignedTransactions",
      "outputs": [
        {
          "name": "success",
          "type": "bool"
        }
      ],
      "payable": false,
      "stateMutability": "nonpayable",
      "type": "function",
      "signature": "0x4ea49588"
    },
    {
      "constant": false,
      "inputs": [],
      "name": "viewPendingTransactions",
      "outputs": [
        {
          "name": "success",
          "type": "bool"
        }
      ],
      "payable": false,
      "stateMutability": "nonpayable",
      "type": "function",
      "signature": "0xafe45c32"
    },
    {
      "constant": true,
      "inputs": [],
      "name": "pendingTransactionsLength",
      "outputs": [
        {
          "name": "length",
          "type": "uint256"
        }
      ],
      "payable": false,
      "stateMutability": "view",
      "type": "function",
      "signature": "0xdcbda81a"
    },
    {
      "constant": true,
      "inputs": [],
      "name": "signedTransactionsLength",
      "outputs": [
        {
          "name": "length",
          "type": "uint256"
        }
      ],
      "payable": false,
      "stateMutability": "view",
      "type": "function",
      "signature": "0xda14a408"
    }
  ],
  "bytecode": "0x60806040526040805190810160405280600881526020017f554d6154436f696e0000000000000000000000000000000000000000000000008152506000908051906020019062000051929190620007a6565b506040805190810160405280600381526020017f554d430000000000000000000000000000000000000000000000000000000000815250600190805190602001906200009f929190620007a6565b506008600260006101000a81548160ff021916908360ff160217905550600060055560006007556000600955348015620000d857600080fd5b50604051608080620045b183398101806040526080811015620000fa57600080fd5b810190808051906020019092919080519060200190929190805190602001909291908051906020019092919050505033600660006101000a81548173ffffffffffffffffffffffffffffffffffffffff021916908373ffffffffffffffffffffffffffffffffffffffff1602179055506107d060196000600660009054906101000a900473ffffffffffffffffffffffffffffffffffffffff1673ffffffffffffffffffffffffffffffffffffffff1673ffffffffffffffffffffffffffffffffffffffff168152602001908152602001600020819055508360038190555083600881905550620001fc83838362000207640100000000026401000000009004565b5050505050620009c0565b60006001601a60008673ffffffffffffffffffffffffffffffffffffffff1673ffffffffffffffffffffffffffffffffffffffff16815260200190815260200160002060000160006101000a81548160ff0219169083151502179055506001601a60003373ffffffffffffffffffffffffffffffffffffffff1673ffffffffffffffffffffffffffffffffffffffff1681526020019081526020016000206001015401604051908082528060200260200182016040528015620002df57816020015b6060815260200190600190039081620002c95790505b50601a60008673ffffffffffffffffffffffffffffffffffffffff1673ffffffffffffffffffffffffffffffffffffffff1681526020019081526020016000206003019080519060200190620003379291906200082d565b506001601a60008573ffffffffffffffffffffffffffffffffffffffff1673ffffffffffffffffffffffffffffffffffffffff16815260200190815260200160002060000160006101000a81548160ff0219169083151502179055506001601a60003373ffffffffffffffffffffffffffffffffffffffff1673ffffffffffffffffffffffffffffffffffffffff16815260200190815260200160002060010154016040519080825280602002602001820160405280156200040e57816020015b6060815260200190600190039081620003f85790505b50601a60008573ffffffffffffffffffffffffffffffffffffffff1673ffffffffffffffffffffffffffffffffffffffff1681526020019081526020016000206003019080519060200190620004669291906200082d565b506001601a60008473ffffffffffffffffffffffffffffffffffffffff1673ffffffffffffffffffffffffffffffffffffffff16815260200190815260200160002060000160006101000a81548160ff0219169083151502179055506001601a60003373ffffffffffffffffffffffffffffffffffffffff1673ffffffffffffffffffffffffffffffffffffffff16815260200190815260200160002060010154016040519080825280602002602001820160405280156200053d57816020015b6060815260200190600190039081620005275790505b50601a60008473ffffffffffffffffffffffffffffffffffffffff1673ffffffffffffffffffffffffffffffffffffffff1681526020019081526020016000206003019080519060200190620005959291906200082d565b50600a8490806001815401808255809150509060018203906000526020600020016000909192909190916101000a81548173ffffffffffffffffffffffffffffffffffffffff021916908373ffffffffffffffffffffffffffffffffffffffff16021790555050600a8390806001815401808255809150509060018203906000526020600020016000909192909190916101000a81548173ffffffffffffffffffffffffffffffffffffffff021916908373ffffffffffffffffffffffffffffffffffffffff16021790555050600a8290806001815401808255809150509060018203906000526020600020016000909192909190916101000a81548173ffffffffffffffffffffffffffffffffffffffff021916908373ffffffffffffffffffffffffffffffffffffffff1602179055505060036004819055507f90c5757fc4fa5d1822eb62f02567da41c848dcecb5cfe2e69ece7fd12f60f890848484604051808473ffffffffffffffffffffffffffffffffffffffff1673ffffffffffffffffffffffffffffffffffffffff1681526020018373ffffffffffffffffffffffffffffffffffffffff1673ffffffffffffffffffffffffffffffffffffffff1681526020018273ffffffffffffffffffffffffffffffffffffffff1673ffffffffffffffffffffffffffffffffffffffff168152602001935050505060405180910390a1600190509392505050565b828054600181600116156101000203166002900490600052602060002090601f016020900481019282601f10620007e957805160ff19168380011785556200081a565b828001600101855582156200081a579182015b8281111562000819578251825591602001919060010190620007fc565b5b50905062000829919062000894565b5090565b82805482825590600052602060002090810192821562000881579160200282015b82811115620008805782518290805190602001906200086f929190620008bc565b50916020019190600101906200084e565b5b50905062000890919062000943565b5090565b620008b991905b80821115620008b55760008160009055506001016200089b565b5090565b90565b828054600181600116156101000203166002900490600052602060002090601f016020900481019282601f10620008ff57805160ff191683800117855562000930565b8280016001018555821562000930579182015b828111156200092f57825182559160200191906001019062000912565b5b5090506200093f919062000894565b5090565b6200097191905b808211156200096d576000818162000963919062000974565b506001016200094a565b5090565b90565b50805460018160011615610100020316600290046000825580601f106200099c5750620009bd565b601f016020900490600052602060002090810190620009bc919062000894565b5b50565b613be180620009d06000396000f3fe608060405260043610610153576000357c0100000000000000000000000000000000000000000000000000000000900463ffffffff168062c4ba041461015857806301c6adc31461018357806306fdde03146101f657806318160ddd14610286578063313ce567146102b157806337c2b8da146102e25780634ea495881461035d57806363a8374d1461038c57806363d30367146105c757806370a082311461080257806378cdde7d146108675780638b7afe2e146109445780638da5cb5b1461096f5780639172dbc8146109c65780639350b0e514610ad057806395d89b4114610bb0578063a9059cbb14610c40578063afe45c3214610cb3578063caa0e43d14610ce2578063d7d4d2b914610d0d578063d7ff071414610d80578063da14a40814610fbb578063dcbda81a14610fe6578063f71be83714611011578063fa6ea69a14611081578063fb40086d1461112a575b600080fd5b34801561016457600080fd5b5061016d611155565b6040518082815260200191505060405180910390f35b34801561018f57600080fd5b506101dc600480360360408110156101a657600080fd5b81019080803573ffffffffffffffffffffffffffffffffffffffff1690602001909291908035906020019092919050505061115b565b604051808215151515815260200191505060405180910390f35b34801561020257600080fd5b5061020b611240565b6040518080602001828103825283818151815260200191508051906020019080838360005b8381101561024b578082015181840152602081019050610230565b50505050905090810190601f1680156102785780820380516001836020036101000a031916815260200191505b509250505060405180910390f35b34801561029257600080fd5b5061029b6112de565b6040518082815260200191505060405180910390f35b3480156102bd57600080fd5b506102c66112e4565b604051808260ff1660ff16815260200191505060405180910390f35b3480156102ee57600080fd5b5061031b6004803603602081101561030557600080fd5b81019080803590602001909291905050506112f7565b604051808273ffffffffffffffffffffffffffffffffffffffff1673ffffffffffffffffffffffffffffffffffffffff16815260200191505060405180910390f35b34801561036957600080fd5b50610372611335565b604051808215151515815260200191505060405180910390f35b34801561039857600080fd5b506103c5600480360360208110156103af57600080fd5b810190808035906020019092919050505061133e565b604051808c81526020018b81526020018a73ffffffffffffffffffffffffffffffffffffffff1673ffffffffffffffffffffffffffffffffffffffff1681526020018973ffffffffffffffffffffffffffffffffffffffff1673ffffffffffffffffffffffffffffffffffffffff1681526020018873ffffffffffffffffffffffffffffffffffffffff1673ffffffffffffffffffffffffffffffffffffffff1681526020018773ffffffffffffffffffffffffffffffffffffffff1673ffffffffffffffffffffffffffffffffffffffff168152602001806020018681526020018573ffffffffffffffffffffffffffffffffffffffff1673ffffffffffffffffffffffffffffffffffffffff16815260200180602001848152602001838103835288818151815260200191508051906020019080838360005b8381101561051b578082015181840152602081019050610500565b50505050905090810190601f1680156105485780820380516001836020036101000a031916815260200191505b50838103825285818151815260200191508051906020019080838360005b83811015610581578082015181840152602081019050610566565b50505050905090810190601f1680156105ae5780820380516001836020036101000a031916815260200191505b509d505050505050505050505050505060405180910390f35b3480156105d357600080fd5b50610600600480360360208110156105ea57600080fd5b8101908080359060200190929190505050611577565b604051808c81526020018b81526020018a73ffffffffffffffffffffffffffffffffffffffff1673ffffffffffffffffffffffffffffffffffffffff1681526020018973ffffffffffffffffffffffffffffffffffffffff1673ffffffffffffffffffffffffffffffffffffffff1681526020018873ffffffffffffffffffffffffffffffffffffffff1673ffffffffffffffffffffffffffffffffffffffff1681526020018773ffffffffffffffffffffffffffffffffffffffff1673ffffffffffffffffffffffffffffffffffffffff168152602001806020018681526020018573ffffffffffffffffffffffffffffffffffffffff1673ffffffffffffffffffffffffffffffffffffffff16815260200180602001848152602001838103835288818151815260200191508051906020019080838360005b8381101561075657808201518184015260208101905061073b565b50505050905090810190601f1680156107835780820380516001836020036101000a031916815260200191505b50838103825285818151815260200191508051906020019080838360005b838110156107bc5780820151818401526020810190506107a1565b50505050905090810190601f1680156107e95780820380516001836020036101000a031916815260200191505b509d505050505050505050505050505060405180910390f35b34801561080e57600080fd5b506108516004803603602081101561082557600080fd5b81019080803573ffffffffffffffffffffffffffffffffffffffff1690602001909291905050506117b0565b6040518082815260200191505060405180910390f35b34801561087357600080fd5b5061092a6004803603602081101561088a57600080fd5b81019080803590602001906401000000008111156108a757600080fd5b8201836020820111156108b957600080fd5b803590602001918460208302840111640100000000831117156108db57600080fd5b919080806020026020016040519081016040528093929190818152602001838360200280828437600081840152601f19601f8201169050808301925050505050505091929192905050506117c8565b604051808215151515815260200191505060405180910390f35b34801561095057600080fd5b50610959611a38565b6040518082815260200191505060405180910390f35b34801561097b57600080fd5b50610984611a3e565b604051808273ffffffffffffffffffffffffffffffffffffffff1673ffffffffffffffffffffffffffffffffffffffff16815260200191505060405180910390f35b3480156109d257600080fd5b50610ab6600480360360608110156109e957600080fd5b8101908080359060200190640100000000811115610a0657600080fd5b820183602082011115610a1857600080fd5b80359060200191846001830284011164010000000083111715610a3a57600080fd5b91908080601f016020809104026020016040519081016040528093929190818152602001838380828437600081840152601f19601f82011690508083019250505050505050919291929080359060200190929190803573ffffffffffffffffffffffffffffffffffffffff169060200190929190505050611a64565b604051808215151515815260200191505060405180910390f35b348015610adc57600080fd5b50610b9660048036036020811015610af357600080fd5b8101908080359060200190640100000000811115610b1057600080fd5b820183602082011115610b2257600080fd5b80359060200191846001830284011164010000000083111715610b4457600080fd5b91908080601f016020809104026020016040519081016040528093929190818152602001838380828437600081840152601f19601f820116905080830192505050505050509192919290505050611f76565b604051808215151515815260200191505060405180910390f35b348015610bbc57600080fd5b50610bc5612381565b6040518080602001828103825283818151815260200191508051906020019080838360005b83811015610c05578082015181840152602081019050610bea565b50505050905090810190601f168015610c325780820380516001836020036101000a031916815260200191505b509250505060405180910390f35b348015610c4c57600080fd5b50610c9960048036036040811015610c6357600080fd5b81019080803573ffffffffffffffffffffffffffffffffffffffff1690602001909291908035906020019092919050505061241f565b604051808215151515815260200191505060405180910390f35b348015610cbf57600080fd5b50610cc8612578565b604051808215151515815260200191505060405180910390f35b348015610cee57600080fd5b50610cf7612581565b6040518082815260200191505060405180910390f35b348015610d1957600080fd5b50610d6660048036036040811015610d3057600080fd5b81019080803573ffffffffffffffffffffffffffffffffffffffff16906020019092919080359060200190929190505050612587565b604051808215151515815260200191505060405180910390f35b348015610d8c57600080fd5b50610db960048036036020811015610da357600080fd5b8101908080359060200190929190505050612f57565b604051808c81526020018b81526020018a73ffffffffffffffffffffffffffffffffffffffff1673ffffffffffffffffffffffffffffffffffffffff1681526020018973ffffffffffffffffffffffffffffffffffffffff1673ffffffffffffffffffffffffffffffffffffffff1681526020018873ffffffffffffffffffffffffffffffffffffffff1673ffffffffffffffffffffffffffffffffffffffff1681526020018773ffffffffffffffffffffffffffffffffffffffff1673ffffffffffffffffffffffffffffffffffffffff168152602001806020018681526020018573ffffffffffffffffffffffffffffffffffffffff1673ffffffffffffffffffffffffffffffffffffffff16815260200180602001848152602001838103835288818151815260200191508051906020019080838360005b83811015610f0f578082015181840152602081019050610ef4565b50505050905090810190601f168015610f3c5780820380516001836020036101000a031916815260200191505b50838103825285818151815260200191508051906020019080838360005b83811015610f75578082015181840152602081019050610f5a565b50505050905090810190601f168015610fa25780820380516001836020036101000a031916815260200191505b509d505050505050505050505050505060405180910390f35b348015610fc757600080fd5b50610fd0613190565b6040518082815260200191505060405180910390f35b348015610ff257600080fd5b50610ffb61319d565b6040518082815260200191505060405180910390f35b34801561101d57600080fd5b506110606004803603602081101561103457600080fd5b81019080803573ffffffffffffffffffffffffffffffffffffffff1690602001909291905050506131aa565b60405180831515151581526020018281526020019250505060405180910390f35b34801561108d57600080fd5b50611110600480360360608110156110a457600080fd5b81019080803573ffffffffffffffffffffffffffffffffffffffff169060200190929190803573ffffffffffffffffffffffffffffffffffffffff169060200190929190803573ffffffffffffffffffffffffffffffffffffffff1690602001909291905050506131db565b604051808215151515815260200191505060405180910390f35b34801561113657600080fd5b5061113f61376e565b6040518082815260200191505060405180910390f35b60075481565b6000816008541015151561116e57600080fd5b8160086000828254039250508190555081601960008573ffffffffffffffffffffffffffffffffffffffff1673ffffffffffffffffffffffffffffffffffffffff168152602001908152602001600020600082825401925050819055507f58becdf9a931dd5ffd26ec2dde1ceab1683ffc0744ebd71f33267bc4406cc8478383604051808373ffffffffffffffffffffffffffffffffffffffff1673ffffffffffffffffffffffffffffffffffffffff1681526020018281526020019250505060405180910390a16001905092915050565b60008054600181600116156101000203166002900480601f0160208091040260200160405190810160405280929190818152602001828054600181600116156101000203166002900480156112d65780601f106112ab576101008083540402835291602001916112d6565b820191906000526020600020905b8154815290600101906020018083116112b957829003601f168201915b505050505081565b60035481565b600260009054906101000a900460ff1681565b600a8181548110151561130657fe5b906000526020600020016000915054906101000a900473ffffffffffffffffffffffffffffffffffffffff1681565b60006001905090565b600c8181548110151561134d57fe5b90600052602060002090600b02016000915090508060000154908060010154908060020160009054906101000a900473ffffffffffffffffffffffffffffffffffffffff16908060030160009054906101000a900473ffffffffffffffffffffffffffffffffffffffff16908060040160009054906101000a900473ffffffffffffffffffffffffffffffffffffffff16908060050160009054906101000a900473ffffffffffffffffffffffffffffffffffffffff1690806006018054600181600116156101000203166002900480601f01602080910402602001604051908101604052809291908181526020018280546001816001161561010002031660029004801561149d5780601f106114725761010080835404028352916020019161149d565b820191906000526020600020905b81548152906001019060200180831161148057829003601f168201915b5050505050908060070154908060080160009054906101000a900473ffffffffffffffffffffffffffffffffffffffff1690806009018054600181600116156101000203166002900480601f0160208091040260200160405190810160405280929190818152602001828054600181600116156101000203166002900480156115675780601f1061153c57610100808354040283529160200191611567565b820191906000526020600020905b81548152906001019060200180831161154a57829003601f168201915b50505050509080600a015490508b565b600b8181548110151561158657fe5b90600052602060002090600b02016000915090508060000154908060010154908060020160009054906101000a900473ffffffffffffffffffffffffffffffffffffffff16908060030160009054906101000a900473ffffffffffffffffffffffffffffffffffffffff16908060040160009054906101000a900473ffffffffffffffffffffffffffffffffffffffff16908060050160009054906101000a900473ffffffffffffffffffffffffffffffffffffffff1690806006018054600181600116156101000203166002900480601f0160208091040260200160405190810160405280929190818152602001828054600181600116156101000203166002900480156116d65780601f106116ab576101008083540402835291602001916116d6565b820191906000526020600020905b8154815290600101906020018083116116b957829003601f168201915b5050505050908060070154908060080160009054906101000a900473ffffffffffffffffffffffffffffffffffffffff1690806009018054600181600116156101000203166002900480601f0160208091040260200160405190810160405280929190818152602001828054600181600116156101000203166002900480156117a05780601f10611775576101008083540402835291602001916117a0565b820191906000526020600020905b81548152906001019060200180831161178357829003601f168201915b50505050509080600a015490508b565b60196020528060005260406000206000915090505481565b6000808251905060008090505b818110156119a557601a600085838151811015156117ef57fe5b9060200190602002015173ffffffffffffffffffffffffffffffffffffffff1673ffffffffffffffffffffffffffffffffffffffff168152602001908152602001600020506001601a60003373ffffffffffffffffffffffffffffffffffffffff1673ffffffffffffffffffffffffffffffffffffffff16815260200190815260200160002060010154016040519080825280602002602001820160405280156118ad57816020015b60608152602001906001900390816118985790505b50601a600086848151811015156118c057fe5b9060200190602002015173ffffffffffffffffffffffffffffffffffffffff1673ffffffffffffffffffffffffffffffffffffffff168152602001908152602001600020600301908051906020019061191a929190613935565b50600a848281518110151561192b57fe5b9060200190602002015190806001815401808255809150509060018203906000526020600020016000909192909190916101000a81548173ffffffffffffffffffffffffffffffffffffffff021916908373ffffffffffffffffffffffffffffffffffffffff1602179055505080806001019150506117d5565b50806004600082825401925050819055507f28b9850d7271e5258efeee5c16852dd3183a05db1d791f16f171dbe44eecf1bf836040518080602001828103825283818151815260200191508051906020019060200280838360005b83811015611a1b578082015181840152602081019050611a00565b505050509050019250505060405180910390a16001915050919050565b60085481565b600660009054906101000a900473ffffffffffffffffffffffffffffffffffffffff1681565b600060011515601a60003373ffffffffffffffffffffffffffffffffffffffff1673ffffffffffffffffffffffffffffffffffffffff16815260200190815260200160002060000160009054906101000a900460ff161515141515611ac857600080fd5b6001601a60003373ffffffffffffffffffffffffffffffffffffffff1673ffffffffffffffffffffffffffffffffffffffff1681526020019081526020016000206001015401600e600001819055506001600e6001018190555033600e60020160006101000a81548173ffffffffffffffffffffffffffffffffffffffff021916908373ffffffffffffffffffffffffffffffffffffffff16021790555033600e60050160006101000a81548173ffffffffffffffffffffffffffffffffffffffff021916908373ffffffffffffffffffffffffffffffffffffffff16021790555083600e6006019080519060200190611bc3929190613995565b5082600e6007018190555081600e60080160006101000a81548173ffffffffffffffffffffffffffffffffffffffff021916908373ffffffffffffffffffffffffffffffffffffffff160217905550600954600e600a0181905550601a60003373ffffffffffffffffffffffffffffffffffffffff1673ffffffffffffffffffffffffffffffffffffffff168152602001908152602001600020600201600e9080600181540180825580915050906001820390600052602060002090600b02016000909192909190915060008201548160000155600182015481600101556002820160009054906101000a900473ffffffffffffffffffffffffffffffffffffffff168160020160006101000a81548173ffffffffffffffffffffffffffffffffffffffff021916908373ffffffffffffffffffffffffffffffffffffffff1602179055506003820160009054906101000a900473ffffffffffffffffffffffffffffffffffffffff168160030160006101000a81548173ffffffffffffffffffffffffffffffffffffffff021916908373ffffffffffffffffffffffffffffffffffffffff1602179055506004820160009054906101000a900473ffffffffffffffffffffffffffffffffffffffff168160040160006101000a81548173ffffffffffffffffffffffffffffffffffffffff021916908373ffffffffffffffffffffffffffffffffffffffff1602179055506005820160009054906101000a900473ffffffffffffffffffffffffffffffffffffffff168160050160006101000a81548173ffffffffffffffffffffffffffffffffffffffff021916908373ffffffffffffffffffffffffffffffffffffffff16021790555060068201816006019080546001816001161561010002031660029004611e64929190613a15565b50600782015481600701556008820160009054906101000a900473ffffffffffffffffffffffffffffffffffffffff168160080160006101000a81548173ffffffffffffffffffffffffffffffffffffffff021916908373ffffffffffffffffffffffffffffffffffffffff16021790555060098201816009019080546001816001161561010002031660029004611efd929190613a15565b50600a82015481600a0155505050601a60003373ffffffffffffffffffffffffffffffffffffffff1673ffffffffffffffffffffffffffffffffffffffff168152602001908152602001600020600101600081546001019190508190555060096000815460010191905081905550600190509392505050565b6000601a60003373ffffffffffffffffffffffffffffffffffffffff1673ffffffffffffffffffffffffffffffffffffffff168152602001908152602001600020600301829080600181540180825580915050906001820390600052602060002001600090919290919091509080519060200190611ff5929190613995565b505081601a60003373ffffffffffffffffffffffffffffffffffffffff1673ffffffffffffffffffffffffffffffffffffffff1681526020019081526020016000206002016001601a60003373ffffffffffffffffffffffffffffffffffffffff1673ffffffffffffffffffffffffffffffffffffffff168152602001908152602001600020600101540381548110151561208c57fe5b90600052602060002090600b020160090190805190602001906120b0929190613995565b5081600e60090190805190602001906120ca929190613995565b50600c600e9080600181540180825580915050906001820390600052602060002090600b02016000909192909190915060008201548160000155600182015481600101556002820160009054906101000a900473ffffffffffffffffffffffffffffffffffffffff168160020160006101000a81548173ffffffffffffffffffffffffffffffffffffffff021916908373ffffffffffffffffffffffffffffffffffffffff1602179055506003820160009054906101000a900473ffffffffffffffffffffffffffffffffffffffff168160030160006101000a81548173ffffffffffffffffffffffffffffffffffffffff021916908373ffffffffffffffffffffffffffffffffffffffff1602179055506004820160009054906101000a900473ffffffffffffffffffffffffffffffffffffffff168160040160006101000a81548173ffffffffffffffffffffffffffffffffffffffff021916908373ffffffffffffffffffffffffffffffffffffffff1602179055506005820160009054906101000a900473ffffffffffffffffffffffffffffffffffffffff168160050160006101000a81548173ffffffffffffffffffffffffffffffffffffffff021916908373ffffffffffffffffffffffffffffffffffffffff160217905550600682018160060190805460018160011615610100020316600290046122d1929190613a15565b50600782015481600701556008820160009054906101000a900473ffffffffffffffffffffffffffffffffffffffff168160080160006101000a81548173ffffffffffffffffffffffffffffffffffffffff021916908373ffffffffffffffffffffffffffffffffffffffff1602179055506009820181600901908054600181600116156101000203166002900461236a929190613a15565b50600a82015481600a015550505060019050919050565b60018054600181600116156101000203166002900480601f0160208091040260200160405190810160405280929190818152602001828054600181600116156101000203166002900480156124175780601f106123ec57610100808354040283529160200191612417565b820191906000526020600020905b8154815290600101906020018083116123fa57829003601f168201915b505050505081565b600081601960003373ffffffffffffffffffffffffffffffffffffffff1673ffffffffffffffffffffffffffffffffffffffff168152602001908152602001600020541015151561246f57600080fd5b81601960003373ffffffffffffffffffffffffffffffffffffffff1673ffffffffffffffffffffffffffffffffffffffff1681526020019081526020016000206000828254039250508190555081601960008573ffffffffffffffffffffffffffffffffffffffff1673ffffffffffffffffffffffffffffffffffffffff168152602001908152602001600020600082825401925050819055508273ffffffffffffffffffffffffffffffffffffffff163373ffffffffffffffffffffffffffffffffffffffff167fddf252ad1be2c89b69c2b068fc378daa952ba7f163c4a11628f55a4df523b3ef846040518082815260200191505060405180910390a36001905092915050565b60006001905090565b60055481565b600060011515601a60003373ffffffffffffffffffffffffffffffffffffffff1673ffffffffffffffffffffffffffffffffffffffff16815260200190815260200160002060000160009054906101000a900460ff1615151415156125eb57600080fd5b3373ffffffffffffffffffffffffffffffffffffffff168373ffffffffffffffffffffffffffffffffffffffff161415151561262657600080fd5b3373ffffffffffffffffffffffffffffffffffffffff16601a60008573ffffffffffffffffffffffffffffffffffffffff1673ffffffffffffffffffffffffffffffffffffffff1681526020019081526020016000206002018381548110151561268c57fe5b90600052602060002090600b020160020160009054906101000a900473ffffffffffffffffffffffffffffffffffffffff1673ffffffffffffffffffffffffffffffffffffffff16141515156126e157600080fd5b3373ffffffffffffffffffffffffffffffffffffffff16601a60008573ffffffffffffffffffffffffffffffffffffffff1673ffffffffffffffffffffffffffffffffffffffff1681526020019081526020016000206002018381548110151561274757fe5b90600052602060002090600b020160030160009054906101000a900473ffffffffffffffffffffffffffffffffffffffff1673ffffffffffffffffffffffffffffffffffffffff161415151561279c57600080fd5b601a60008473ffffffffffffffffffffffffffffffffffffffff1673ffffffffffffffffffffffffffffffffffffffff168152602001908152602001600020600201828154811015156127eb57fe5b90600052602060002090600b020160010160008154600101919050819055506001601a60008573ffffffffffffffffffffffffffffffffffffffff1673ffffffffffffffffffffffffffffffffffffffff1681526020019081526020016000206002018381548110151561285b57fe5b90600052602060002090600b02016001015414156129175733601a60008573ffffffffffffffffffffffffffffffffffffffff1673ffffffffffffffffffffffffffffffffffffffff168152602001908152602001600020600201838154811015156128c357fe5b90600052602060002090600b020160030160006101000a81548173ffffffffffffffffffffffffffffffffffffffff021916908373ffffffffffffffffffffffffffffffffffffffff1602179055506129b7565b33601a60008573ffffffffffffffffffffffffffffffffffffffff1673ffffffffffffffffffffffffffffffffffffffff1681526020019081526020016000206002018381548110151561296757fe5b90600052602060002090600b020160030160006101000a81548173ffffffffffffffffffffffffffffffffffffffff021916908373ffffffffffffffffffffffffffffffffffffffff1602179055505b6003601a60008573ffffffffffffffffffffffffffffffffffffffff1673ffffffffffffffffffffffffffffffffffffffff16815260200190815260200160002060020183815481101515612a0857fe5b90600052602060002090600b0201600101541415612f4d577f9f13dff2a19a1998adb10caae98c6c2805e6fd43318bd120872ceda7582c57e9601a60008573ffffffffffffffffffffffffffffffffffffffff1673ffffffffffffffffffffffffffffffffffffffff16815260200190815260200160002060020183815481101515612a9057fe5b90600052602060002090600b0201600101546040518082815260200191505060405180910390a1612ac18383613774565b600b601a60008573ffffffffffffffffffffffffffffffffffffffff1673ffffffffffffffffffffffffffffffffffffffff16815260200190815260200160002060020183815481101515612b1257fe5b90600052602060002090600b02019080600181540180825580915050906001820390600052602060002090600b02016000909192909190915060008201548160000155600182015481600101556002820160009054906101000a900473ffffffffffffffffffffffffffffffffffffffff168160020160006101000a81548173ffffffffffffffffffffffffffffffffffffffff021916908373ffffffffffffffffffffffffffffffffffffffff1602179055506003820160009054906101000a900473ffffffffffffffffffffffffffffffffffffffff168160030160006101000a81548173ffffffffffffffffffffffffffffffffffffffff021916908373ffffffffffffffffffffffffffffffffffffffff1602179055506004820160009054906101000a900473ffffffffffffffffffffffffffffffffffffffff168160040160006101000a81548173ffffffffffffffffffffffffffffffffffffffff021916908373ffffffffffffffffffffffffffffffffffffffff1602179055506005820160009054906101000a900473ffffffffffffffffffffffffffffffffffffffff168160050160006101000a81548173ffffffffffffffffffffffffffffffffffffffff021916908373ffffffffffffffffffffffffffffffffffffffff16021790555060068201816006019080546001816001161561010002031660029004612d22929190613a15565b50600782015481600701556008820160009054906101000a900473ffffffffffffffffffffffffffffffffffffffff168160080160006101000a81548173ffffffffffffffffffffffffffffffffffffffff021916908373ffffffffffffffffffffffffffffffffffffffff16021790555060098201816009019080546001816001161561010002031660029004612dbb929190613a15565b50600a82015481600a0155505050600c601a60008573ffffffffffffffffffffffffffffffffffffffff1673ffffffffffffffffffffffffffffffffffffffff16815260200190815260200160002060020183815481101515612e1a57fe5b90600052602060002090600b0201600a0154815481101515612e3857fe5b90600052602060002090600b020160008082016000905560018201600090556002820160006101000a81549073ffffffffffffffffffffffffffffffffffffffff02191690556003820160006101000a81549073ffffffffffffffffffffffffffffffffffffffff02191690556004820160006101000a81549073ffffffffffffffffffffffffffffffffffffffff02191690556005820160006101000a81549073ffffffffffffffffffffffffffffffffffffffff0219169055600682016000612f039190613a9c565b60078201600090556008820160006101000a81549073ffffffffffffffffffffffffffffffffffffffff0219169055600982016000612f429190613a9c565b600a82016000905550505b6001905092915050565b600d81815481101515612f6657fe5b90600052602060002090600b02016000915090508060000154908060010154908060020160009054906101000a900473ffffffffffffffffffffffffffffffffffffffff16908060030160009054906101000a900473ffffffffffffffffffffffffffffffffffffffff16908060040160009054906101000a900473ffffffffffffffffffffffffffffffffffffffff16908060050160009054906101000a900473ffffffffffffffffffffffffffffffffffffffff1690806006018054600181600116156101000203166002900480601f0160208091040260200160405190810160405280929190818152602001828054600181600116156101000203166002900480156130b65780601f1061308b576101008083540402835291602001916130b6565b820191906000526020600020905b81548152906001019060200180831161309957829003601f168201915b5050505050908060070154908060080160009054906101000a900473ffffffffffffffffffffffffffffffffffffffff1690806009018054600181600116156101000203166002900480601f0160208091040260200160405190810160405280929190818152602001828054600181600116156101000203166002900480156131805780601f1061315557610100808354040283529160200191613180565b820191906000526020600020905b81548152906001019060200180831161316357829003601f168201915b50505050509080600a015490508b565b6000600b80549050905090565b6000600c80549050905090565b601a6020528060005260406000206000915090508060000160009054906101000a900460ff16908060010154905082565b60006001601a60008673ffffffffffffffffffffffffffffffffffffffff1673ffffffffffffffffffffffffffffffffffffffff16815260200190815260200160002060000160006101000a81548160ff0219169083151502179055506001601a60003373ffffffffffffffffffffffffffffffffffffffff1673ffffffffffffffffffffffffffffffffffffffff16815260200190815260200160002060010154016040519080825280602002602001820160405280156132b157816020015b606081526020019060019003908161329c5790505b50601a60008673ffffffffffffffffffffffffffffffffffffffff1673ffffffffffffffffffffffffffffffffffffffff1681526020019081526020016000206003019080519060200190613307929190613935565b506001601a60008573ffffffffffffffffffffffffffffffffffffffff1673ffffffffffffffffffffffffffffffffffffffff16815260200190815260200160002060000160006101000a81548160ff0219169083151502179055506001601a60003373ffffffffffffffffffffffffffffffffffffffff1673ffffffffffffffffffffffffffffffffffffffff16815260200190815260200160002060010154016040519080825280602002602001820160405280156133dc57816020015b60608152602001906001900390816133c75790505b50601a60008573ffffffffffffffffffffffffffffffffffffffff1673ffffffffffffffffffffffffffffffffffffffff1681526020019081526020016000206003019080519060200190613432929190613935565b506001601a60008473ffffffffffffffffffffffffffffffffffffffff1673ffffffffffffffffffffffffffffffffffffffff16815260200190815260200160002060000160006101000a81548160ff0219169083151502179055506001601a60003373ffffffffffffffffffffffffffffffffffffffff1673ffffffffffffffffffffffffffffffffffffffff168152602001908152602001600020600101540160405190808252806020026020018201604052801561350757816020015b60608152602001906001900390816134f25790505b50601a60008473ffffffffffffffffffffffffffffffffffffffff1673ffffffffffffffffffffffffffffffffffffffff168152602001908152602001600020600301908051906020019061355d929190613935565b50600a8490806001815401808255809150509060018203906000526020600020016000909192909190916101000a81548173ffffffffffffffffffffffffffffffffffffffff021916908373ffffffffffffffffffffffffffffffffffffffff16021790555050600a8390806001815401808255809150509060018203906000526020600020016000909192909190916101000a81548173ffffffffffffffffffffffffffffffffffffffff021916908373ffffffffffffffffffffffffffffffffffffffff16021790555050600a8290806001815401808255809150509060018203906000526020600020016000909192909190916101000a81548173ffffffffffffffffffffffffffffffffffffffff021916908373ffffffffffffffffffffffffffffffffffffffff1602179055505060036004819055507f90c5757fc4fa5d1822eb62f02567da41c848dcecb5cfe2e69ece7fd12f60f890848484604051808473ffffffffffffffffffffffffffffffffffffffff1673ffffffffffffffffffffffffffffffffffffffff1681526020018373ffffffffffffffffffffffffffffffffffffffff1673ffffffffffffffffffffffffffffffffffffffff1681526020018273ffffffffffffffffffffffffffffffffffffffff1673ffffffffffffffffffffffffffffffffffffffff168152602001935050505060405180910390a1600190509392505050565b60045481565b60011515601a60003373ffffffffffffffffffffffffffffffffffffffff1673ffffffffffffffffffffffffffffffffffffffff16815260200190815260200160002060000160009054906101000a900460ff1615151415156137d657600080fd5b600454601a60008473ffffffffffffffffffffffffffffffffffffffff1673ffffffffffffffffffffffffffffffffffffffff1681526020019081526020016000206002018281548110151561382857fe5b90600052602060002090600b02016001015414151561384657600080fd5b613930601a60008473ffffffffffffffffffffffffffffffffffffffff1673ffffffffffffffffffffffffffffffffffffffff1681526020019081526020016000206002018281548110151561389857fe5b90600052602060002090600b020160080160009054906101000a900473ffffffffffffffffffffffffffffffffffffffff16601a60008573ffffffffffffffffffffffffffffffffffffffff1673ffffffffffffffffffffffffffffffffffffffff1681526020019081526020016000206002018381548110151561391957fe5b90600052602060002090600b02016007015461115b565b505050565b828054828255906000526020600020908101928215613984579160200282015b82811115613983578251829080519060200190613973929190613ae4565b5091602001919060010190613955565b5b5090506139919190613b64565b5090565b828054600181600116156101000203166002900490600052602060002090601f016020900481019282601f106139d657805160ff1916838001178555613a04565b82800160010185558215613a04579182015b82811115613a035782518255916020019190600101906139e8565b5b509050613a119190613b90565b5090565b828054600181600116156101000203166002900490600052602060002090601f016020900481019282601f10613a4e5780548555613a8b565b82800160010185558215613a8b57600052602060002091601f016020900482015b82811115613a8a578254825591600101919060010190613a6f565b5b509050613a989190613b90565b5090565b50805460018160011615610100020316600290046000825580601f10613ac25750613ae1565b601f016020900490600052602060002090810190613ae09190613b90565b5b50565b828054600181600116156101000203166002900490600052602060002090601f016020900481019282601f10613b2557805160ff1916838001178555613b53565b82800160010185558215613b53579182015b82811115613b52578251825591602001919060010190613b37565b5b509050613b609190613b90565b5090565b613b8d91905b80821115613b895760008181613b809190613a9c565b50600101613b6a565b5090565b90565b613bb291905b80821115613bae576000816000905550600101613b96565b5090565b9056fea165627a7a72305820e1cf798db14214bb514499d964032c6f076e8207c47eca69fa0ea47764fb60360029",
  "source": "\r\npragma solidity >=0.4.7 <0.6.0;\r\n// pragma experimental ABIEncoderV2;\r\n\r\ncontract Token{\r\n\r\n    struct signaturies{\r\n        bool signer;\r\n        uint index;\r\n        transactions [] transaction;\r\n        string [] receipts;\r\n    }\r\n\r\n    struct transactions{\r\n        uint256 id;\r\n        uint no_signed;\r\n        address signed1;\r\n        address signed2;\r\n        address signed3;\r\n        address executioner;\r\n        string purpose;\r\n        uint256 amount;\r\n        address to;\r\n        string txHash;\r\n        uint index;\r\n    }\r\n\r\n\r\n    string public name = \"UMaTCoin\";\r\n    string public symbol = \"UMC\";\r\n    uint8 public decimals = 8;\r\n    uint public totalSupply;\r\n    uint public no_signaturies;\r\n    uint public no_signed=0;\r\n    address public owner;\r\n    uint public execs_signed = 0;\r\n    uint public contractBalance;\r\n    uint index = 0;\r\n    address [] public signaturesAuthorized;\r\n    transactions [] public signedTransactions;\r\n    transactions [] public pendingTransactions;\r\n    transactions [] public allTransactions;\r\n\r\n    transactions trans;\r\n\r\n    //events\r\n    event Transfer(address indexed _from, address indexed _to, uint256 _value);\r\n    event Approval(address indexed _owner, address indexed _spender, uint256 _value);\r\n    event SignaturiesCreated(address treasurer,address financeOfficer, address president);\r\n    event AddSignaturies(address[] signaturies);\r\n    // event ApproveTransaction(address address(this), uint id, uint no_signed, address executioner, address [] sig);\r\n    event TransferFrom(address _to, uint256 _value);\r\n    event Data(bool a);\r\n    event TransactionDet(uint id, uint no_signed, address signed, address executioner);\r\n    // event ReceiptDetails(bytes [] receipts);\r\n    // event SignedTransactions(transactions [] signedTrans);\r\n    event PendingTransaction(\r\n        uint256 id,\r\n        uint no_signed,\r\n        address [] signed,\r\n        address executioner,\r\n        string purpose,\r\n        uint256 amount,\r\n        address to,\r\n        bytes txHash\r\n    );\r\n    \r\n    mapping(address => uint256) public balanceOf;\r\n    mapping(address => signaturies) public sign;\r\n\r\n    constructor(uint256 _initialSupply, address treasurer, address financeOfficer, address president) public {\r\n        owner = msg.sender;\r\n        balanceOf[owner] = 2000;\r\n        totalSupply = _initialSupply;\r\n        contractBalance = _initialSupply;\r\n        assignSignaturies(treasurer,financeOfficer,president);\r\n    }\r\n    \r\n\r\n    // modifier for only signaturies\r\n    modifier signersOnly{\r\n        require(sign[msg.sender].signer==true);\r\n        _;    \r\n    }\r\n\r\n\r\n    modifier signedOnly(uint transId){\r\n        require(sign[msg.sender].transaction[transId].no_signed == no_signaturies);\r\n        _;    \r\n    }\r\n\r\n    \r\n\r\n    // transfer from current address to another address {Not really required since transaction is from contract address to 'to' address}\r\n    function transfer(address _to, uint256 _value) public returns (bool success){\r\n        //check for enough funds b4 transfer\r\n        require(balanceOf[msg.sender]>=_value);\r\n        //Subtract from current balance\r\n        balanceOf[msg.sender]-=_value;\r\n        //Transfer amount\r\n        balanceOf[_to] += _value;\r\n        emit Transfer(msg.sender,_to,_value);\r\n        return true;\r\n    }\r\n\r\n    // transfer from contract address to specified address\r\n    function transferFrom(address _to, uint256 _value) public returns (bool success){\r\n\r\n        require(contractBalance >= _value);\r\n        contractBalance -= _value;\r\n        balanceOf[_to] += _value;\r\n        emit TransferFrom(_to,_value);\r\n        return true; \r\n    }\r\n    \r\n    function createTransaction(string memory purpose, uint256 amount, address to) public signersOnly returns(bool success){\r\n        // trans = transactions(sign[msg.sender].index,0,new address[](no_signaturies),msg.sender,\"\",0,0x0000000000000000000000000000000000000000,\"\");\r\n        trans.id = sign[msg.sender].index+1;\r\n        trans.no_signed=1;\r\n        trans.signed1=msg.sender;\r\n        trans.executioner = msg.sender;\r\n        trans.purpose = purpose;\r\n        trans.amount = amount;\r\n        trans.to = to;\r\n        trans.index = index;\r\n        sign[msg.sender].transaction.push(trans);\r\n        ++sign[msg.sender].index;\r\n        ++index;\r\n        // pendingTransactions.push(trans);\r\n        // emit TransactionDet(sign[msg.sender].transaction[index].id,sign[msg.sender].transaction[0].no_signed,sign[msg.sender].transaction[0].signed[index], sign[msg.sender].transaction[0].executioner);\r\n        return true;\r\n    }\r\n\r\nevent Ts(uint t);\r\nevent Ac(uint a);\r\n    function signTransaction(address executioner, uint id) public signersOnly returns (bool success){\r\n        require(executioner != msg.sender );\r\n        require(sign[executioner].transaction[id].signed1!=msg.sender);\r\n        require(sign[executioner].transaction[id].signed2!=msg.sender);\r\n\r\n        // emit Ts(sign[executioner].transaction[id].no_signed);\r\n\r\n        ++sign[executioner].transaction[id].no_signed;\r\n        if(sign[executioner].transaction[id].no_signed==1){\r\n            sign[executioner].transaction[id].signed2=msg.sender;\r\n        }else{\r\n            sign[executioner].transaction[id].signed2=msg.sender;\r\n        }\r\n        \r\n        \r\n        // emit Ts(sign[executioner].transaction[id].no_signed);\r\n        if(sign[executioner].transaction[id].no_signed == 3){\r\n            emit Ts(sign[executioner].transaction[id].no_signed);\r\n            approve(executioner,id);\r\n            signedTransactions.push(sign[executioner].transaction[id]);\r\n            delete pendingTransactions[sign[executioner].transaction[id].index];\r\n        }\r\n        return true;\r\n    }\r\n\r\n    function approve (address executioner, uint transId) private signersOnly{\r\n        require(sign[executioner].transaction[transId].no_signed == no_signaturies);\r\n        transferFrom(sign[executioner].transaction[transId].to, sign[executioner].transaction[transId].amount);\r\n        // emit ApproveTransaction(address(this), transId, sign[executioner].transaction[transId].no_signed, executioner,signaturesAuthorized);\r\n        // emit TransferDet(transId, sign[executioner].transaction[transId].no_signed, executioner)\r\n        // return false;\r\n    }\r\n\r\n    // function allowance(address _owner, address _spender) public view returns (uint256 remaining){\r\n\r\n    // }\r\n\r\n    function assignSignaturies(address treasurer, address financeOfficer, address president) public returns (bool success) {\r\n        // sig = signaturies(true,0, transactions(index,0,new address[](no_signaturies),msg.sender,\"\",0,0x0000000000000000000000000000000000000000,''));\r\n        sign[treasurer].signer=true;\r\n        sign[treasurer].receipts=new string[](sign[msg.sender].index+1);\r\n        sign[financeOfficer].signer=true;\r\n        sign[financeOfficer].receipts=new string[](sign[msg.sender].index+1);\r\n        sign[president].signer=true;\r\n        sign[president].receipts=new string[](sign[msg.sender].index+1);\r\n        signaturesAuthorized.push(treasurer);\r\n        signaturesAuthorized.push(financeOfficer);\r\n        signaturesAuthorized.push(president);\r\n        no_signaturies = 3;\r\n        emit SignaturiesCreated(treasurer,financeOfficer, president);\r\n        return true;\r\n    }\r\n\r\n    function addSignatory(address[] memory signers) public returns (bool success) {\r\n\r\n        uint len = signers.length;\r\n\r\n        for(uint i = 0; i < len; i++){\r\n            sign[signers[i]];\r\n            sign[signers[i]].receipts=new string[](sign[msg.sender].index+1);\r\n            signaturesAuthorized.push(signers[i]);\r\n        }\r\n        no_signaturies += len; \r\n        emit AddSignaturies(signers);\r\n        return true;\r\n    }\r\n\r\n    function saveReceipt(string memory receipt) public returns (bool successs){\r\n        sign[msg.sender].receipts.push(receipt);\r\n        sign[msg.sender].transaction[sign[msg.sender].index - 1].txHash=receipt;\r\n        trans.txHash=receipt;\r\n        pendingTransactions.push(trans);\r\n        // emit ReceiptDetails(sign[msg.sender].receipts);\r\n        return true;\r\n    } \r\n\r\n    function viewSignedTransactions() public returns(bool success){\r\n        \r\n        // emit SignedTransactions(signedTransactions);\r\n        return true;\r\n    }\r\n\r\n    function viewPendingTransactions() public returns(bool success){\r\n        \r\n        // emit PendingTransactions(pendingTransactions);\r\n        // return pendingTransactions\r\n        return true;\r\n    }\r\n\r\n    function pendingTransactionsLength() public view returns(uint length){\r\n        return pendingTransactions.length;\r\n    }\r\n\r\n    function signedTransactionsLength() public view returns(uint length){\r\n        return signedTransactions.length;\r\n    }\r\n\r\n    // function getPendingTransaction(uint indexA) public returns(bool success){\r\n    //     transactions memory a = pendingTransactions[index];\r\n\r\n    //     emit PendingTransaction(a.id,a.no_signed,a.signed,a.executioner,a.purpose,a.amount,a.to,a.txHash);\r\n    //     return true;\r\n    // }\r\n\r\n}",
  "sourcePath": "C:/xampp/htdocs/Fintech/src/ledger/contracts/Token.sol",
  "compiler": {
    "name": "solc",
    "version": "0.5.0+commit.1d4f565a.Emscripten.clang"
  },
  "schemaVersion": "3.0.2",
  "updatedAt": "2019-04-28T12:18:54.006Z",
  "devdoc": {
    "methods": {}
  },
  "userdoc": {
    "methods": {}
  }
}